:020000040800F2
:1000000058300020BD4D0008491000084B10000872
:100010004F1000085310000857100008000000009F
:100020000000000000000000000000005B1000085D
:100030005D100008000000005F100008611000085B
:10004000D74D0008D74D0008D74D0008D74D000800
:10005000D74D0008D74D0008D74D00087B10000889
:10006000D74D0008D74D0008D74D0008D74D0008E0
:10007000D74D0008D74D0008D74D0008D74D0008D0
:10008000D74D0008D74D0008D74D0008971000083D
:100090009F100008D74D0008D74D0008D74D000825
:1000A000D74D0008D74D0008D74D0008D74D0008A0
:1000B000A7100008C9100008D74D0008D74D000848
:1000C000D74D0008D74D0008D74D0008D74D000880
:1000D000D74D0008371B0008371C0008D74D000813
:1000E000D74D0008D74D0008D74D0008D74D000860
:1000F000D74D0008D74D0008D74D0008D74D000850
:10010000D74D000873100008D74D0008D74D0008E0
:10011000D74D0008D74D0008D74D0008D74D00082F
:10012000D74D0008D74D0008D74D0008D74D00081F
:1001300000F002F800F0B0F80AA090E8000C824449
:100140008344AAF10107DA4501D100F0A5F8AFF226
:10015000090EBAE80F0013F0010F18BFFB1A43F0A5
:1001600001031847D8A20300F8A203000A444FF085
:10017000000C10F8013B13F0070408BF10F8014B06
:100180001D1108BF10F8015B641E05D010F8016B4B
:10019000641E01F8016BF9D113F0080F1EBF10F8AF
:1001A000014BAD1C0C1B09D16D1E58BF01F801CBD2
:1001B000FAD505E014F8016B01F8016B6D1EF9D555
:1001C0009142D6D37047000000230024002500266A
:1001D000103A28BF78C1FBD8520728BF30C148BFAA
:1001E0000B6070476E290DF02A8270290CF04F8643
:1001F00066290EF0F58565290EF0F28567290EF067
:10020000EF856129AFF3008003681B0A28BF41F026
:10021000800169290CF0C08564290CF0BD85752921
:100220000CF0BA856F290DF0308578290CF01B860B
:10023000E9290DF0CB84E4290DF0C884F5290DF0EF
:10024000C584EF290DF02D85F8290CF01A86036876
:10025000DB0928BF41F0800163290DF03A8473293E
:100260000DF03F84E3290DF00B86F3290DF0108685
:10027000002070471FB50DF067FD0400002000212D
:100280000EF06CFC401C6060002000210EF07CFC35
:10029000E0601FBD10B510BD0EF04EF81146FFF71F
:1002A000E9FF00F006FC0EF06CF803B4FFF7F2FF74
:1002B00003BC01F0D7FB000010B5CEA00CF0FAFC97
:1002C000052001F042FDCEA00CF0F4FC052001F069
:1002D0003CFDCEA00CF0EEFC052001F036FDCFA0D9
:1002E0000CF0E8FC052001F030FDD0A00CF0E2FCA1
:1002F000052001F02AFDD1A00CF0DCFC052001F066
:1003000024FDD2A00CF0D6FC052001F01EFDD3A0E8
:100310000CF0D0FC052001F018FDD4A00CF0CAFCB4
:10032000052001F012FDD5A00CF0C4FC052001F061
:100330000CFDD6A00CF0BEFC052001F006FDD6A0F9
:100340000CF0B8FC052001F000FDD6A00CF0B2FCCA
:10035000052001F0FAFCD6A00CF0ACFC052001F061
:10036000F4FCD6A00CF0A6FC052001F0EEFCD7A012
:100370000CF0A0FC052001F0E8FCD8A00CF09AFCE1
:10038000052001F0E2FCD8A00CF094FC052001F05F
:10039000DCFCDAA00CF08EFC052001F0D6FCDBA022
:1003A0000CF088FC052001F0D0FCDDA00CF082FCF4
:1003B000052001F0CAFC10BD10B503F0B6FF1023F4
:1003C000DCA20021084604F08AF81023DBA20221F7
:1003D000002004F084F81023DCA20421002004F0A3
:1003E0007EF81023DDA20621002004F078F810BD6D
:1003F00070B504462146DDA00CF05CFC322C7AD2AC
:10040000DFE804F01924354657687A8BA8C5F7F65B
:10041000F5F4F3F2F1F0EFEEEDECEBEAE9E8E7E604
:10042000E5E4E3E2E1E0DFDEDDDCDBDAD9D8D7D6F4
:10043000D5D4D3D2D1D0D1A00CF03CFC052001F012
:1004400084FC0121D4A001F0D9F930E3D5A00CF04F
:1004500031FC052001F079FC0121DAA001F0CEF990
:10046000102331220221182003F09DFF1FE3D9A0A1
:100470000CF020FC052001F068FC0121DDA001F05A
:10048000BDF9102330220221182003F08CFF0EE367
:10049000DCA00CF00FFC052001F057FC0121E1A0CD
:1004A00001F0ACF9102331220221402003F07BFF40
:1004B000FDE2E0A00CF0FEFB052001F046FC01216E
:1004C000E4A001F09BF9102330220221402003F028
:1004D0006AFFECE2E3A00CF0EDFB052001F035FC37
:1004E0000121E8A001F08AF91023312202216820BD
:1004F00003F059FFDBE2D9E2E6A00CF0DBFB0520BC
:1005000001F023FC0121EBA001F078F91023302247
:100510000221682003F047FFC9E2EAA00CF0CAFB01
:10052000052001F012FC0121EEA001F067F9102373
:1005300031220221182003F036FF1023312202213C
:10054000402003F030FF102331220221682003F005
:100550002AFFACE2E7A00CF0ADFB052001F0F5FBB3
:100560000121ECA001F04AF91023302202211820C9
:1005700003F019FF102330220221402003F013FF63
:10058000102330220221682003F00DFF8FE2E5A046
:100590000CF090FB052001F0D8FB0121E8A001F050
:1005A0002DF984E281E27FE27DE27BE279E277E28B
:1005B00075E273E271E26FE26DE26BE269E267E2BB
:1005C00065E263E261E25FE25DE25BE259E257E22B
:1005D00055E253E251E24FE24DE24BE249E247E29B
:1005E0003BE22FE223E217E20BE2FFE1E3E1CDE1A0
:1005F000B7E1ABE1BFDAC1EEA3BA0D0A000000001B
:1006000030A1A2D0A1B6A3B5B10D0A0031A1A2B408
:10061000F2BFAABFCDCCFCB5C60D0A0032A1A2B96B
:10062000D8B1D5BFCDCCFCB5C60D0A0033A1A2B45C
:10063000F2BFAACED4CAD2B5C60D0A0034A1A2B95F
:10064000D8B1D5CED4CAD2B5C60D0A0035A1A2B450
:10065000F2BFAAB3F8B7BFB5C60D0A0036A1A2B95A
:10066000D8B1D5B3F8B7BFB5C60D0A0037A1A2B44B
:10067000F2BFAACBF9D3D0B5C60D0A0038A1A2B9F2
:10068000D8B1D5CBF9D3D0B5C60D0A0039A1A2C1D6
:10069000F7CBAEB5C60D0A003130A1A2C9C1CBB8A7
:1006A0000D0A00003131A1A2BFAAC3C50D0A000086
:1006B0003132A1A2B9D8C3C50D0A00003133A1A2BD
:1006C000B5B1C7B0CEC2B6C80D0A00003134A1A280
:1006D000B2A5B7C5D2F4C0D60D0A00003135A1A22B
:1006E000CDCBCFC20D0A00003136A1A2C4E3BBE1DD
:1006F000C9CFCCECC2F00D0A000000003137A1A236
:10070000BDB2B8F6D0A6BBB00D0A00003138A1A228
:10071000B4F2BFAAB7E4C3F9C6F70D0A000000009F
:100720003139A1A2B9D8B1D5B7E4C3F9C6F70D0ADA
:100730000000000054454D503A0000004C313A3062
:100740002C4C323A302C4C333A300000444F4F524C
:100750003A302C42555A5A45523A300042593A469C
:100760006973686572436C6F756400000D0ACAB6E0
:10077000B1F0C2EB3A25640D0A000000A1B0D0A18F
:10078000B6A3B5B1A1B1C3FCC1EECAB6B1F0B3C94D
:10079000B9A60D0A00000000C9CFCFDF2E6D70335F
:1007A00000000000A1B0B4F2BFAABFCDCCFCB5C61A
:1007B000A1B1C3FCC1EECAB6B1F0B3C9B9A60D0A66
:1007C00000000000BFCDCCFCB5C6BFAA2E6D7033B3
:1007D00000000000A1B0B9D8B1D5BFCDCCFCB5C6E2
:1007E000A1B1C3FCC1EECAB6B1F0B3C9B9A60D0A36
:1007F00000000000BFCDCCFCB5C6B9D82E6D70335B
:1008000000000000A1B0B4F2BFAACED4CAD2B5C6CF
:10081000A1B1C3FCC1EECAB6B1F0B3C9B9A60D0A05
:1008200000000000CED4CAD2B5C6BFAA2E6D703368
:1008300000000000A1B0B9D8B1D5CED4CAD2B5C697
:10084000A1B1C3FCC1EECAB6B1F0B3C9B9A60D0AD5
:1008500000000000CED4CAD2B5C6B9D82E6D703310
:1008600000000000A1B0B4F2BFAAB3F8B7BFB5C68C
:10087000A1B1C3FCC1EECAB6B1F0B3C9B9A60D0AA5
:1008800000000000B3F8B7BFB5C6BFAA2E6D703325
:1008900000000000A1B0B9D8B1D5B3F8B7BFB5C654
:1008A000A1B1C3FCC1EECAB6B1F0B3C9B9A60D0A75
:1008B00000000000B3F8B7BFB5C6B9D82E6D7033CD
:1008C00000000000A1B0B4F2BFAACBF9D3D0B5C6E6
:1008D000A1B1C3FCC1EECAB6B1F0B3C9B9A60D0A45
:1008E00000000000CBF9D3D0B5C6BFAA2E6D70337F
:1008F00000000000A1B0B9D8B1D5CBF9D3D0B5C6AE
:10090000A1B1C3FCC1EECAB6B1F0B3C9B9A60D0A14
:1009100000000000CBF9D3D0B5C6B9D82E6D703326
:1009200000000000A1B0C1F7CBAEB5C6A1B1C3FCB9
:10093000C1EECAB6B1F0B3C9B9A60D0A00000000F5
:10094000C1F7CBAEB5C62E6D70330000CDA00CF054
:10095000B1F9052001F0F9F90121D0A000F04EFF16
:10096000A5E0D1A00CF0A6F9052001F0EEF90121D7
:10097000D3A000F043FF102331220421282003F0EC
:1009800012FD4021D14805F040FE90E0D0A00CF0CF
:1009900091F9052001F0D9F90121D3A000F02EFF33
:1009A000102330220421282003F0FDFC4021C748F9
:1009B00005F029FE7BE0CFA00CF07CF9052001F0CA
:1009C000C4F94FF47A7001F0C0F904F0A5F80546B7
:1009D0002A460B46CEA1D0480CF078F9CE49CFA0DC
:1009E0000CF068F9CC480021018060E0CDA00CF04B
:1009F00061F9052001F0A9F90121D1A000F0FEFE66
:100A000055E0D2A00CF056F9052001F09EF9012125
:100A1000D4A000F0F3FE4AE0D5A00CF04BF9012180
:100A2000DBA000F0EBFE052001F08FF93FE0DBA03A
:100A30000CF040F9052001F088F90121DEA000F05A
:100A4000DDFE34E0DFA00CF035F9052001F07DF982
:100A500020219E4805F0D7FD29E0E1A00CF02AF9FD
:100A6000052001F072F92021984805F0CEFD1EE026
:100A70001DE01CE01BE01AE019E018E017E016E0AA
:100A800015E014E013E012E011E010E00FE00EE0DA
:100A90000DE00CE00BE00AE009E008E007E006E00A
:100AA00005E004E003E002E001E000E000BF00BF79
:100AB00070BDADF50C7D322501F012F9322001F048
:100AC00044F94FF4E13000F0F3FF4FF4E13001F06E
:100AD00059F800F0EDFB03F041FE03F01BFE04F0BB
:100AE00063F804F000F803F089FDC448082380226D
:100AF00000210090084603F046FD02F06AF829281C
:100B000002D1BFA00CF0D6F8002008F0F3FE694631
:100B100000200AF011F9C0A00CF0CCF8052001F07B
:100B200014F9C5A00CF0C6F8052001F00EF9C6A016
:100B30000CF0C0F80BF096FB0446082C2CD2DFE832
:100B400004F004080D12171C2126C7A00CF0B2F8FF
:100B500022E0CCA00CF0AEF800F060FAD2A00CF0CD
:100B6000A9F800F05BFADAA00CF0A4F800F056FA4D
:100B7000E1A00CF09FF800F051FAE8A00CF09AF810
:100B800000F04CFAEFA00CF095F800F047FAF7A04F
:100B90000CF090F800F042FA00BF0020FE490880F7
:100BA0004FF48061FD480CF049FCFDA00CF082F888
:100BB000052001F0CAF8FFF77FFB0121FCA000F03F
:100BC0001DFE40F6AC5001F0C0F8FFF7F5FB002029
:100BD000FB49087021E2FB48007800B11DE200F0FB
:100BE00085FAF7480078102815D003DC48B10128B1
:100BF0001BD104E0112819D0312816D100E000BF24
:100C000018E00120EE49087000F05CFB10B93120BB
:100C1000EB4908700EE000F0B9FE05462846FFF7E4
:100C2000E7FB0020E649087004E000BF0020E4492B
:100C3000087000BF00BF0BF083FBE34AE349E448C0
:100C40000BF0BEFB78B103F067FF064632460B4659
:100C5000E0A00CF02FF8DE480CF05AFB86B23146CB
:100C6000DB480BF0B1FF284603F03DFEDD4800886D
:100C7000B0F5FA6F04DD03F04FFF06460F46B3E10F
:100C8000C5E10000A1B0C9C1CBB8A1B1C3FCC1EEA0
:100C9000CAB6B1F0B3C9B9A60D0A0000C9C1CBB834
:100CA0002E6D703300000000A1B0BFAAC3C5A1B172
:100CB000C3FCC1EECAB6B1F0B3C9B9A60D0A0000B3
:100CC000BFAAC3C52E6D70330000000000100140A4
:100CD000A1B0B9D8C3C5A1B1C3FCC1EECAB6B1F0C9
:100CE000B3C9B9A60D0A0000B9D8C3C52E6D7033BB
:100CF00000000000A1B0B5B1C7B0CEC2B6C8A1B166
:100D0000C3FCC1EECAB6B1F0B3C9B9A60D0A000062
:100D100025322E32660D0A000B04002025730D0AC1
:100D200000000000A1B0B2A5B7C5D2F4C0D6A1B1F1
:100D3000C3FCC1EECAB6B1F0B3C9B9A60D0A000032
:100D4000B1BFD0A1BAA22E6D70330000A1B0CDCB3F
:100D5000CFC2A1B1C3FCC1EECAB6B1F0B3C9B9A646
:100D60000D0A0000CFC2CFDF2E6D703300000000EF
:100D7000A1B0C4E3BBE1C9CFCCECC2F0A1B1C3FCCC
:100D8000C1EECAB6B1F0B3C9B9A60D0A00000000A1
:100D9000B2BBBBE12E6D703300000000A1B0BDB24C
:100DA000B8F6D0A6BBB0A1B1C3FCC1EECAB6B1F0D3
:100DB000B3C9B9A60D0A0000D0A6BBB0312E6D7024
:100DC00033000000A1B0B4F2BFAABEAFB1A8A1B178
:100DD000C3FCC1EECAB6B1F0B3C9B9A60D0A000092
:100DE000A1B0B9D8B1D5BEAFB1A8A1B1C3FCC1EE15
:100DF000CAB6B1F0B3C9B9A60D0A000000000020C0
:100E00005344BFA8BDD3BFDAB3F5CABCBBAFCAA7B2
:100E1000B0DC0D0A00000000BBF9D3DAB5A5C6AC02
:100E2000BBFAB5C4D6C7C4DCD3EFD2F4BFD8D6C69C
:100E3000CFB5CDB30D0A0000B3F5CABCBBAF2E2EA3
:100E40002E2E2E2E0D0A00000D0A45535038323634
:100E500036D7BCB1B8C9E8D6C3544350B7FECEF1BB
:100E6000C6F7210D0A00000045535038323636C906
:100E7000E8D6C3544350B7FECEF1C6F7B3C9B9A6FE
:100E8000210D0A0045535038323636C8EDBCFEB845
:100E9000B4CEBBCAA7B0DC2120D7BCB1B8D6D8C667
:100EA000F4CFB5CDB30D0A0045535038323636C9AC
:100EB000E8D6C34150C4A3CABDCAA7B0DC2120D71D
:100EC000BCB1B8D6D8C6F4CFB5CDB30D0A0000007A
:100ED00045535038323636C9E8D6C34150B2CECA2F
:100EE000FDCAA7B0DC212CD7BCB1B8D6D8C6F4CF88
:100EF000B5CDB30D0A00000045535038323636B92F
:100F0000D8B1D5CDB8B4ABCAA7B0DC212CD7BCB111
:100F1000B8D6D8C6F4CFB5CDB30D0A004553503876
:100F2000323636BFAAC6F4B6E0C2B7C1ACBDD3CA2A
:100F3000A7B0DC212CD7BCB1B8D6D8C6F4CFB5CD7C
:100F4000B30D0A0045535038323636C9E8D6C3418E
:100F500050C4A3CABD4950CAA7B0DC212CD7BCB12C
:100F6000B8D6D8C6F4CFB5CDB30D0A004553503826
:100F7000323636BFAAC6F4C9E8C1A2B7FECEF1C662
:100F8000F7CAA7B0DC212CD7BCB1B8D6D8C6F4CFED
:100F9000B5CDB30D0A0000000E060020801400201D
:100FA000B3F5CABCBBAFCDEAB3C90D0A000000005F
:100FB000C6F4B6AFCFB5CDB32E6D703300000000D0
:100FC0000A040020FD050020050400200004002084
:100FD000800C0020B5B1C7B0CEC2B6C825322E32C3
:100FE000660D0A000E0400201348002101803246DD
:100FF0003B46AFF2E4210BF069FE10230E4A0021BC
:101000003C2003F06CFA00200C49088000BF0B481C
:101010000088401C0949088000BFDCE508480068DA
:1010200000F4E06007490843001D05490860BFF36C
:101030004F8F00BFFEE700000B0400200E040020CD
:101040000CED00E00000FA05704700BFFEE700BFAE
:10105000FEE700BFFEE700BFFEE77047704770473E
:101060001F48008820B11E480088401E1C49088087
:10107000704710B502F02BFF10BD10B5022005F02F
:101080009BF938B100F012FB022005F091F9022023
:1010900005F0A3F910BD10B506F009FF10BD10B59D
:1010A00008F00AF810BD10B50E48008840F4004062
:1010B0000C49088000214FF0804004F041FD0121DF
:1010C000880705F017F810BD10B50121064805F096
:1010D00000F818B10121044805F00CF810BD00001B
:1010E000100400200E0600200004004010B54FF44C
:1010F0000041884805F06DFAB0B907F088FB07F0A9
:10110000B9FB07F0EFFB07F05BFB07F041FB06F0D4
:101110002DFD00BF804800680528FBD107F0AAFB21
:1011200005F0D6F800BFFEE710BD00B587B001217D
:1011300048F2080005F083FC0121784805F087FAA1
:101140003820ADF8040003208DF8060018208DF833
:10115000070001A96F4805F0A9F94FF40070ADF838
:10116000040003208DF8060010208DF8070001A967
:10117000684805F09BF94FF48071664805F043FA22
:101180000021674805F07DFD0020ADF808004FF410
:101190008270ADF80A000020ADF80C000220ADF816
:1011A0000E000020ADF810004FF40070ADF81200F2
:1011B0002820ADF814000020ADF816000720ADF887
:1011C000180002A9564805F0B7FC0121544805F063
:1011D00058FD07B000BD1FB50121102005F022FC0D
:1011E0000220ADF8000004208DF8030003208DF8E4
:1011F000020069464B4805F059F90121022005F02B
:101200006BFA0220029000208DF80C000C208DF863
:101210000D0001208DF80E0002A805F067F80220ED
:1012200005F0B3F802213F4805F0EDF9022005F082
:10123000BFF8022005F0D1F807208DF80400002047
:101240008DF805008DF8060001208DF8070001A833
:1012500003F0D9FD1FBD08B50121052005F0E2FB13
:101260004FF48070ADF8000018208DF803000320C3
:101270008DF8020069462C4805F018F9072005F0A2
:101280000CFC01213C2005F0CDFB4FF4E070ADF8E3
:10129000000003208DF8020010208DF8030069463D
:1012A0001C4805F003F980211A4805F0ACF908BD87
:1012B00010B5FFF7D0FFFFF78EFFFFF736FF00F006
:1012C00035F810BD70B50024002500BF1DE000F00A
:1012D000D2FA322000F039FD00F00EFB28B900F000
:1012E00025F8322000F031FD0DE00A2000F02DFD40
:1012F00000F0C5FA28B900F019F8322000F025FDF9
:1013000001E0012503E0601CC4B2052CDFDB00BF57
:10131000284670BD000C0140B80B002000023000D0
:10132000003C0040001001400008014010B5402181
:10133000F74805F068F9642000F007FD4021F44803
:1013400005F063F9642000F000FD4021F04805F04D
:101350005AF9642000F0F9FC4FF48071EC4805F074
:1013600054F9642000F0F1FC4FF48071E84805F076
:101370004AF9642000F0E9FC10BD10B5062000F029
:1013800050FB3521172000F030FB052000F0DDFC7C
:10139000062000F046FB0321892000F026FB0520F3
:1013A00000F0D3FC4321CF2000F01FFB052000F00C
:1013B000CCFC0221CB2000F018FB1121084600F0E4
:1013C00014FBD4480078402810D100211E2000F0E2
:1013D0000CFB0F21192000F008FB18211B2000F046
:1013E00004FB2C211D2000F000FB0FE000211E203B
:1013F00000F0FBFA3F21192000F0F7FA48211B20EA
:1014000000F0F3FA1F211D2000F0EFFA052000F094
:101410009CFC0421CD2000F0E8FA4C21172000F0BC
:10142000E4FA012000F091FC0021B92000F0DDFA7F
:101430004F21CF2000F0D9FAFF216F2000F0D5FA1C
:1014400010BD10B50820B3490870FFF796FF0021C2
:10145000BD2000F0CAFA4821172000F0C6FA052086
:1014600000F073FC80213C2000F0BFFA07213E20F1
:1014700000F0BBFAFF21382000F0B7FA07213A202C
:1014800000F0B3FA0021402000F0AFFA082142201A
:1014900000F0ABFA0021442000F0A7FA0821462012
:1014A00000F0A3FA012000F050FC10BD10B5402060
:1014B00098490870FFF761FF0221BD2000F095FAFE
:1014C0004821172000F091FA0A2000F03EFC52213A
:1014D000852000F08AFA00218F2000F086FA002192
:1014E000812000F082FA0021832000F07EFAFF21A3
:1014F0008E2000F07AFAFF218D2000F076FA01208C
:1015000000F023FCFF21872000F06FFAFF218920E3
:1015100000F06BFA012000F018FC0021222000F0FE
:1015200064FA0021232000F060FAEF21202000F06F
:101530005CFA0721212000F058FA7721242000F0DE
:1015400054FA0321252000F050FABB21262000F098
:101550004CFA0121272000F048FA10BD70B5002593
:10156000062000F05EFA044608E0FF21012000F0AA
:101570003CFA6D1C062000F054FA044604F0080002
:101580000028F2D070BD10B500206349086001202A
:10159000624908706048006861490968884200D360
:1015A00010BDFFF7DBFF0021BA2000F01EFA482132
:1015B000172000F01AFA0121332000F016FA042156
:1015C000292000F012FA0121022000F00EFA5A211F
:1015D000852000F00AFA00BFE2E710B50446C4F126
:1015E0000F000007840E44F0C3018E2000F0FDF9C7
:1015F0007821872000F0F9F910BD38B5062000F0F9
:1016000010FA044613E044480068401C4249086050
:10161000012269464348006808F0D7F99DF8001098
:10162000012000F0E2F9062000F0FBF9044604F086
:10163000080028B938480068394909688842E2D961
:10164000354800683649096888422ED30121BC20FC
:1016500000F0CBF91021292000F0C7F900BFBA2013
:1016600000F0DFF900F020000028F8D000212B2046
:1016700000F0BBF90021BA2000F0B7F90021BC202E
:1016800000F0B3F90020254908700121082000F07E
:10169000ACF90021082000F0A8F90021332000F067
:1016A000A4F92048006808F085F938BD10B5002479
:1016B0002B2000F0B6F91C4908701648007808285D
:1016C00043D10021292000F090F90021022000F0F0
:1016D0008CF91548007800F0100048B3B22000F0F3
:1016E000A0F9212825D1BF2000F09BF9352820D171
:1016F000BA2000F096F90446002C05DD042C03DC2A
:1017000010200A49087017E011200849087013E0FA
:10171000000C0140FC050020F8050020FD0500201C
:10172000F405002004060020FE0500200A04002025
:10173000FFE711209849087000212B2000F055F98F
:1017400000211C2000F051F910BD292000F069F99A
:1017500092490870022000F064F991490870002154
:10176000292000F042F90021022000F03EF9BA20C1
:1017700000F057F900F02000F8B100212B2000F014
:1017800034F90021BA2000F030F90021BC2000F02B
:101790002CF90020834908700121082000F025F968
:1017A0000021082000F021F90021332000F01DF96C
:1017B0007D48006808F0FEF8C6E77C4800687C4970
:1017C000096888420CD30121BC2000F00EF91021D9
:1017D000292000F00AF97448006808F0EBF8B3E734
:1017E000FFF70BFF6D480178292000F0FEF86C48E8
:1017F0000178022000F0F9F800BFA5E770B50546B2
:101800000C4600221146284608F0C0F866490860D8
:1018100008460068401C30B90846006808F0CAF85D
:101820006148006870BD01205E4908705E4800682C
:1018300008F00AF9401E5E490860FFF737FE2046AF
:10184000FFF7CBFEFFF79FFE0020EBE770B500250A
:1018500000240BE0B22000F0E4F8212801D101259A
:1018600006E00A2000F071FA601CC4B20A2CF1DB19
:1018700000BF284670BD10B5FFF7E3FD10BD10B5E1
:101880004321352000F0B1F809211C2000F0ADF80B
:101890002021BD2000F0A9F80121082000F0A5F8C2
:1018A000012000F052FA0021082000F09EF80120EB
:1018B00000F04BFAFFF7CAFF08B9002010BDFF2166
:1018C000B22000F092F80621372000F08EF80621B1
:1018D000372000F08AF8052000F037FA0B211C2091
:1018E00000F083F81021292000F07FF80021BD20AE
:1018F00000F07BF80120E1E770B50126002440E00C
:10190000FFF7A4FF08B900263DE02146C12000F002
:101910006CF80021C32000F068F80421082000F0D2
:1019200064F8012000F011FA0021082000F05DF8B1
:10193000012000F00AFA002512E004EB44001D49E2
:1019400001EBC000405D00B90CE004EB4400194A13
:1019500002EBC000415D052000F047F8681CC5B2ED
:10196000182DEADB00BF2946B92000F03EF8FF2120
:10197000B22000F03AF80421372000F036F8601C5D
:10198000C4B2142CBCDB00BF304670BD10B5C520FE
:1019900000F047F810BD00000A040020FF050020F9
:1019A00000060020FD05002004060020F8050020A8
:1019B000F40500201404002010B5044600BF0221E5
:1019C000264805F0E2F90028F9D02146234805F021
:1019D00089F900BF0121214805F0D7F90028F9D085
:1019E0001E4805F081F9C0B210BD70B505460C4621
:1019F0004FF480711A4804F008FE4FF40071184843
:101A000004F003FE0420FFF7D7FF2846FFF7D4FFBA
:101A10002046FFF7D1FF4FF48071114804F0F3FD29
:101A200070BD70B504464FF480710D4804F0EDFDB3
:101A30004FF400710A4804F0E8FD0520FFF7BCFFF1
:101A40002046FFF7B9FF0020FFF7B6FF05464FF429
:101A50008071034804F0D7FD284670BD003C00406B
:101A6000000C0140014600BF704700BF394A128890
:101A700002F04002002AF9D0C2B2364B1B1D1A8078
:101A80007047014600BF704708B54FF4E06003F0AF
:101A9000B5F925208DF8000003208DF801008DF8A0
:101AA000020001208DF80300684603F0ACF908BD80
:101AB00010B586B00446012144F2040004F0B2FFE0
:101AC000244803F009FA4FF40070ADF81400032025
:101AD0008DF8160018208DF8170005A91E4804F08F
:101AE000E5FC4FF48060ADF8140004208DF8170079
:101AF00005A9194804F0DAFC01940020ADF80800AB
:101B0000ADF80A00ADF80C00ADF810000C20ADF8EF
:101B10000E0001A90F4803F022FA012240F22551DC
:101B20000C4803F0B4FA01210A4803F0A4FAFFF7C5
:101B3000ABFF06B010BD10B540F22551054803F0CB
:101B40008BFB28B1034803F007FB0249091D0880FD
:101B500010BD0000003801400008014008B54FF4F6
:101B6000E06003F04BF926208DF8000002208DF88C
:101B700001008DF8020001208DF80300684603F093
:101B800042F908BD10B586B004460121042004F0D6
:101B900049FF0121480404F052FF4A4803F09CF930
:101BA0000420ADF8140003208DF8160018208DF8DD
:101BB000170005A9444804F079FC0820ADF814008A
:101BC00004208DF8170005A93F4804F06FFC01942C
:101BD0000020ADF80800ADF80A00ADF80C00ADF833
:101BE00010000C20ADF80E0001A9364803F0B7F93B
:101BF0000121344803F03FFA01228021314803F0EB
:101C00006BFA4FF48063314A2E49091D304800F0C9
:101C1000C1F8012240F225512A4803F038FA41F672
:101C20001F41632000F0FEF800202A490880FFF7DA
:101C300095FF06B010BD10B52748007860B921485F
:101C4000001D00882549234A1288885421480088AD
:101C5000401C2049088018E01A48001D0088C1B2C5
:101C60001E481C4A1288815400214FF0804004F025
:101C7000FBF91848008818B90121880703F060FFB4
:101C800014480088401C1349088010BD0FB438B5B3
:101C900005A800900D48009A04990AF0F9FF002069
:101CA00000900A480BF034FB84B22146084800F04B
:101CB00096F800BF0648001D00680028FAD138BC1D
:101CC0005DF814FB0044004000080140801800202B
:101CD000800002400E060020100600208014002024
:101CE00030B500BF26480068264AB0FBF2F1B1F1DA
:101CF000807F01D301201DE021F07F40401E4FF086
:101D0000E022506150170F22002807DA13071D0E3A
:101D10001D4B00F00F04241F1D5503E013071C0E7C
:101D20001A4B1C5400BF00204FF0E02290610720A6
:101D3000106100200028D5D130BD1549088000BFB2
:101D4000134909880029FBD1704700B5024603E01A
:101D50004FF47A70FFF7F1FF101EA2F101018AB271
:101D6000F6D100BD00B5034603E04FF47A70FFF7EB
:101D7000ECFF181EA3F101018BB2F6D100BD0000EB
:101D8000BC09002040420F0018ED00E000E400E034
:101D900010040020F0B58BB007460C4615461E46D1
:101DA0000121084604F031FE384605F025F800947C
:101DB0000195102002900396002004908020059049
:101DC00000200690079008904FF480500990002062
:101DD0000A906946384605F0B1F80BB0F0BD70B511
:101DE00004460D460021204605F0D3F8294620463A
:101DF00005F0E4F80121204605F0CBF870BD08B5E8
:101E00004FF4E06002F0FAFF1C208DF80000012082
:101E10008DF801008DF802008DF80300684602F08D
:101E2000F2FF08BD3EB505460C460121084604F008
:101E300006FE4FF0804003F053FA4FF0804003F06D
:101E4000B3FEADF80450ADF800400020ADF8060038
:101E5000ADF8020069464FF0804003F015FB012108
:101E6000880704F033F900214FF0804003F068FF49
:101E700001221146900703F07EFE00214FF08040C2
:101E800003F05EFEFFF7BBFF3EBD000008B500207B
:101E900004F05FF9002004F05FF904F02FF900214D
:101EA0004FF4806004F0B1FD4FF4F850ADF800003D
:101EB00004208DF803006946F94804F0F7FA04207D
:101EC000ADF800006946F74804F0F0FA08BD08B51F
:101ED0000121B02004F0A6FD4FF4F850ADF8000049
:101EE00003208DF8020018208DF803006946EC48A5
:101EF00004F0DCFA0420ADF800006946E94804F07B
:101F0000D5FA0121880204F080FD0121022004F0AD
:101F10007CFD08BD30B58BB005460C46E24805F0A7
:101F200067F80021E14805F034F8E1480090019598
:101F300010200290A00803900020049080200590BB
:101F40008000069080000790002008904FF4005019
:101F5000099000200A906946D44804F0EFFF01215F
:101F6000D24805F016F80BB030BD30B58BB0054641
:101F70000C46CD4805F03CF80021CC4805F009F8A6
:101F8000CB480090019500200290A008039000200B
:101F9000049080200590800006908000079000202B
:101FA00008904FF40050099000200A906946BF48FD
:101FB00004F0C4FF0121BD4804F0EBFF0BB030BDBD
:101FC00010B5BC4805F000F810BD10B5FFF75EFF76
:101FD00010BD01462A2019B1012901D0022902D1E0
:101FE000B54A116000E0262070472DE9F041064611
:101FF0002A27AF488038456B02E0AD488038456BF2
:1020000005F045000028F8D005F0040030B10327A2
:10201000042004F042F93846BDE8F08105F00100E3
:1020200028B10127012004F038F93846F4E704F01C
:10203000CDF8B04202D010273846EDE740F2FF500D
:1020400004F02BF9002004F0C5F804469B4820401A
:1020500008B93846E0E704F0004008B11C20DBE78F
:1020600004F0804008B10920D6E704F0005008B120
:102070000A20D1E704F0805008B10B20CCE704F02F
:10208000006008B10C20C7E704F0806008B10D20A3
:10209000C2E704F0807008B10E20BDE704F4000030
:1020A00008B10F20B8E704F4800008B11020B3E7AE
:1020B00004F4001008B11120AEE704F4801008B158
:1020C0001220A9E704F4002008B11320A4E704F4C7
:1020D000802008B114209FE704F4003008B11520D7
:1020E0009AE704F4803008B1162095E704F4004024
:1020F00008B1172090E704F4804008B118208BE75E
:1021000004F4005008B1192086E704F0080008B173
:102110001A2081E738467FE72DE9FC4107460D4646
:1021200000262A24002000900190082064490860BD
:1021300010204860402088600020C8604FF4806014
:102140000861084604F028F81020FFF74EFF044607
:102150002A2C02D02046BDE8FC815A4800880004A1
:102160005749086037204860402088600020C860D8
:102170004FF480600861084604F00EF83720FFF73E
:1021800034FF04462A2C01D02046E4E74E484F494C
:10219000086008204860302088600220C860002065
:1021A000086101204861084604F01FF800204449F6
:1021B000086033204860402088600020C8604FF4E9
:1021C00080600861084603F0E7FF3320FFF70DFF4A
:1021D00004462A2C01D02046BDE709E04FF4001048
:1021E00004F051F820B104F022F84DF82600761CD6
:1021F0002F488038406B40F22A6108400028EDD01B
:10220000082004F040F828B1082004F046F804241F
:102210002046A0E7022004F036F828B1022004F09E
:102220003CF80224204696E7202004F02CF828B140
:10223000202004F032F8062420468CE74FF400708A
:1022400004F021F830B14FF4007004F026F80724B0
:10225000204680E740F2FF5004F01FF80098000687
:10226000009901F47F4140EA0120009901F47F01C7
:1022700040EA1120009940EA116068600198000668
:10228000019901F47F4140EA0120019901F47F01A5
:1022900040EA1120019940EA1160286020465AE77F
:1022A000001001400014014000F0001044040240FE
:1022B00080800140002000101C06002008E0FFFD87
:1022C000081D002018060020FFFF0F001C1D002025
:1022D0007CB505462A2400200090019003F07AFF87
:1022E00000F0007010B10E2420467CBDFE49098824
:1022F00088B26946FFF710FF04462A2C01D0204619
:10230000F3E7012D38D1019800F48020002830D067
:10231000F54800880004F5490860372048604020EF
:1023200088600020C860A8020861084603F034FFF6
:102330003720FFF75AFE04462A2C01D02046D4E766
:102340000220EA490860062048604020886000209A
:10235000C8604FF480600861084603F01DFF062046
:10236000FFF743FE04462A2C01D02046BDE7204655
:10237000BBE725242046B8E7019800F4803078B305
:10238000D94800880004D9490860372048604020B7
:1023900088600020C8604FF480600861084603F040
:1023A000FBFE3720FFF721FE04462A2C01D02046F1
:1023B0009BE70020CD4908600620486040208860E7
:1023C0000020C8604FF480600861084603F0E4FE16
:1023D0000620FFF70AFE04462A2C02D0204684E796
:1023E00001E0204681E7252420467EE770B50446BB
:1023F0002A25BF480068032802D12725284670BD3A
:10240000BB48006838B1BA480068012803D0B84812
:102410000068022830D1B4F5805F02D12725284614
:10242000EDE7B4F5006F15D10120FFF751FF054628
:102430002A2D21D10120AF4908750020086048608D
:1024400088604FF40060C86000200861084603F00F
:1024500063FE11E00020FFF73BFF05462A2D0BD15C
:102460000120A44908750020086048608860C860A1
:102470000861084603F050FE2846C0E770B50446E0
:102480002A259A48046007209849486040208860BF
:102490000020C8604FF480600861084603F07CFEAD
:1024A0000720FFF7A2FD0546284670BD30B501465E
:1024B0002A2000228E4B1B7881F84E308A4B1B88D5
:1024C000A1F84C308C4B1B681A0E93090B70C2F3A9
:1024D00083034B7002F003038B70874B1B68C3F3BD
:1024E0000742CA70844B1B88C3F307220A71824BD0
:1024F0001A784A715B681A0E1301CB807E4B5B68B9
:10250000C3F30742CB8843EA1213CB8002F00F03D8
:102510000B72794B9B88C3F30722D3094B72C2F32A
:1025200080138B72C2F34013CB72C2F300130B7390
:1025300000234B736E4B1B681BB16D4B1B68012B4B
:102540003CD193071B0D0B616B4B1A790B6943EA66
:1025500082030B61684B9B681A0E0B6943EA921366
:102560000B61C2F3C2030B7502F007034B75624B9C
:102570009B68C3F3074253098B75C2F38203CB7583
:1025800093075B0F0B765C4B1B89C3F307220B7E13
:1025900043EAD2130B760B695B1C4B640C7E4B6CCD
:1025A000A41C0125A5406B434B640C7A0123A34076
:1025B0008B64D1E9113463434B6421E04C4B1B68BD
:1025C000022B1DD14C4B1A7993069B0A0B614A4B87
:1025D0009B681A0E0B6943EA02230B61464B9B680A
:1025E000C3F307420B6913430B61434B1B89C3F3CE
:1025F00007220B695B1CDB044B644FF400738B6494
:10260000C2F3801301F8193F93065B0E4B703A4BEF
:102610001A7A4B7843EAD2134B7002F07F038B7027
:10262000354BDB681A0ED309CB70C2F341130B7123
:10263000C2F382034B7193071B0F8B712E4BDB6828
:10264000C3F307428B7943EA92138B71C2F34013B1
:10265000CB7100230B7202F001034B72264B9B8956
:10266000C3F30722D3098B72C2F38013CB72C2F378
:1026700040130B73C2F300134B73C2F381038B73CC
:1026800002F00303CB731C4B1A7B53080B7401231A
:102690004B741A4B1B681A0ECA741939174B1B68F6
:1026A000C3F307421402CC85144B1B88C3F30722E3
:1026B000CB8D1343CB85114B1A7814060C635B68E2
:1026C0001A0E0B6B43EA02440C630C4B5B68C3F3BA
:1026D00007420B6B43EA02240C63084B9B88C3F34D
:1026E00007220B6B13430BE018060020081D002087
:1026F00014060020F01C0020801C0020901C0020EC
:102700000B63FE4B1A7934235A54FC4B9B681A0E08
:1027100035235A54F94B9B68C3F3074214068C6364
:10272000F64B1B89C3F307228B6B43EA02448C638D
:10273000F24B1A7A8B6B43EA02248C63EF4BDB6813
:102740001A0E8B6B13438B63EC4BDB68C3F30742AE
:102750003C235B5C43EA12143C235C5413071C0DBE
:10276000CC87E64B9B89C3F30722CB8F1343CB87E0
:10277000E24B1A7B540840235C54012441235C54EF
:1027800030BD70B52A25DE48446B01E0DC48446B5F
:1027900004F045000028F9D004F0040028B1032516
:1027A000042003F07AFD284670BD04F0010028B132
:1027B0000125012003F071FD2846F5E740F2FF50A6
:1027C00003F06BFD2846EFE72DE9F04106460F4682
:1027D0004FF02A08CA48456B01E0C948456B05F02F
:1027E00045000028F9D005F0040038B14FF0030887
:1027F000042003F052FD4046BDE8F08105F00100E1
:1028000030B14FF00108012003F047FD4046F3E7E7
:1028100003F0DCFCB04203D04FF010084046EBE779
:1028200040F2FF5003F039FD002003F0D3FC0446D2
:1028300004F4604018B9200C38804046DCE704F40A
:10284000005008B11320D7E704F4804008B11020ED
:10285000D2E704F4004008B10F20CDE74046CBE7B3
:1028600038B52A240120009003F081FC10B92524FA
:10287000204638BDA3480068042829D00020A2497A
:10288000086002204860C02088600020C8604FF4C3
:1028900080600861084603F07FFCFFF772FF044682
:1028A0002A2C01D02046E4E7002003F093FC934952
:1028B0000860042003F08EFC90494860082003F073
:1028C00089FC8E4988600C2003F084FC8B49C86029
:1028D0008C48006858B18B480068012807D08948A7
:1028E0000068062803D087480068022817D1002016
:1028F0008549086003204860402088600020C86047
:102900004FF480600861084603F046FC69460320E6
:10291000FFF75AFF04462A2C01D02046A9E7794840
:10292000006804282FD0BDF8000078490860BDF881
:10293000000000047449086009204860C0208860D5
:102940000020C8604FF480600861084603F024FC52
:10295000FFF717FF04462A2C01D0204689E7002004
:1029600003F038FC6A490860042003F033FC68492E
:102970004860082003F02EFC654988600C2003F0B5
:1029800029FC6349C8602A24204672E770B52A25CD
:102990005B48446B01E05A48446B04F04500002852
:1029A000F9D004F0040028B10325042003F075FCDD
:1029B000284670BD40F2FF5003F06FFC2846F8E750
:1029C00070B52A264FF480354D48446B02E06D1EE9
:1029D0004B48446B04F0450008B9002DF7D115B100
:1029E00004F0040028B10326042003F056FC30460E
:1029F00070BD04F0400028B12A26402003F04DFCB1
:102A00003046F5E73046F3E770B52A254FF48034B9
:102A100000E0641E24B1802003F035FC0028F8D0CB
:102A200014B90325284670BD40F2FF5003F035FC71
:102A30002846F8E72DE9F0412A2400260025002742
:102A40004FF00008B2203349087500200860486044
:102A50008860C8600861084603F05EFB032003F04D
:102A60007BFB012003F075FB0020274908604860CC
:102A70008860C8604FF480600861084603F08CFBF2
:102A8000FFF7C2FF04462A2C02D02046BDE8F081A1
:102A90004FF4D5701C4908600820486040208860C9
:102AA0000020C8604FF480600861084603F074FBA2
:102AB000FFF786FF04462A2C05D101201149086042
:102AC0004FF0804812E000200F490860372048602E
:102AD000402088600020C8604FF48060086108468C
:102AE00003F05AFB3720FFF780FA0446002006491E
:102AF000086037204860402088600DE0901C00206E
:102B00000080014014060020081D00201806002047
:102B1000801C0020F01C00200020C8604FF4806062
:102B20000861084603F038FB3720FFF75EFA0446D9
:102B30002A2C4CD138E00020FA4908603720486040
:102B4000402088600020C8604FF48060086108461B
:102B500003F022FB3720FFF748FA04462A2C01D065
:102B6000204693E7F04848EA0000EE490860292033
:102B70004860402088600020C8604FF48060086191
:102B8000084603F009FBFFF701FF04462A2C01D099
:102B900020467BE7002003F01DFB0646012080EA6B
:102BA000D67080F001076D1C1FB94FF6FF7085428B
:102BB000C1D34FF6FF70854202D31B24204665E740
:102BC00006F08040061E02D00220D8490860204648
:102BD0005CE710B52A24FFF77AF903F08FFAFFF7C4
:102BE00029FF04462A2C01D0204610BDFFF738FEED
:102BF00004462A2C01D02046F7E70120CC4908756D
:102C00000020086048608860C8600861084603F0DA
:102C100083FA2A2C03D1C748FFF748FC04462A2C24
:102C200006D1C449B1F84C100804FFF727FC04464C
:102C30002A2C04D14FF40060FFF7D8FB04462A2C5D
:102C400003D10020FFF7C5F904462046CDE770B553
:102C500004462A2514B92625284670BDB6480088A2
:102C60000004B04908600D204860402088600020C2
:102C7000C8604FF480600861084603F08DFA0D20AB
:102C8000FFF7B3F905462A2D01D02846E5E70020D5
:102C900003F0A0FA20602846DFE708B50120009085
:102CA000C102A64803F095FC08B1002000909DF8F1
:102CB000000008BD08B500200090FFF7EEFF0128D6
:102CC0000AD16846FFF7C3FF2A2801D0FF2008BDBC
:102CD0000098C0F34320FAE7FF20F8E710B504247A
:102CE000FFF7E8FF0446042C01D1002010BDFF2CA3
:102CF00001D10220FAE70120F8E710B52A240020CC
:102D000003F02AFA204610BD0146002002E04910D7
:102D1000421CD0B20129FAD170472DE9F04707468D
:102D20000D4614464FF02A084FF000092E464FF08A
:102D3000000A25B94FF026084046BDE8F0872A2052
:102D40007F49087000207F4908607F4908607F48FC
:102D50007F490860002048608860C8600861486159
:102D6000084603F042FA002003F013FA002003F0B3
:102D700031FA00F0007018B14FF00E084046DCE761
:102D80006A480068022801D104027F0A002C21DD74
:102D9000B4F5006F1EDC601E2040D8B92046FFF756
:102DA000B3FF82465F48046010205E4948604020BF
:102DB00088600020C8604FF480600861084603F016
:102DC000EBF91020FFF711F98046B8F12A0F05D072
:102DD0004046B2E74FF026084046AEE75B485C4904
:102DE0000860084644604FEA0A1088600220C86004
:102DF0000020086101204861084603F0F6F95248B6
:102E00000460002053490860534805604548076046
:102E1000112044494860402088600020C8604FF479
:102E200080600861084603F0B7F91120FFF7DDF86C
:102E30008046B8F12A0F01D040467EE74748006837
:102E4000022857D111E04FF4004003F01CFA60B1A2
:102E50004FF0000905E003F0EAF946F8290009F10E
:102E60000109B9F1080FF6D320363D48406B40F216
:102E70002A6108400028E6D0082003F004FA30B1A7
:102E8000082003F00AFA4FF00408404655E70220F4
:102E900003F0F9F930B1022003F0FFF94FF0020816
:102EA00040464AE7202003F0EEF930B1202003F03D
:102EB000F4F94FF0060840463FE74FF4007003F086
:102EC000E2F938B14FF4007003F0E7F94FF007086A
:102ED000404632E703E003F0AAF93060361D4FF4B4
:102EE000001003F0D0F90028F5D140F2FF5003F0B4
:102EF000D4F958E019480068012833D1012148F27B
:102F00002A3003F039F900BF0E48006818B90C48A0
:102F100000782A28F8D00A4800782A2843D00848A0
:102F200000780AE7081D0020000010801406002029
:102F3000F01C0020A01C002018060020001C0140EE
:102F4000300600203406002020060020FFFF0F007E
:102F50001C1D0020240600202C0600201C0600203A
:102F600000800140F8480068E8B9012140F22A30A9
:102F700003F002F9012003F00CF921462846FEF780
:102F8000F4FF00BFFFF71CF830B9F048006818B92B
:102F9000EF4800782A28F5D0ED4800782A2802D09A
:102FA000EB480078C9E64046C7E62DE9F05F814668
:102FB0000E4614461D464FF02A084FF0000A3746C9
:102FC0004FF0000B26B94FF026084046BDE8F09FB1
:102FD0002A20DF4908700020DC490860DD490860CC
:102FE000DD48DE490860002048608860C8600861EC
:102FF0004861084603F0F9F8002003F0CAF8002001
:1030000003F0E8F800F0007018B14FF00E084046E9
:10301000DCE7D3480068022802D104024FEA5929AC
:10302000002C21DDB4F5006F1EDC601E2040D8B9F5
:103030002046FFF769FE8346CA4804601020C9494C
:103040004860402088600020C8604FF480600861BC
:10305000084603F0A1F81020FEF7C7FF8046B8F13C
:103060002A0F05D04046B1E74FF026084046ADE7AD
:10307000012D70D905FB04F0B0F1007F03D34FF0B0
:1030800026084046A2E705FB04F0B249086001208B
:10309000B5490860B5480660AF48B049086005FB0F
:1030A00004F048604FEA0B1088600220C8600020DE
:1030B000086101204861084603F097F8A948C0F864
:1030C00000901220A7494860402088600020C86016
:1030D0004FF480600861084603F05EF81220FEF7A6
:1030E00084FF8046B8F12A0F01D040466EE796482B
:1030F000006802287BD111E04FF4004003F0C3F8D0
:1031000060B14FF0000A05E003F091F847F82A009B
:103110000AF1010ABAF1080FF6D320379448406B40
:1031200040F22A3108400028E6D0082003F0ABF82E
:1031300030B1082003F0B1F84FF00408404645E7ED
:10314000022003F0A0F838B1022003F0A6F84FF0F7
:10315000020840463AE78AE0202003F094F830B1B4
:10316000202003F09AF84FF0060840462EE74FF46F
:10317000007003F088F838B14FF4007003F08DF858
:103180004FF00708404621E703E003F050F83860AD
:103190003F1D4FF4001003F076F80028F5D14FF4EE
:1031A000807003F070F818B36D48006838B16C484F
:1031B0000068022803D06A480068012818D100205E
:1031C000684908600C204860402088600020C86082
:1031D0004FF480600861084602F0DEFF0C20FEF725
:1031E00004FF8046B8F12A0F02D04046EEE604E024
:1031F00040F2FF5003F051F839E0534800680128CD
:1032000013D1012148F22A3002F0B6FF00BF4F4827
:10321000006818B94E4800782A28F8D04C48007841
:103220002A2824D04A480078D0E647480068F0B9F8
:10323000012140F22A3002F09FFF012002F0A9FF95
:1032400005FB04F13046FEF790FE00BFFEF7B8FE26
:1032500030B93E48006818B93D4800782A28F5D0B2
:103260003B4800782A2802D039480078AEE640462C
:10327000ACE67CB504462A250020019000903D482C
:1032800000880004374908600D20486040208860AD
:103290000020C8604FF480600861084602F07CFF9F
:1032A0003348406B009002E03148406B009000983A
:1032B00000F045000028F7D0009800F0040028B185
:1032C0000325042002F0E9FF28467CBD009800F0A9
:1032D000010028B10125012002F0DFFF2846F4E7B4
:1032E00002F074FF009000980D2802D010252846A7
:1032F000EBE740F2FF5002F0D0FF002002F06AFF3F
:1033000001900198C0F3432020701B4901980840A8
:1033100008B92846D9E7019800F0004008B11C2000
:10332000D3E7019800F0804008B10920CDE701986B
:1033300000F0005008B10A20C7E7019800F0805063
:10334000E0B10B20C1E700001C060020340600207D
:103350003006002020060020FFFF0F001C1D00206B
:1033600014060020081D0020240600202C06002042
:10337000008001401806002008E0FFFD019800F0E1
:10338000006008B10C20A0E7019800F0806008B14F
:103390000D209AE7019800F0807008B10E2094E7A4
:1033A000019800F4000008B10F208EE7019800F4A6
:1033B000800008B1102088E7019800F4001008B1DF
:1033C000112082E7019800F4801008B112207CE7F8
:1033D000019800F4002008B1132076E7019800F46A
:1033E000802008B1142070E7019800F4003008B183
:1033F00015206AE7019800F4803008B1162064E7D0
:10340000019800F4004008B117205EE7019800F42D
:10341000804008B1182058E7019800F4005008B126
:10342000192052E7019800F0080008B11A204CE773
:1034300028464AE72DE9FF5F82460F4614462A25B3
:103440000020039002908346002601908046009061
:10345000B94627B92625284604B0BDE8F09F2A20A2
:10346000FE4908700020FE490860FE490860FE48D9
:10347000FE490860002048608860C86008614861B3
:10348000084602F0B2FE002002F083FE002002F0A7
:10349000A1FE00F0007010B10E252846DCE7F448CC
:1034A0000068022802D104024FEA5A2A002C20DDCB
:1034B000B4F5006F1DDC601E2040D0B92046FFF738
:1034C00023FC0390EB4804601020EA494860402048
:1034D00088600020C8604FF480600861084602F0F0
:1034E0005BFE1020FEF781FD05462A2D04D02846FC
:1034F000B2E726252846AFE7DF4800880004DD490B
:1035000008600D204860402088600020C8604FF4AB
:1035100080600861084602F03FFE0D20FEF765FD61
:1035200005462A2D01D0284696E7002002F052FEDB
:103530000190DFF834B31EE0ABF1010BCE480088F8
:103540000004CC4908600D204860402088600020BD
:10355000C8604FF480600861084602F01DFE0D202F
:10356000FEF743FD05462A2D01D0284674E70020CA
:1035700002F030FE0190019800F4807010B9BBF1A8
:10358000000FD9D1BBF1000F01D1292064E7B94860
:10359000C0F800A01820B74948604020886000208B
:1035A000C8604FF480600861084602F0F5FD1820FD
:1035B000FEF71BFD05462A2D01D028464CE7A948F9
:1035C00004600020AD490860AD480760A648A749DF
:1035D0000860084644600398000188600020C860C5
:1035E000086101204861084602F0FFFDA548006817
:1035F00002286BD139E04FF4804002F044FEA0B3C2
:1036000098480068801B202820D296480078801BAC
:1036100000F0030020B993480068801B800804E094
:1036200090480068801B8008401C00904FF0000804
:1036300008E0D9F8000002F0FEFD08F1010809F1E8
:103640000409361D009880450FD2F2E74FF00008BC
:1036500005E059F8280002F0EEFD08F10108B8F184
:10366000080FF6D309F1200920368748406B40F255
:103670001A6108400028BED0082002F004FE28B1DC
:10368000082002F00AFE04252846E5E6022002F0A2
:10369000FAFD28B1022002F000FE02252846DBE6F2
:1036A000102002F0F0FD28B1102002F0F6FD0525F3
:1036B0002846D1E64FF4007002F0E5FDF0B34FF478
:1036C000007002F0EAFD07252846C5E66D4800684F
:1036D000012813D1012144F21A3002F04DFD00BF40
:1036E0005F48006818B95D4800782A28F8D05B4820
:1036F00000782A2825D059480078ADE6614800684E
:10370000E0B9012140F21A3002F036FD2146384678
:10371000FEF700FC012002F03CFD00BFFEF750FC6C
:1037200030B94F48006818B94C4800782A28F5D0BD
:103730004A4800782A2804D0484800E001E0007890
:103740008AE640F2FF5002F0A8FD02A8FFF791FDC3
:10375000054603E002A8FFF78CFD05462A2D07D198
:103760009DF808000728F5D09DF808000628F1D03C
:10377000284671E62DE9FE4F81468A4614461E46CC
:103780002A254FF0000B0020029000270190C84628
:103790000090B9F1000F03D126252846BDE8FE8F21
:1037A0002A202E49087000202D4908602D49086004
:1037B0002D482E490860002048608860C860086174
:1037C0004861084602F011FD002002F0E2FC0020F2
:1037D00002F000FD00F0007010B10E252846DDE774
:1037E00023480068022802D104024FEA5A2A002C1A
:1037F00020DDB4F5006F1DDC601E2040D0B92046EE
:10380000FFF782FA83461B4804601020194948607C
:10381000402088600020C8604FF48060086108463E
:1038200002F0BAFC1020FEF7E0FB05462A2D04D07A
:103830002846B3E726252846B0E70F48008800044D
:103840000C4908600D204860402088600020C86056
:103850004FF480600861084618E000003006002040
:103860003406002020060020FFFF0F001C1D002052
:1038700014060020081D0020180600202406002041
:10388000280600201C0600200080014002F084FC75
:103890000D20FEF7AAFB05462A2D01D028467DE71C
:1038A000012E7AD906FB04F0B0F1007F02D3262561
:1038B000284673E7FE48006838B1FD4800680128D3
:1038C00003D0FB48006802282FD1FA480088000482
:1038D000F949086037204860402088600020C860AF
:1038E0004FF480600861084602F056FC3720FEF76E
:1038F0007CFB05462A2D01D028464FE7EE4806609E
:103900001720ED494860402088600020C8604FF4CF
:1039100080600861084602F03FFC1720FEF765FB57
:1039200005462A2D01D0284638E7E348C0F800A014
:103930001920E1494860402088600020C8604FF4A9
:1039400080600861084602F027FC1920FEF74DFB55
:1039500005462A2D01D0284620E706FB04F0D7496A
:1039600008600120D6490860D648C0F80090D648C3
:10397000D649086006FB04F048604FEA0B108860E7
:103980000020C860086101204861084602F02DFC53
:10399000CF480068022870D13EE0D1E04FF480406B
:1039A00002F071FCC0B3C5480068C01B202811D3C9
:1039B0000020009007E0009958F8210002F03BFC3D
:1039C0000098401C009000980828F4D308F12008C3
:1039D000203721E0B9480078C01B00F0030020B96F
:1039E000B6480068C01B800804E0B4480068C01BEB
:1039F0008008401C01900020009009E0D8F80000E9
:103A000002F019FC0098401C009008F104083F1DCA
:103A1000DDE900108142F1D3AE48406B40F21A312B
:103A200008400028BAD0082002F02DFC28B1082058
:103A300002F033FC04252846B0E6022002F023FC05
:103A400028B1022002F029FC02252846A6E6102013
:103A500002F019FC28B1102002F01FFC05252846B1
:103A60009CE64FF4007002F00EFC38B14FF4007089
:103A700002F013FC0725284690E627E04FF48070FB
:103A800002F001FC00285BD08948006838B1884802
:103A90000068012803D086480068022850D1002021
:103AA000854908600C204860402088600020C8607C
:103AB0004FF480600861084602F06EFB0C20FEF7B0
:103AC00094FA05462A2D3BD0284667E680480068D0
:103AD000012813D1012144F21A3002F04DFB00BF3E
:103AE0007D48006818B97D4800782A28F8D07B48BE
:103AF00000782A2824D0794800784FE67448006876
:103B0000F0B9012140F21A3002F036FB012002F038
:103B100040FB06FB04F14846FEF7FCF900BFFEF748
:103B20004FFA30B96C48006818B96C4800782A28F8
:103B3000F5D06A4800782A2802D0684800782DE637
:103B400040F2FF5002F0A9FB0020009002E0009834
:103B5000401C00904FF6FF7100988842F7D302A8EE
:103B6000FFF787FB054603E002A8FFF782FB054647
:103B70002A2D07D19DF808000728F5D09DF80800E8
:103B80000628F1D0284609E65248406B00F4405020
:103B900008B1012070470020FCE710B52A2400205E
:103BA000454908600C204860402088600020C860BB
:103BB0004FF480600861084602F0EEFA0C20FEF730
:103BC00014FA0446204610BD2DE9FC4105460E4678
:103BD0002A240027002001900090414840682021BD
:103BE00001EA105018B925242046BDE8FC81394867
:103BF0004068C0B2801C3B49B1FBF0F0019000204E
:103C000002F0E8FA00F0007010B10E242046ECE754
:103C100027480068022801D16D0A760A2448006806
:103C200038B123480068012803D0214800680228E1
:103C30002DD12148056020201F4948604020886020
:103C40000020C8604FF480600861084602F0A4FAC2
:103C50002020FEF7CAF904462A2C01D02046C4E7EA
:103C600015480660212014494860402088600020E3
:103C7000C8604FF480600861084602F08DFA212088
:103C8000FEF7B3F904462A2C01D02046ADE7002008
:103C90000949086026204860402088600020C860EC
:103CA0004FF480600861084602F076FA26201BE097
:103CB0001406002018060020081D00202006002001
:103CC0002406002028060020FFFF0F001C1D0020F6
:103CD0001C06002000800140340600203006002031
:103CE000801C0020C0D40100FEF77FF904462A2C76
:103CF00001D0204679E7002700E07F1C0198874229
:103D0000FBD36846FFF7B5FA044603E06846FFF7C1
:103D1000B0FA04462A2C07D19DF800000728F5D0F8
:103D20009DF800000628F1D020465EE770B50446F5
:103D30002A260025002002F04DFA00F0007010B194
:103D40000E26304670BD4020EB49086010204860C8
:103D5000402088600020C8604FF4806008610846F9
:103D600002F01AFA1020FEF740F906462A2E01D07A
:103D70003046E7E7E14800880004DF490860372063
:103D80004860402088600020C8604FF4806008616F
:103D9000084602F001FA3720FEF727F906462A2ED8
:103DA00001D03046CEE7D648D6490860402048606A
:103DB000602088600220C8600020086101204861FE
:103DC000084602F012FA0020CB4908600D20486036
:103DD000402088600020C8604FF480600861084679
:103DE00002F0DAF90D20FEF700F906462A2E01D07E
:103DF0003046A7E70EE04FF4004002F044FA48B125
:103E0000002504E002F013FA44F825006D1C082D8B
:103E1000F8D32034BC48406B40F22A6108400028A7
:103E2000E9D0082002F02FFA28B1082002F035FA74
:103E30000426304686E7022002F025FA28B1022047
:103E400002F02BFA022630467CE7202002F01BFA13
:103E500028B1202002F021FA0626304672E74FF4FE
:103E6000007002F010FA30B14FF4007002F015FA51
:103E70000726304666E703E002F0D9F92060241DEA
:103E80004FF4001002F0FFF90028F5D140F2FF5086
:103E900002F003FA403C002515E014F82500000666
:103EA00034F8251001F47F4140EA012054F8251030
:103EB00001F47F0140EA112054F8251040EA116016
:103EC00044F825006D1C102DE7D330463AE770B555
:103ED000002400258D480068012867D1C00302F046
:103EE000DFF9A8B100BF06E002F0A1F9884909682E
:103EF00041F82400641C082CF6D385480068203063
:103F000083490860834800682030824908604DE09A
:103F10004FF4804002F0C4F9002847D07E48006882
:103F20007C490968401A20282BD27B4800787949BF
:103F30000968401A00F0030030B9774800687549F5
:103F40000968401A800806E07348006871490968EA
:103F5000401A8008401C054600240FE06F4909689C
:103F6000086802F068F9641C6C480068001D6B4921
:103F7000086068480068001D66490860AC42EDD3DF
:103F800014E0002406E06549096851F8240002F0B5
:103F900052F9641C082CF6D36048006820305F4951
:103FA00008605C48006820305A4908604FF480700F
:103FB00002F076F9D8B355480068D0B10EE002F0AF
:103FC00036F953490968086051480068001D504996
:103FD000086050480068001D4E4908604FF400100A
:103FE00002F051F928B14B4800684B4909688842F2
:103FF000E5D34B480068012804D1FFF7CEFD4949BD
:10400000087002E02A20474908704FF4807002F0DF
:1040100051F900214CF23A3002F0AEF80120424949
:10402000086000203B4908603E48007870BDFFE70B
:10403000022002F035F970B1022002F03BF90021B4
:104040004CF23A3002F098F8002032490860022021
:1040500034490870EAE7082002F022F970B108201C
:1040600002F028F900214CF23A3002F085F80020E5
:104070002849086004202B490870D7E7202002F067
:104080000FF970B1202002F015F900214CF23A30FE
:1040900002F072F800201F490860062021490870CC
:1040A000C4E7102002F0FCF870B1102002F002F911
:1040B00000214CF23A3002F05FF800201549086008
:1040C000052018490870B1E74FF4007002F0E8F8D5
:1040D00078B14FF4007002F0EDF800214CF23A3064
:1040E00002F04AF800200B49086007200D490870CB
:1040F0009CE72A209AE70000081D002018060020EF
:10410000FFFF0F001C1D0020008001401C06002046
:104110002C0600203806002020060020280600205B
:1041200024060020300600203406002010B54FF48D
:104130008061F94802F067FA4FF40061F64802F036
:1041400062FA4FF40061F44802F05FFA4FF48061C4
:10415000F14802F05AFA10BD10B54FF48061EE48F4
:1041600002F051FA4FF40061EB4802F04EFA4FF4BE
:104170000061E94802F047FA10BD10B54FF48061C4
:10418000E54802F040FA4FF48061E34802F03DFA5E
:1041900010BD2DE9F04105462C464FF48061DE4804
:1041A00002F033FA00261CE0274607F08007802F34
:1041B00004D13901D84802F026FA04E04FF4006136
:1041C000D54802F022FA6006040E4FF48061D2480E
:1041D00002F019FA4FF48061CF4802F016FA701C11
:1041E000C6B2082EE0DBBDE8F08110B50446FFF74B
:1041F0009DFF7820FFF7CDFFFFF7BFFF0020FFF7FF
:10420000C8FFFFF7BAFF2046FFF7C3FFFFF7B5FF70
:10421000FFF7A2FF10BD10B50446FFF787FF782017
:10422000FFF7B7FFFFF7A9FF4020FFF7B2FFFFF747
:10423000A4FF2046FFF7ADFFFFF79FFFFFF78CFFBE
:1042400010BD70B504460D461DB1E0B2FFF7E3FFA7
:1042500002E0E0B2FFF7C9FF70BD70B5064600246A
:1042600018E004F1B0000021FFF7EBFF0021084641
:10427000FFF7E7FF00211020FFF7E3FF002505E02F
:1042800001213046FFF7DDFF681CC5B2802DF7DB4A
:10429000601CC4B2082CE4DB70BD06E041F6650189
:1042A00000E0491E0029FCD1401E0028F6D17047CD
:1042B000014605E0002001E0421CD0B27B28FBDB78
:1042C0000A1EA1F10101F5D1704770B504460D46F3
:1042D00005F1B0000021FFF7B4FF102141EA1410EE
:1042E0000021FFF7AEFF04F00F000021FFF7A9FF48
:1042F00070BD10B500218D20FFF7A3FF0021142011
:10430000FFF79FFF0021AF20FFF79BFF10BD10B507
:1043100000218D20FFF795FF00211020FFF791FF6E
:104320000021AE20FFF78DFF10BD70B5002418E00E
:1043300004F1B0000021FFF784FF00210846FFF7D9
:1043400080FF00211020FFF77CFF002505E0012100
:104350000020FFF776FF681CC5B2802DF7DB601CDC
:10436000C4B2082CE4DB70BD70B5002418E004F181
:10437000B0000021FFF765FF00210846FFF761FF4D
:1043800000211020FFF75DFF002505E00121084610
:10439000FFF757FF681CC5B2802DF7DB601CC4B265
:1043A000082CE4DB70BD2DE9F04707460E46904629
:1043B000994600250024A8F12000C5B27F2F02DD18
:1043C0000027B01CC6B2B9F1100F24D131463846CF
:1043D000FFF77BFF002408E004EB05114F4A505C17
:1043E0000121FFF72EFF601CC4B2082CF4DB701C07
:1043F000C1B23846FFF769FF002409E004EB05115C
:104400000831464A505C0121FFF71BFF601CC4B213
:10441000082CF3DB12E031463846FFF756FF002444
:104420000AE005EB45013E4A02EB4101085D01212E
:10443000FFF707FF601CC4B2062CF2DBBDE8F08773
:1044400010B50246012000E050430B1EA1F101040B
:10445000E1B2F9D110BD2DE9FF5F074691461E4636
:104460000E9D4FF0000A002435E0301B401EC1B203
:104470000A20FFF7E5FFB9FBF0F00A21B0FBF1F2EB
:1044800001FB1208BAF1000F14D1701EA04211DD19
:10449000B8F1000F0CD1AB4605EBDB71491001FB05
:1044A0000471C8B22B4620220199FFF77CFF10E06F
:1044B0004FF0010AAB4605EBDB71491001FB0471BB
:1044C000C8B208F13001CAB22B460199FFF76BFF61
:1044D00000BF601CC4B2B442C7DBBDE8FF9F2DE93A
:1044E000F04104460F461546984600260FE0AA5DA7
:1044F000434639462046FFF756FF04F10800C4B290
:10450000782C02DD0024B81CC7B2701CC6B2A85DAE
:104510000028ECD1BDE8F081000C01400CF000084F
:10452000E4ED00082DE9F04180460E4615460027CF
:1045300031464046FFF7C9FE00240AE0734A02EB09
:104540008511085D0121FFF77CFE781CC7B2601C55
:10455000C4B2102CF2DB701CC1B24046FFF7B5FEAE
:1045600000240CE06900491C684A02EB4111085D17
:104570000121FFF766FE781CC7B2601CC4B2102C84
:10458000F0DBBDE8F0812DE9F05F06460F4690466E
:104590001C46DDF828A04FF0000BE11704EB517129
:1045A000C910A4EBC10131B92046E11704EB5171E8
:1045B000C1F3C70506E02046E11704EB5171C910AD
:1045C000491CCDB23D4615E029463046FFF77DFE39
:1045D000B1460BE059460BF1010B1AF8010001211D
:1045E000FFF72FFE09F1010000F0FF09C145F1DBE3
:1045F000681CC5B2A542E7DBBDE8F09F08B5012104
:10460000082002F00FFA4FF44060ADF800001020CF
:104610008DF8030003208DF8020069463C4801F044
:1046200045FF4FF440613A4801F0EDFFC820FDF727
:104630008CFB0021AE20FFF704FE00210846FFF7A7
:1046400000FE00211020FFF7FCFD00214020FFF7B5
:10465000F8FD0021B020FFF7F4FD00218120FFF7D5
:10466000F0FD0021FF20FFF7ECFD0021A120FFF766
:10467000E8FD0021A620FFF7E4FD0021A820FFF7B8
:10468000E0FD00213F20FFF7DCFD0021C820FFF7FF
:10469000D8FD0021D320FFF7D4FD00210846FFF705
:1046A000D0FD0021D520FFF7CCFD00218020FFF7B1
:1046B000C8FD0021D820FFF7C4FD00210520FFF729
:1046C000C0FD0021D920FFF7BCFD0021F120FFF73C
:1046D000B8FD0021DA20FFF7B4FD00211220FFF71A
:1046E000B0FD0021DB20FFF7ACFD00213020FFF7FB
:1046F000A8FD00218D20FFF7A4FD00211420FFF765
:10470000A0FD0021AF20FFF79CFD08BD3C06002066
:10471000000C014008B50121092002F083F90121B4
:104720000C4801F094FF0121102002F07BF9402099
:10473000ADF8000010208DF8030003208DF8020072
:104740006946054801F0B2FE4021034801F05BFFD5
:1047500008BD0000000230000010014008B5012132
:10476000102002F05FF90420ADF8000010208DF851
:10477000030003208DF802006946744801F096FE9C
:104780000820ADF8000010208DF8030003208DF8FC
:10479000020069466D4801F089FE1020ADF8000066
:1047A0008DF8030003208DF802006946674801F088
:1047B0007DFE0421654801F026FF0821634801F0D1
:1047C00022FF1021614801F01EFF08BD10B504460C
:1047D000012C04D0022C07D0032C0FD109E00421B6
:1047E0005A4801F012FF0AE00821584801F00DFF75
:1047F00005E01021554801F008FF00E000BF00BFB0
:1048000010BD10B50446012C04D0022C07D0032C97
:104810000FD109E004214D4801F0F5FE0AE008211E
:104820004A4801F0F0FE05E01021484801F0EBFE97
:1048300000E000BF00BF10BD012804D0022809D04D
:10484000032815D10DE04149C96881F004013F4AB0
:10485000D1600EE03D49C96881F008013B4AD16052
:1048600007E03A49C96881F01001384AD16000E098
:1048700000BF00BF704710B50120FFF7DDFFC82063
:10488000FDF763FA0220FFF7D7FFC820FDF75DFAB6
:104890000320FFF7D1FFC820FDF757FA10BD10B570
:1048A0000120FFF7C9FF0220FFF7C6FF0320FFF733
:1048B000C3FFC820FDF749FA10BD10B50120FFF76E
:1048C00085FF0220FFF782FF0320FFF77FFF10BD67
:1048D00010B50120FFF795FF0220FFF792FF03209C
:1048E000FFF78FFF10BD10B504460B2C2BD2DFE86D
:1048F00004F02A060A0E12161A1E2124270001208F
:10490000FFF764FF20E00120FFF77BFF1CE002209F
:10491000FFF75CFF18E00220FFF773FF14E00320AD
:10492000FFF754FF10E00320FFF76BFF0CE0FFF7E9
:10493000C4FF09E0FFF7CCFF06E0FFF79CFF03E0B0
:10494000FFF7ADFF00E000BF00BF10BD0010014049
:1049500010B59148006820F070408F490860084603
:10496000006840F04050086000208C49086040F228
:10497000EE20FDF7E2F901208949C1F8BC010F20C2
:10498000FDF7DBF910BD10B500248348006820F066
:104990007040814908600846006840F000400860A7
:1049A00004E0601CC4B20120FDF7C7F97B488038E1
:1049B000006808B1C82CF4DBC82C01DB012010BD55
:1049C000002404E0601CC4B20120FDF7B6F973486E
:1049D0008038006808B9F02CF4DBF02C01DB0120F2
:1049E000EDE70020EBE710B56B48006820F0704061
:1049F000694908600846006840F04050086000209F
:104A0000664908600220FDF798F901206449C1F861
:104A1000BC016148006820F070405F4908600846AA
:104A2000006840F0004008600C20FDF786F95B4804
:104A30008038006808B1012400E000243220FDF72E
:104A40007CF9204610BD70B50026012508E0FFF76F
:104A5000CAFF0446E00140EA6600C6B2681CC5B25F
:104A6000082DF4DD304670BD70B504464A48006834
:104A700020F07040484908600846006840F0405007
:104A80000860012520E004F0010664106EB10020EA
:104A9000424908600220FDF750F901204049C1F861
:104AA000BC013C20FDF749F90CE000203B490860BF
:104AB0003C20FDF742F901203949C1F8BC01022030
:104AC000FDF73BF9681CC5B2082DDCDD70BD10B5E3
:104AD000FFF73EFFFFF757FFCC20FFF7C5FF44204D
:104AE000FFF7C2FF10BD08B50121042001F09AFFB5
:104AF0004FF40040ADF8000010208DF803000320B3
:104B00008DF8020069462448001F01F0CFFCFFF732
:104B10001FFFFFF738FF08BD2DE9F05FFFF7D7FF54
:104B2000FFF716FFFFF72FFFCC20FFF79DFFBE20FA
:104B3000FFF79AFFFFF787FF8346FFF784FF0646DC
:104B4000072E08DDF043C6B26FEA0B0000F0FF0B42
:104B50004FF0000901E04FF00109B2464FEA0A2088
:104B60000FFA80FA0AEB0B000FFA80FA50460AF0AF
:104B700021F8074600220B4B0AF034F804460D4694
:104B8000B9F1000F03D020462946BDE8F09F85F01B
:104B900000412046F9E7000004080140BC01214221
:104BA000000021420000B03F08B50121102001F0B3
:104BB00039FF2020ADF8000010208DF803000320FD
:104BC0008DF802006946044801F070FC202102487B
:104BD00001F01BFD08BD0000001001400CB50020D5
:104BE000019000906C48006840F480306A49086089
:104BF00000BF6948006800F4003000900198401C34
:104C00000190009818B90198B0F5A06FF1D16248F1
:104C1000006800F4003010B10120009001E0002095
:104C200000900098012843D15C48006840F01000D3
:104C30005A4908600846006820F0030008600846EA
:104C4000006840F0020008605348406852494860DC
:104C50000846406848600846406840F48060486004
:104C60000846406820F47C1048600846406840F4DC
:104C7000E81048600846006840F08070086000BF97
:104C80004548006800F000700028F9D042484068AC
:104C900020F00300404948600846406840F00200A8
:104CA000486000BF3C48406800F00C000828F9D17B
:104CB0000CBD10B5FFF792FF10BD10B53648006867
:104CC00040F0010034490860084640683449084013
:104CD0003149486008460068324908402E4908605A
:104CE0000846006820F4802008600846406820F4E8
:104CF000FE0048604FF41F008860FFF7DAFF4FF0B6
:104D000000602949086010BD10B500210020002274
:104D1000214B5B6803F00C0121B1042906D008295E
:104D200028D107E0214B224C236027E01F4B204C69
:104D3000236023E0184B5B6803F47010164B5B682C
:104D400003F48032022303EB904022B9194B434312
:104D5000174C23600DE0104B5B6803F4003323B164
:104D6000144B4343124C236003E0104B4343104C5D
:104D7000236003E00D4B0E4C236000BF00BF064BC9
:104D80005B68C3F303130C4CE15C094B1B68CB401D
:104D9000074C236010BD00000010024000200240BC
:104DA0000000FFF8FFFFF6FE08ED00E000127A00B9
:104DB000BC09002000093D00C009002009488047C7
:104DC00009480047FEE7FEE7FEE7FEE7FEE7FEE7ED
:104DD000FEE7FEE7FEE7FEE704480549054A064B05
:104DE00070470000BB4C000831010008582A002021
:104DF00058300020582C0020582C00203149014305
:104E0000314A1160704770B5002100230F22C47829
:104E100004B32D4C246804F4E064C4F5E064210A72
:104E2000C1F10403CA40447804FA03F184781440C1
:104E300021430901254C0678A155047804F01F058B
:104E40000124AC4005786D11AD0005F1E025C5F8F1
:104E5000004109E0047804F01F050124AC401C4D1A
:104E60000678761145F8264070BD1A4A0A4002437A
:104E7000154B1B1F1A60704739B1134A121D126877
:104E80000243114B1B1D1A6006E00F4A121D1268E7
:104E900082430D4B1B1D1A607047042808D14FF048
:104EA000E021096941F004014FF0E022116107E0BF
:104EB0004FF0E021096921F004014FF0E022116177
:104EC000704700000000FA050CED00E000E400E08F
:104ED00080E100E080FFFF1F10B50446FB488442DC
:104EE00009D10121880301F0B7FD00214FF4804072
:104EF00001F0B2FD32E0F648844209D101214804B4
:104F000001F0B7FD00214FF4003001F0B2FD25E0C3
:104F1000F048844209D10121880401F0AAFD002152
:104F20004FF4802001F0A5FD18E0EB48844209D140
:104F30000121C80401F09DFD00214FF4002001F083
:104F400098FD0BE0E548844208D10121080501F0F5
:104F500090FD00214FF4801001F08BFD10BD2DE974
:104F6000F04786B005460E460024A24600BFA14683
:104F70000027B08900B100BF2F462C8A4CF6FF7085
:104F80000440F08804432C82AC894EF6F3100440B0
:104F9000B08831890843718908430443AC81AC8AE5
:104FA0004FF6FF400440B0890443AC8201A801F0F1
:104FB000CCFCC648874202D1DDF810A001E0DDF844
:104FC0000CA0A88900F4004040B10AEBCA0000EB35
:104FD0000A1031684900B0FBF1F807E00AEBCA009B
:104FE00000EB0A1031688900B0FBF1F86420B8FBCF
:104FF000F0F004012009642101FB1089A88900F464
:10500000004040B1322000EBC900B0FBF1F000F0ED
:105010000700044308E0322000EB09106421B0FBD4
:10502000F1F000F00F0004432C8106B0BDE8F087DA
:105030004FF41651016000218180C18001810C2153
:10504000418100218181704710B502460020108AFD
:105050004FF2FF0318400B884C8823438C8823436E
:10506000CC8823431843108210BD00210180418069
:105070008180C180704721B1828942F400528281CF
:1050800004E082894DF6FF731A4082817047F0B5C3
:105090000346002400260025002040F66A17B94286
:1050A00000D100BF1846C1F3421401F01F060127CA
:1050B00007FA06F5012C01D10C3004E0022C01D1D5
:1050C000103000E014301AB107682F43076002E087
:1050D0000768AF430760F0BD1AB1838A0B43838230
:1050E00002E0838A8B4383827047028A4FF6F07313
:1050F0001A400282028A0A430282704782894FF272
:10510000FF731A40828182890A438281704721B1EC
:10511000828942F00202828104E082894FF6FD73A7
:105120001A4082817047028A4FF6DF731A4002826A
:10513000028A0A430282704721B1028A42F4804205
:10514000028204E0028A4BF6FF731A400282704723
:10515000C1F308028280704701468888C0F30800C6
:105160007047818941F0010181817047028BD2B281
:105170000283028B42EA012202837047028B02F40F
:105180007F420283028B0A430283704721B1828AE5
:1051900042F02002828204E0828A4FF6DF731A40D6
:1051A0008282704721B1828A42F01002828204E03A
:1051B000828A4FF6EF731A408282704721B1828A49
:1051C00042F00802828204E0828A4FF6F7731A40A6
:1051D0008282704721B1828942F40042828103E0D9
:1051E0008289C2F30E028281704721B1828A42F421
:1051F0000062828204E0828A4FF2FF731A40828248
:105200007047828A4FF6FB731A408282828A0A4371
:105210008282704721B1828A42F00202828204E0D7
:10522000828A4FF6FD731A40828270470246002040
:10523000B1F5007F00D100BF13880B400BB10120F6
:1052400000E00020704701F40072B2F5007F00D149
:1052500000BFCA430280704770B502460024002395
:105260000025002040F66A16B14200D100BFC1F30C
:10527000421501F01F03012606FA03F3012D02D1A6
:105280009689334006E0022D02D1168A334001E0B0
:10529000968A33400C12012606FA04F4168834402C
:1052A00013B10CB1012000E0002070BD10B5002248
:1052B000002340F66A14A14200D100BF0A12012463
:1052C0009440A3B2DC43048010BD000000380140CC
:1052D0000044004000480040004C004000500040A6
:1052E00010B50446FE48844208D10121C01401F0E3
:1052F000B3FB0021E01401F0AFFBC4E0B4F1804F38
:1053000008D10121084601F0B4FB0021012001F081
:10531000B0FBB8E0F348844208D10121022001F03B
:10532000A8FB0021022001F0A4FBACE0EE4884427F
:1053300008D10121042001F09CFB0021042001F090
:1053400098FBA0E0E948844208D10121082001F03F
:1053500090FB0021082001F08CFB94E0E44884429B
:1053600008D10121102001F084FB0021102001F060
:1053700080FB88E0DF48844208D10121202001F031
:1053800078FB0021202001F074FB7CE0DA488442A5
:1053900008D10121401401F05FFB0021601401F0ED
:1053A0005BFB70E0D548844209D10121C80401F0BB
:1053B00053FB00214FF4002001F04EFB63E0D04886
:1053C000844209D10121080501F046FB00214FF478
:1053D000801001F041FB56E0CA48844209D1012106
:1053E000480501F039FB00214FF4001001F034FBB7
:1053F00049E0C548844208D10121402001F039FB31
:105400000021402001F035FB3DE0C048844208D136
:105410000121802001F02DFB0021802001F029FBDB
:1054200031E0BB48844208D10121801501F021FB05
:105430000021A01501F01DFB25E0B648844209D1EA
:105440000121080401F008FB00214FF4803001F035
:1054500003FB18E0B048844209D10121480401F05F
:10546000FBFA00214FF4003001F0F6FA0BE0AB48F4
:10547000844208D10121880401F0EEFA00214FF4A2
:10548000802001F0E9FA10BD00220288944B984276
:105490000ED0994B98420BD0B0F1804F08D0914B71
:1054A000984205D0904B984202D0904B984204D13C
:1054B0004FF68F731A404B881A438D4B984207D092
:1054C0008C4B984204D04FF6FF431A40CB881A43C6
:1054D00002808B8883850B880385814B98420BD093
:1054E000854B984208D08B4B984205D08A4B984206
:1054F00002D08A4B984201D10B7A03860123838222
:10550000704770B5002400220023058C4FF6FE760C
:1055100035400584028C8388048B4FF68F752C40B0
:10552000B51E2C400D882C43751E2A400D892A4338
:105530004D882A436A4DA8420BD06F4DA84208D02F
:10554000744DA84205D0744DA84202D0734DA842B4
:1055500013D14FF6F7752A404D892A434FF6FB7554
:105560002A408D882A434FF6FF652B404FF6FF55A2
:105570002B408D892B43CD892B4383800483CD8899
:105580008586028470BD70B5002400220023058C3E
:105590004FF6EF7635400584028C8388048B48F6FD
:1055A000FF752C404FF6FF452C400D884FF6FF76D7
:1055B00006EA05252C434FF6DF752A400D8906EAD9
:1055C00005152A434D8806EA05152A43444DA8428D
:1055D00002D0494DA8421DD14FF67F752A404D8912
:1055E0004FF6FF7606EA05152A434FF6BF752A40A7
:1055F0008D8806EA05152A434FF6FF352B404FF2FA
:10560000FF752B408D8906EA85052B43CD8906EA77
:1056100085052B4383800483CD880587028470BD74
:1056200070B5002400220023058C4FF6FF6635403C
:105630000584028C8388848B4FF68F752C404FF63F
:10564000FC752C400D882C434FF6FF552A400D89E0
:105650004FF6FF7606EA05252A434D8806EA05251A
:105660002A431F4DA84202D0234DA8421DD14FF21C
:10567000FF752A404D894FF6FF7606EA05252A4335
:105680004FF6FF352A408D8806EA05252A434EF657
:10569000FF752B404DF6FF752B408D8906EA0515E9
:1056A0002B43CD8906EA05152B4383808483CD885F
:1056B0008587028470BD70B5002200230024058C0C
:1056C0004EF6FF7635400584038C8488828B48F63D
:1056D000FF752A404FF6FF452A400D8820E0000064
:1056E000002C01400004004000080040000C004075
:1056F000001000400014004000340140004C014004
:10570000005001400054014000180040001C0040BF
:10571000002000400040014000440140004801409A
:105720004FF6FF7606EA05252A434DF6FF752B4016
:105730000D8906EA05352B434D8806EA05352B43CE
:10574000FA4DA84202D0FA4DA84208D14BF6FF7597
:105750002C408D894FF6FF7606EA85152C43848010
:105760008283CD88A0F84050038470BD828B4FF2B5
:10577000FF331A408283828B4FF6FF7303EA0123C3
:105780001A4382837047F0B50C461546002200216B
:105790000026078C4EF6FF7C07EA0C070784828BF5
:1057A000018C4FF6FF7707EA043640F6FF473A4090
:1057B0004FF6FF7707EA05273A434FF6FF7707EAE8
:1057C00003373A43D94FB8420ED0D94FB8420BD025
:1057D000B0F1804F08D0D74FB84205D0D64FB8426D
:1057E00002D0D64FB84206D14DF6FF77394046F485
:1057F0008057394305E047F6FF57394044F4805756
:10580000394382830184F0BD828B4FF6F3731A40D3
:105810008283828B0A4382837047F0B50C4615461B
:10582000002200210026078C4FF6FF6C07EA0C07C8
:105830000784828B018C4FF6FF7707EA04264FF628
:105840000C773A404FF6FF7707EA03172F433A43A6
:10585000B64FB8420ED0B64FB8420BD0B0F1804F21
:1058600008D0B44FB84205D0B34FB84202D0B34FBE
:10587000B84206D14FF6FF57394046F48077394396
:1058800005E04FF2FF57394044F480773943828373
:105890000184F0BD028B4FF2FF331A400283028B6A
:1058A0004FF6FF7303EA01231A4302837047F0B5F2
:1058B0000C461546002200210026078C4FF6EF7C8F
:1058C00007EA0C070784028B018C4FF6FF7707EA83
:1058D000041640F6FF473A404FF6FF7707EA0337D2
:1058E0003A434FF6FF7707EA05273A438F4FB8420E
:1058F0000ED08F4FB8420BD0B0F1804F08D08D4FF3
:10590000B84205D08C4FB84202D08C4FB84206D175
:105910004FF6DF77394046F01007394305E04FF680
:105920005F77394044F01007394302830184F0BDAA
:10593000028B4FF6F3731A400283028B0A430283F1
:105940007047F0B50C46154600220021068C4FF634
:10595000FE773E400684028B018C4FF60C76324077
:105960007E1C06EA03162E433243704EB0420ED020
:105970006F4EB0420BD0B0F1804F08D06D4EB042A8
:1059800005D06D4EB04202D06C4EB04206D14FF6FB
:10599000FD76314044F00106314305E04FF6F576DF
:1059A000314044F00106314302830184F0BD70B5FB
:1059B00005460C465D4885420ED05D4885420BD0B9
:1059C000B5F1804F08D05B48854205D05A488542E2
:1059D00002D05A48854200D100E000BF208850B96B
:1059E0002389A28861882846FFF7ABFFE188284613
:1059F000FFF79EFF25E0208804280AD12389A2888A
:105A000061882846FFF753FFE1882846FFF742FFE9
:105A100017E0208808280AD12389A28861882846AF
:105A2000FFF7FBFEE1882846FFF7EEFE09E0238939
:105A3000A28861882846FFF7A6FEE1882846FFF77E
:105A400095FE70BD2DE9F04105460C460026012764
:105A5000608808B9022600E00026A088012801D14C
:105A6000022700E001272088A0B92389A288618845
:105A70002846FFF766FFE1882846FFF759FF23898C
:105A80003A4631462846FFF712FFE1882846FFF7DD
:105A900001FF13E02389A28861882846FFF707FFEA
:105AA000E1882846FFF7F6FE23893A463146284624
:105AB000FFF747FFE1882846FFF73AFFBDE8F0818E
:105AC0000A884B881A438B881A43CB881A430B8960
:105AD0001A434B891A438B891A43A0F84420704714
