:020000040800F2
:10000000A8280020A56800083D0600083F06000853
:1000100043060008470600084B06000800000000E1
:100020000000000000000000000000004F06000873
:10003000510600080000000053060008550600089D
:10004000BF680008BF680008BF680008BF680008F4
:10005000BF680008BF680008BF6800086F06000896
:10006000BF680008BF680008BF680008BF680008D4
:10007000BF680008BF680008BF680008BF680008C4
:10008000BF680008BF680008BF6800088B0600084A
:1000900093060008BF680008BF680008BF68000832
:1000A000BF680008BF680008BF680008BF68000894
:1000B0009B060008BD060008BF680008BF6800086E
:1000C000BF680008BF680008BF680008BF68000874
:1000D000BF6800084B110008AF120008BF68000895
:1000E000BF680008BF680008BF680008BF68000854
:1000F000BF680008BF680008BF680008BF68000844
:10010000BF68000867060008BF680008BF680008ED
:10011000BF680008BF680008BF680008BF68000823
:10012000BF680008BF680008BF680008BF68000813
:1001300000F002F800F0B4F80AA090E8000C824445
:100140008344AAF10107DA4501D100F0A9F8AFF222
:10015000090EBAE80F0013F0010F18BFFB1A43F0A5
:10016000010318470CDD03002CDD03000A444FF0A7
:10017000000C10F8013B13F0070408BF10F8014B06
:100180001D1108BF10F8015B641E05D010F8016B4B
:10019000641E01F8016BF9D113F0080F1EBF10F8AF
:1001A000014BAD1C0C1B09D16D1E58BF01F801CBD2
:1001B000FAD505E014F8016B01F8016B6D1EF9D555
:1001C0009142D6D37047000000230024002500266A
:1001D000103A28BF78C1FBD8520728BF30C148BFAA
:1001E0000B6070476E290FF0848570290FF0038132
:1001F000662912F06482652912F06182672912F083
:100200005E826129AFF3008003681B0A28BF41F0BA
:10021000800169290FF0748064290FF071807529BD
:100220000FF06E806F2910F08A8078290FF0CF8050
:10023000E92910F02580E42910F02280F52910F03A
:100240001F80EF2910F08780F8290FF0CE80036817
:10025000DB0928BF41F0800163290FF094877329DF
:100260000FF09987E32910F08584F32910F08A8430
:10027000002070471FB59DE803000FF099FC10F0B7
:10028000C3FB04000020002111F028FF401C606027
:100290000020002111F038FFE0601FBD10B510BD37
:1002A00010F01BFF1146FFF7E5FF00F084F811F096
:1002B0006FF903B4FFF7F2FF03BC00F0DDFE0000AE
:1002C00010B50446214683A00EF0A8FF322C6FD251
:1002D000DFE804F0191F252B3139414243444546DC
:1002E0004748494A4B4C4D4E4F5051525354555626
:1002F0005758595A5B5C5D5E5F6061626364656616
:100300006768696A6B6C77A00EF088FF03F061FA8A
:100310004FE07BA00EF082FF03F079FA49E07EA067
:100320000EF07CFF03F08BFA43E082A00EF076FF24
:1003300003F086FA3DE085A00EF070FF04218948A5
:1003400007F0D7FE35E088A00EF068FF042185484D
:1003500007F0CDFE2DE02CE02BE02AE029E028E09C
:1003600027E026E025E024E023E022E021E020E071
:100370001FE01EE01DE01CE01BE01AE019E018E0A1
:1003800017E016E015E014E013E012E011E010E0D1
:100390000FE00EE00DE00CE00BE00AE009E008E001
:1003A00007E006E005E004E003E002E001E0FFE72B
:1003B00000BF00BF10BD08B5FF2400F0CDFF322004
:1003C00000F0FFFF4FF4E13000F07CFE4FF4E1302D
:1003D00000F014FF00F076FA03F0E4F905F02CFFCA
:1003E0004FF48051664807F082FE05F099FE65489B
:1003F0000823802200210090084605F056FE41F6B1
:100400001F410A2005F038FF5FA00EF007FF66A02D
:100410000EF004FF68A00EF001FF6BA00EF0FEFED0
:100420006CA00EF0FBFE6EA00EF0F8FE6FA00EF0BA
:10043000F5FE72A00EF0F2FE73A00EF0EFFE75A0B6
:100440000EF0ECFE00207649087041E07548007817
:1004500000B13DE072480078102815D003DC48B1A7
:1004600001281BD104E0112819D0312816D100E051
:1004700000BF18E001206A49087000F02DFA10B999
:100480003120674908700EE000F08AFD04462046DE
:10049000FFF716FF00206249087004E000BF00204B
:1004A0005F49087000BF00BF204603F0D3F9322136
:1004B0005DA00EF059FB50B95F4890F8060110B9E5
:1004C00005F036FA03E005F029FB06F006F800BF58
:1004D000BCE700000D0ACAB6B1F0C2EB3A25640DC4
:1004E0000A000000A1B0C1F7CBAEB5C6A1B1C3FCF4
:1004F000C1EECAB6B1F0B3C9B9A60D0A000000003A
:10050000A1B0C9C1CBB8A1B1C3FCC1EECAB6B1F0AC
:10051000B3C9B9A60D0A0000A1B0B0B4BCFCB4A523
:10052000B7A2A1B1C3FCC1EECAB6B1F0B3C9B9A6B6
:100530000D0A0000A1B0C8ABC3F0A1B1C3FCC1EE6D
:10054000CAB6B1F0B3C9B9A60D0A0000A1B0BFAADE
:10055000B5C6A1B1C3FCC1EECAB6B1F0B3C9B9A664
:100560000D0A000000100140A1B0B9D8B5C6A1B174
:10057000C3FCC1EECAB6B1F0B3C9B9A60D0A0000FA
:100580000008014000000020BBF9D3DAB5A5C6ACD5
:10059000BBFAB5C4D6C7C4DCD3EFD2F4BFD8D6C635
:1005A000CFB5CDB30D0A0000B3F5CABCBBAF2E2E3C
:1005B0002E2E2E2E0D0A0000B3F5CABCBBAFCDEA1D
:1005C000B3C90D0A00000000BFDAC1EEA3BA0D0ADC
:1005D0000000000030A1A2C1F7CBAEB5C60D0A00E5
:1005E00031A1A2C9C1CBB80D0A00000032A1A2B04E
:1005F000B4BCFCB4A5B7A20D0A00000033A1A2C888
:10060000ABC3F00D0A00000034A1A2BFAAB5C60D0D
:100610000A00000035A1A2B9D8B5C60D0A00000035
:1006200000040020850400203131392E32332E366B
:10063000312E31343800000060140020704700BFB4
:10064000FEE700BFFEE700BFFEE700BFFEE7704722
:10065000704770472348008820B122480088401E18
:1006600020490880704710B502F06DFF10BD10B52D
:10067000022007F015FC38B100F022FB022007F041
:100680000BFC022007F01DFC10BD10B509F083F92A
:1006900010BD10B50AF084FA10BD10B512480088DC
:1006A00040F400401049088000214FF0804006F0DF
:1006B000BBFF0121880707F091FA10BD10B5012199
:1006C0000A4807F07AFA58B10121084807F086FA7B
:1006D000322107A00EF048FA05F0EDF905F01AFFF7
:1006E00010BD000002040020960400200004004019
:1006F0003131392E32332E36312E3134380000006C
:1007000010B54FF40041884807F0D7FCB0B909F0A4
:10071000F2FD09F024FE09F05AFE09F0C5FD09F0CA
:10072000ABFD08F097FF00BF804800680528FBD1AB
:1007300009F015FE07F040FB00BFFEE710BD00B555
:1007400087B0012148F2080007F0EDFE012178484A
:1007500007F0F1FC3820ADF8040003208DF8060006
:1007600018208DF8070001A96F4807F013FC4FF41B
:100770000070ADF8040003208DF8060010208DF8FD
:10078000070001A9684807F005FC4FF4807166482E
:1007900007F0ADFC0021674807F0E7FF0020ADF847
:1007A00008004FF48270ADF80A000020ADF80C008C
:1007B0000220ADF80E000020ADF810004FF40070DC
:1007C000ADF812002820ADF814000020ADF8160096
:1007D0000720ADF8180002A9564807F021FF0121B3
:1007E000544807F0C2FF07B000BD1FB5012110201B
:1007F00007F08CFE0220ADF8000004208DF8030005
:1008000003208DF8020069464B4807F0C3FB012125
:10081000022007F0D5FC0220029000208DF80C0089
:100820000C208DF80D0001208DF80E0002A807F0B5
:10083000D1FA022007F01DFB02213F4807F057FCC8
:10084000022007F029FB022007F03BFB07208DF870
:10085000040000208DF805008DF8060001208DF8B9
:10086000070001A806F043F81FBD08B501210520C7
:1008700007F04CFE4FF48070ADF8000018208DF8A2
:10088000030003208DF8020069462C4807F082FB24
:10089000072007F076FE01213C2007F037FE4FF4D9
:1008A000E070ADF8000003208DF8020010208DF8F4
:1008B000030069461C4807F06DFB80211A4807F0C9
:1008C00016FC08BD10B5FFF7D0FFFFF78EFFFFF74E
:1008D00036FF00F035F810BD70B50024002500BFCC
:1008E0001DE000F0D2FA322000F06BFD00F00EFBAC
:1008F00028B900F025F8322000F063FD0DE00A2051
:1009000000F05FFD00F0C5FA28B900F019F83220B8
:1009100000F057FD01E0012503E0601CC4B2052C86
:10092000DFDB00BF284670BD000C01406C0A0020D0
:1009300000023000003C004000100140000801406F
:1009400010B54021F74807F0D2FB642000F039FDD4
:100950004021F44807F0CDFB642000F032FD402137
:10096000F04807F0C4FB642000F02BFD4FF48071C9
:10097000EC4807F0BEFB642000F023FD4FF48071CB
:10098000E84807F0B4FB642000F01BFD10BD10B573
:10099000062000F050FB3521172000F030FB052029
:1009A00000F00FFD062000F046FB0321892000F037
:1009B00026FB052000F005FD4321CF2000F01FFBA2
:1009C000052000F0FEFC0221CB2000F018FB1121D5
:1009D000084600F014FBD4480078402810D10021CC
:1009E0001E2000F00CFB0F21192000F008FB18213D
:1009F0001B2000F004FB2C211D2000F000FB0FE069
:100A000000211E2000F0FBFA3F21192000F0F7FA28
:100A100048211B2000F0F3FA1F211D2000F0EFFAFF
:100A2000052000F0CEFC0421CD2000F0E8FA4C2196
:100A3000172000F0E4FA012000F0C3FC0021B920E7
:100A400000F0DDFA4F21CF2000F0D9FAFF216F200E
:100A500000F0D5FA10BD10B50820B3490870FFF7B3
:100A600096FF0021BD2000F0CAFA4821172000F0AF
:100A7000C6FA052000F0A5FC80213C2000F0BFFA5A
:100A800007213E2000F0BBFAFF21382000F0B7FA22
:100A900007213A2000F0B3FA0021402000F0AFFA1D
:100AA0000821422000F0ABFA0021442000F0A7FA10
:100AB0000821462000F0A3FA012000F082FC10BDBE
:100AC00010B5402098490870FFF761FF0221BD2052
:100AD00000F095FA4821172000F091FA0A2000F062
:100AE00070FC5221852000F08AFA00218F2000F04E
:100AF00086FA0021812000F082FA0021832000F094
:100B00007EFAFF218E2000F07AFAFF218D2000F07E
:100B100076FA012000F055FCFF21872000F06FFAE3
:100B2000FF21892000F06BFA012000F04AFC00212F
:100B3000222000F064FA0021232000F060FAEF2167
:100B4000202000F05CFA0721212000F058FA7721DC
:100B5000242000F054FA0321252000F050FABB2194
:100B6000262000F04CFA0121272000F048FA10BDA1
:100B700070B50025062000F05EFA044608E0FF216B
:100B8000012000F03CFA6D1C062000F054FA0446E7
:100B900004F008000028F2D070BD10B500206349B1
:100BA000086001206249087060480068614909686E
:100BB000884200D310BDFFF7DBFF0021BA2000F010
:100BC0001EFA4821172000F01AFA0121332000F004
:100BD00016FA0421292000F012FA0121022000F067
:100BE0000EFA5A21852000F00AFA00BFE2E710B59C
:100BF0000446C4F10F000007840E44F0C3018E20A8
:100C000000F0FDF97821872000F0F9F910BD38B522
:100C1000062000F010FA044613E044480068401C27
:100C20004249086001226946434800680AF041FCD5
:100C30009DF80010012000F0E2F9062000F0FBF919
:100C4000044604F0080028B93848006839490968A2
:100C50008842E2D9354800683649096888422ED36F
:100C60000121BC2000F0CBF91021292000F0C7F9A8
:100C700000BFBA2000F0DFF900F020000028F8D013
:100C800000212B2000F0BBF90021BA2000F0B7F9B9
:100C90000021BC2000F0B3F9002025490870012193
:100CA000082000F0ACF90021082000F0A8F900218C
:100CB000332000F0A4F9204800680AF0EFFB38BDAB
:100CC00010B500242B2000F0B6F91C490870164816
:100CD0000078082843D10021292000F090F9002154
:100CE000022000F08CF91548007800F0100048B39D
:100CF000B22000F0A0F9212825D1BF2000F09BF9F7
:100D0000352820D1BA2000F096F90446002C05DDE4
:100D1000042C03DC10200A49087017E01120084950
:100D2000087013E0000C01408404002080040020BF
:100D3000850400207C0400208C0400208604002010
:100D400000040020FFE711209849087000212B20A3
:100D500000F055F900211C2000F051F910BD2920A8
:100D600000F069F992490870022000F064F9914995
:100D700008700021292000F042F90021022000F033
:100D80003EF9BA2000F057F900F02000F8B1002138
:100D90002B2000F034F90021BA2000F030F90021B6
:100DA000BC2000F02CF900208349087001210820A4
:100DB00000F025F90021082000F021F9002133205E
:100DC00000F01DF97D4800680AF068FBC6E77C4822
:100DD00000687C49096888420CD30121BC2000F0DE
:100DE0000EF91021292000F00AF9744800680AF071
:100DF00055FBB3E7FFF70BFF6D480178292000F0A2
:100E0000FEF86C480178022000F0F9F800BFA5E771
:100E100070B505460C460022114628460AF02AFB0A
:100E20006649086008460068401C30B908460068FA
:100E30000AF034FB6148006870BD01205E4908700B
:100E40005E4800680AF074FB401E5E490860FFF7C8
:100E500037FE2046FFF7CBFEFFF79FFE0020EBE7B3
:100E600070B5002500240BE0B22000F0E4F8212842
:100E700001D1012506E00A2000F0A3FA601CC4B2EB
:100E80000A2CF1DB00BF284670BD10B5FFF7E3FD6B
:100E900010BD10B54321352000F0B1F809211C2008
:100EA00000F0ADF82021BD2000F0A9F801210820B4
:100EB00000F0A5F8012000F084FA0021082000F0DD
:100EC0009EF8012000F07DFAFFF7CAFF08B9002064
:100ED00010BDFF21B22000F092F80621372000F06B
:100EE0008EF80621372000F08AF8052000F069FA14
:100EF0000B211C2000F083F81021292000F07FF83E
:100F00000021BD2000F07BF80120E1E770B501264B
:100F1000002440E0FFF7A4FF08B900263DE0214689
:100F2000C12000F06CF80021C32000F068F8042113
:100F3000082000F064F8012000F043FA00210820A6
:100F400000F05DF8012000F03CFA002512E004EB0F
:100F500084001D4901EB8000405D00B90CE004EB0A
:100F60008400194A02EB8000415D052000F047F83B
:100F7000681CC5B2142DEADB00BF2946B92000F079
:100F80003EF8FF21B22000F03AF80421372000F0AB
:100F900036F8601CC4B2062CBCDB00BF304670BD06
:100FA00010B5C52000F047F810BD00000004002077
:100FB0008704002088040020850400208C04002081
:100FC000800400207C0400200404002010B50446A6
:100FD00000BF0221264807F04CFC0028F9D021462A
:100FE000234807F0F3FB00BF0121214807F041FC33
:100FF0000028F9D01E4807F0EBFBC0B210BD70B559
:1010000005460C464FF480711A4807F072F84FF409
:101010000071184807F06DF80420FFF7D7FF284645
:10102000FFF7D4FF2046FFF7D1FF4FF4807111483E
:1010300007F05DF870BD70B504464FF480710D483F
:1010400007F057F84FF400710A4807F052F80520EE
:10105000FFF7BCFF2046FFF7B9FF0020FFF7B6FF00
:1010600005464FF48071034807F041F8284670BDEB
:10107000003C0040000C0140014600BF704700BF2B
:10108000504A128802F04002002AF9D0C2B24D4BF9
:101090001B1D1A807047014600BF704708B54FF40A
:1010A000E06005F01FFC25208DF8000003208DF87E
:1010B00001008DF8020001208DF80300684605F05C
:1010C00016FC08BD10B586B00446012144F20400A8
:1010D00007F01CFA3B4805F073FC4FF40070ADF8C4
:1010E000140003208DF8160018208DF8170005A9AC
:1010F000354806F04FFF4FF48060ADF8140004202F
:101100008DF8170005A9304806F044FF019400202F
:10111000ADF80800ADF80A00ADF80C00ADF810000D
:101120000C20ADF80E0001A9264805F08CFC012228
:1011300040F22551234805F01EFD0121214805F00C
:101140000EFDFFF7ABFF06B010BD10B540F2255104
:101150001C4805F0F5FD10B31A4805F071FDC4B246
:101160001A48008800F40040C8B91848008800F404
:10117000804060B10A2C03D000201449088020E090
:101180001248008840F400401049088019E00D2CF6
:1011900006D10E48008840F480400C49088010E0D9
:1011A0000A480088C0F30D0009490C54074800881C
:1011B000401C0649088008460088FF2801DD002001
:1011C000088010BD00380140000801409404002050
:1011D0009C0A002008B54FF4E06005F083FB262050
:1011E0008DF8000002208DF801008DF8020001202A
:1011F0008DF80300684605F07AFB08BD10B586B08F
:1012000004460121042007F081F90121480407F078
:101210008AF94A4805F0D4FB0420ADF814000320F5
:101220008DF8160018208DF8170005A9444806F01F
:10123000B1FE0820ADF8140004208DF8170005A9B0
:101240003F4806F0A7FE01940020ADF80800ADF875
:101250000A00ADF80C00ADF810000C20ADF80E003F
:1012600001A9364805F0EFFB0121344805F077FC71
:1012700001228021314805F0A3FC4FF48063314AFC
:101280002E49091D304800F0C1F8012240F22551D5
:101290002A4805F070FC41F61F41632000F0FEF87B
:1012A00000202A490880FFF795FF06B010BD10B551
:1012B0002748007860B92148001D00882549234A45
:1012C0001288885421480088401C2049088018E072
:1012D0001A48001D0088C1B21E481C4A1288815459
:1012E00000214FF0804006F033FC1848008818B900
:1012F0000121880706F098F914480088401C13491A
:10130000088010BD0FB438B505A800900D48009AAC
:1013100004990DF071FF002000900A480EF0B1FA18
:1013200084B22146084800F096F800BF0648001D28
:1013300000680028FAD138BC5DF814FB0044004076
:10134000000801409C0F002080000240960400200D
:10135000980400209C0B002030B500BF2648006890
:10136000264AB0FBF2F1B1F1807F01D301201DE0EC
:1013700021F07F40401E4FF0E022506150170F22B5
:10138000002807DA13071D0E1D4B00F00F04241F61
:101390001D5503E013071C0E1A4B1C5400BF002000
:1013A0004FF0E02290610720106100200028D5D185
:1013B00030BD1549088000BF134909880029FBD1B9
:1013C000704700B5024603E04FF47A70FFF7F1FF73
:1013D000101EA2F101018AB2F6D100BD00B503468C
:1013E00003E04FF47A70FFF7ECFF181EA3F1010140
:1013F0008BB2F6D100BD00007008002040420F0003
:1014000018ED00E000E400E002040020F0B58BB02D
:1014100007460C4615461E460121084607F069F8A6
:10142000384607F05DFA009401951020029003966B
:1014300000200490802005900020069007900890DE
:101440004FF48050099000200A906946384607F012
:10145000E9FA0BB0F0BD70B504460D4600212046F8
:1014600007F00BFB2946204607F01CFB0121204614
:1014700007F003FB70BD08B54FF4E06005F032FAE9
:101480001C208DF8000001208DF801008DF802006D
:101490008DF80300684605F02AFA08BD3EB50546FA
:1014A0000C460121084607F03EF84FF0804005F059
:1014B0008BFC4FF0804006F0EBF8ADF80450ADF82F
:1014C00000400020ADF80600ADF8020069464FF07C
:1014D000804005F04DFD0121880706F06BFB0021DF
:1014E0004FF0804006F0A0F901221146900706F067
:1014F000B6F800214FF0804006F096F8FFF7BBFFEA
:101500003EBD000008B5002006F097FB002006F065
:1015100097FB06F067FB00214FF4806006F0E9FFBF
:101520004FF4F850ADF8000004208DF80300694630
:10153000F94806F02FFD0420ADF800006946F74891
:1015400006F028FD08BD08B50121B02006F0DEFF39
:101550004FF4F850ADF8000003208DF80200182079
:101560008DF803006946EC4806F014FD0420ADF840
:1015700000006946E94806F00DFD0121880206F0E9
:10158000B8FF0121022006F0B4FF08BD30B58BB0D2
:1015900005460C46E24807F09FFA0021E14807F0B3
:1015A0006CFAE1480090019510200290A008039089
:1015B0000020049080200590800006908000079015
:1015C000002008904FF40050099000200A906946CE
:1015D000D44807F027FA0121D24807F04EFA0BB0A1
:1015E00030BD30B58BB005460C46CD4807F074FAD7
:1015F0000021CC4807F041FACB480090019500202B
:101600000290A008039000200490802005908000A4
:10161000069080000790002008904FF40050099039
:1016200000200A906946BF4807F0FCF90121BD4837
:1016300007F023FA0BB030BD10B5BC4807F038FAFC
:1016400010BD10B5FFF75EFF10BD01462A2019B18D
:10165000012901D0022902D1B54A116000E02620FB
:1016600070472DE9F04106462A27AF488038456B80
:1016700002E0AD488038456B05F045000028F8D001
:1016800005F0040030B10327042006F07AFB384649
:10169000BDE8F08105F0010028B10127012006F026
:1016A00070FB3846F4E706F005FBB04202D0102785
:1016B0003846EDE740F2FF5006F063FB002006F0ED
:1016C000FDFA04469B48204008B93846E0E704F09C
:1016D000004008B11C20DBE704F0804008B109207D
:1016E000D6E704F0005008B10A20D1E704F080509A
:1016F00008B10B20CCE704F0006008B10C20C7E76C
:1017000004F0806008B10D20C2E704F0807008B1D9
:101710000E20BDE704F4000008B10F20B8E704F480
:10172000800008B11020B3E704F4001008B11120C4
:10173000AEE704F4801008B11220A9E704F40020F9
:1017400008B11320A4E704F4802008B114209FE717
:1017500004F4003008B115209AE704F4803008B191
:10176000162095E704F4004008B1172090E704F430
:10177000804008B118208BE704F4005008B119200C
:1017800086E704F0080008B11A2081E738467FE7B1
:101790002DE9FC4107460D4600262A240020009032
:1017A000019008206449086010204860402088604B
:1017B0000020C8604FF480600861084606F060FAB7
:1017C0001020FFF74EFF04462A2C02D02046BDE829
:1017D000FC815A4800880004574908603720486057
:1017E000402088600020C8604FF48060086108468F
:1017F00006F046FA3720FFF734FF04462A2C01D0C2
:101800002046E4E74E484F490860082048603020F1
:1018100088600220C86000200861012048610846F5
:1018200006F057FA00204449086033204860402001
:1018300088600020C8604FF480600861084606F0A8
:101840001FFA3320FFF70DFF04462A2C01D0204653
:10185000BDE709E04FF4001006F089FA20B106F068
:101860005AFA4DF82600761C2F488038406B40F21B
:101870002A6108400028EDD0082006F078FA28B147
:10188000082006F07EFA04242046A0E7022006F095
:101890006EFA28B1022006F074FA0224204696E778
:1018A000202006F064FA28B1202006F06AFA062407
:1018B00020468CE74FF4007006F059FA30B14FF42F
:1018C000007006F05EFA0724204680E740F2FF50E1
:1018D00006F057FA00980006009901F47F4140EAAB
:1018E0000120009901F47F0140EA1120009940EAAB
:1018F0001160686001980006019901F47F4140EA97
:101900000120019901F47F0140EA1120019940EA88
:101910001160286020465AE7001001400014014081
:1019200000F00010440402408080014000200010BC
:10193000A404002008E0FFFD24140020A0040020DF
:10194000FFFF0F00381400207CB505462A24002034
:101950000090019006F0B2F900F0007010B10E2472
:1019600020467CBDFE49098888B26946FFF710FF12
:1019700004462A2C01D02046F3E7012D38D10198E6
:1019800000F48020002830D0F54800880004F54994
:10199000086037204860402088600020C860A802A6
:1019A0000861084606F06CF93720FFF75AFE044636
:1019B0002A2C01D02046D4E70220EA4908600620FC
:1019C0004860402088600020C8604FF48060086153
:1019D000084606F055F90620FFF743FE04462A2C78
:1019E00001D02046BDE72046BBE725242046B8E7C6
:1019F000019800F4803078B3D94800880004D949B0
:101A0000086037204860402088600020C8604FF49C
:101A100080600861084606F033F93720FFF721FEA1
:101A200004462A2C01D020469BE70020CD490860BF
:101A300006204860402088600020C8604FF4806025
:101A40000861084606F01CF90620FFF70AFE044666
:101A50002A2C02D0204684E701E0204681E7252495
:101A600020467EE770B504462A25BF480068032853
:101A700002D12725284670BDBB48006838B1BA4856
:101A80000068012803D0B8480068022830D1B4F5B6
:101A9000805F02D127252846EDE7B4F5006F15D108
:101AA0000120FFF751FF05462A2D21D10120AF4922
:101AB000087500200860486088604FF40060C860C6
:101AC00000200861084606F09BF811E00020FFF7AF
:101AD0003BFF05462A2D0BD10120A44908750020A3
:101AE000086048608860C8600861084606F088F8A9
:101AF0002846C0E770B504462A259A4804600720A6
:101B000098494860402088600020C8604FF4806099
:101B10000861084606F0B4F80720FFF7A2FD054665
:101B2000284670BD30B501462A2000228E4B1B7816
:101B300081F84E308A4B1B88A1F84C308C4B1B68C7
:101B40001A0E93090B70C2F383034B7002F0030368
:101B50008B70874B1B68C3F30742CA70844B1B888A
:101B6000C3F307220A71824B1A784A715B681A0E16
:101B70001301CB807E4B5B68C3F30742CB8843EAFB
:101B80001213CB8002F00F030B72794B9B88C3F3C7
:101B90000722D3094B72C2F380138B72C2F3401336
:101BA000CB72C2F300130B7300234B736E4B1B6895
:101BB0001BB16D4B1B68012B3CD193071B0D0B61B7
:101BC0006B4B1A790B6943EA82030B61684B9B6884
:101BD0001A0E0B6943EA92130B61C2F3C2030B7531
:101BE00002F007034B75624B9B68C3F3074253092E
:101BF0008B75C2F38203CB7593075B0F0B765C4B3F
:101C00001B89C3F307220B7E43EAD2130B760B69C1
:101C10005B1C4B640C7E4B6CA41C0125A5406B43E4
:101C20004B640C7A0123A3408B64D1E911346343E4
:101C30004B6421E04C4B1B68022B1DD14C4B1A7995
:101C400093069B0A0B614A4B9B681A0E0B6943EA89
:101C500002230B61464B9B68C3F307420B69134396
:101C60000B61434B1B89C3F307220B695B1CDB042D
:101C70004B644FF400738B64C2F3801301F8193F77
:101C800093065B0E4B703A4B1A7A4B7843EAD213A9
:101C90004B7002F07F038B70354BDB681A0ED30953
:101CA000CB70C2F341130B71C2F382034B719307E4
:101CB0001B0F8B712E4BDB68C3F307428B7943EA12
:101CC00092138B71C2F34013CB7100230B7202F09D
:101CD00001034B72264B9B89C3F30722D3098B72F6
:101CE000C2F38013CB72C2F340130B73C2F3001321
:101CF0004B73C2F381038B7302F00303CB731C4B52
:101D00001A7B53080B7401234B741A4B1B681A0E71
:101D1000CA741939174B1B68C3F307421402CC85E8
:101D2000144B1B88C3F30722CB8D1343CB85114B78
:101D30001A7814060C635B681A0E0B6B43EA0244B4
:101D40000C630C4B5B68C3F307420B6B43EA022442
:101D50000C63084B9B88C3F307220B6B13430BE008
:101D6000A0040020241400209C0400200C14002057
:101D70009C130020AC1300200B63FE4B1A79342314
:101D80005A54FC4B9B681A0E35235A54F94B9B68E6
:101D9000C3F3074214068C63F64B1B89C3F3072277
:101DA0008B6B43EA02448C63F24B1A7A8B6B43EAE7
:101DB00002248C63EF4BDB681A0E8B6B13438B632F
:101DC000EC4BDB68C3F307423C235B5C43EA121431
:101DD0003C235C5413071C0DCC87E64B9B89C3F353
:101DE0000722CB8F1343CB87E24B1A7B5408402347
:101DF0005C54012441235C5430BD70B52A25DE4873
:101E0000446B01E0DC48446B04F045000028F9D045
:101E100004F0040028B10325042005F0B2FF284691
:101E200070BD04F0010028B10125012005F0A9FFD3
:101E30002846F5E740F2FF5005F0A3FF2846EFE7FC
:101E40002DE9F04106460F464FF02A08CA48456B77
:101E500001E0C948456B05F045000028F9D005F0C0
:101E6000040038B14FF00308042005F08AFF404613
:101E7000BDE8F08105F0010030B14FF0010801200C
:101E800005F07FFF4046F3E705F014FFB04203D0B2
:101E90004FF010084046EBE740F2FF5005F071FFAD
:101EA000002005F00BFF044604F4604018B9200C34
:101EB00038804046DCE704F4005008B11320D7E72F
:101EC00004F4804008B11020D2E704F4004008B1C7
:101ED0000F20CDE74046CBE738B52A2401200090FB
:101EE00005F0B9FE10B92524204638BDA348006886
:101EF000042829D00020A249086002204860C020A0
:101F000088600020C8604FF480600861084605F0D2
:101F1000B7FEFFF772FF04462A2C01D02046E4E703
:101F2000002005F0CBFE93490860042005F0C6FEB2
:101F300090494860082005F0C1FE8E4988600C2059
:101F400005F0BCFE8B49C8608C48006858B18B48CE
:101F50000068012807D089480068062803D0874810
:101F60000068022817D100208549086003204860D6
:101F7000402088600020C8604FF4806008610846F7
:101F800005F07EFE69460320FFF75AFF04462A2C1F
:101F900001D02046A9E77948006804282FD0BDF871
:101FA000000078490860BDF800000004744908602A
:101FB00009204860C02088600020C8604FF480601D
:101FC0000861084605F05CFEFFF717FF04462A2C5F
:101FD00001D0204689E7002005F070FE6A490860BC
:101FE000042005F06BFE68494860082005F066FE95
:101FF000654988600C2005F061FE6349C8602A24A9
:10200000204672E770B52A255B48446B01E05A48C8
:10201000446B04F045000028F9D004F0040028B116
:102020000325042005F0ADFE284670BD40F2FF50A8
:1020300005F0A7FE2846F8E770B52A264FF480354C
:102040004D48446B02E06D1E4B48446B04F0450064
:1020500008B9002DF7D115B104F0040028B103260A
:10206000042005F08EFE304670BD04F0400028B11B
:102070002A26402005F085FE3046F5E73046F3E796
:1020800070B52A254FF4803400E0641E24B180200E
:1020900005F06DFE0028F8D014B90325284670BD60
:1020A00040F2FF5005F06DFE2846F8E72DE9F041BB
:1020B0002A240026002500274FF00008B2203349CB
:1020C00008750020086048608860C860086108469C
:1020D00005F096FD032005F0B3FD012005F0ADFDF0
:1020E00000202749086048608860C8604FF480601D
:1020F0000861084605F0C4FDFFF7C2FF04462A2C1C
:1021000002D02046BDE8F0814FF4D5701C4908602C
:1021100008204860402088600020C8604FF480603C
:102120000861084605F0ACFDFFF786FF04462A2C3F
:1021300005D10120114908604FF0804812E00020CD
:102140000F49086037204860402088600020C86040
:102150004FF480600861084605F092FD3720FFF7D4
:1021600080FA044600200649086037204860402075
:1021700088600DE0AC130020008001409C0400202A
:1021800024140020A00400209C1300200C14002024
:102190000020C8604FF480600861084605F070FDBB
:1021A0003720FFF75EFA04462A2C4CD138E0002095
:1021B000FA49086037204860402088600020C860E5
:1021C0004FF480600861084605F05AFD3720FFF79C
:1021D00048FA04462A2C01D0204693E7F04848EA02
:1021E0000000EE49086029204860402088600020F7
:1021F000C8604FF480600861084605F041FDFFF7B4
:1022000001FF04462A2C01D020467BE7002005F080
:1022100055FD0646012080EAD67080F001076D1C4E
:102220001FB94FF6FF708542C1D34FF6FF7085424C
:1022300002D31B24204665E706F08040061E02D02C
:102240000220D849086020465CE710B52A24FFF731
:102250007AF905F0C7FCFFF729FF04462A2C01D0C4
:10226000204610BDFFF738FE04462A2C01D0204638
:10227000F7E70120CC4908750020086048608860B5
:10228000C8600861084605F0BBFC2A2C03D1C7488A
:10229000FFF748FC04462A2C06D1C449B1F84C107B
:1022A0000804FFF727FC04462A2C04D14FF40060F1
:1022B000FFF7D8FB04462A2C03D10020FFF7C5F90D
:1022C00004462046CDE770B504462A2514B92625D4
:1022D000284670BDB64800880004B04908600D204B
:1022E0004860402088600020C8604FF4806008612A
:1022F000084605F0C5FC0D20FFF7B3F905462A2D69
:1023000001D02846E5E7002005F0D8FC20602846EB
:10231000DFE708B501200090C102A64805F0CDFE18
:1023200008B1002000909DF8000008BD08B500200D
:102330000090FFF7EEFF01280AD16846FFF7C3FFC0
:102340002A2801D0FF2008BD0098C0F34320FAE7F7
:10235000FF20F8E710B50424FFF7E8FF0446042C3B
:1023600001D1002010BDFF2C01D10220FAE701208D
:10237000F8E710B52A24002005F062FC204610BDC5
:102380000146002002E04910421CD0B20129FAD1D6
:1023900070472DE9F04707460D4614464FF02A08CE
:1023A0004FF000092E464FF0000A25B94FF02608DD
:1023B0004046BDE8F0872A207F49087000207F4909
:1023C00008607F4908607F487F49086000204860B6
:1023D0008860C86008614861084605F07AFC002002
:1023E00005F04BFC002005F069FC00F0007018B10E
:1023F0004FF00E084046DCE76A480068022801D129
:1024000004027F0A002C21DDB4F5006F1EDC601E83
:102410002040D8B92046FFF7B3FF82465F480460EA
:1024200010205E494860402088600020C8604FF45A
:1024300080600861084605F023FC1020FFF711F9C1
:102440008046B8F12A0F05D04046B2E74FF0260883
:102450004046AEE75B485C490860084644604FEA86
:102460000A1088600220C8600020086101204861CD
:10247000084605F02EFC52480460002053490860CD
:102480005348056045480760112044494860402092
:1024900088600020C8604FF480600861084605F03D
:1024A000EFFB1120FFF7DDF88046B8F12A0F01D0CD
:1024B00040467EE747480068022857D111E04FF4B4
:1024C000004005F054FC60B14FF0000905E005F054
:1024D00022FC46F8290009F10109B9F1080FF6D3E9
:1024E00020363D48406B40F22A6108400028E6D083
:1024F000082005F03CFC30B1082005F042FC4FF00C
:102500000408404655E7022005F031FC30B10220B6
:1025100005F037FC4FF0020840464AE7202005F05E
:1025200026FC30B1202005F02CFC4FF00608404678
:102530003FE74FF4007005F01AFC38B14FF400701B
:1025400005F01FFC4FF00708404632E703E005F0B6
:10255000E2FB3060361D4FF4001005F008FC002847
:10256000F5D140F2FF5005F00CFC58E01948006826
:10257000012833D1012148F22A3005F071FB00BF58
:102580000E48006818B90C4800782A28F8D00A4884
:1025900000782A2843D0084800780AE7241400204D
:1025A000000010809C0400200C140020BC130020AC
:1025B000A0040020001C0140B8040020BC0400203E
:1025C000A8040020FFFF0F0038140020AC040020F6
:1025D000B4040020A404002000800140F8480068F2
:1025E000E8B9012140F22A3005F03AFB012005F05C
:1025F00044FB21462846FEF7F4FF00BFFFF71CF816
:1026000030B9F048006818B9EF4800782A28F5D0AA
:10261000ED4800782A2802D0EB480078C9E6404609
:10262000C7E62DE9F05F81460E4614461D464FF081
:102630002A084FF0000A37464FF0000B26B94FF03A
:1026400026084046BDE8F09F2A20DF490870002098
:10265000DC490860DD490860DD48DE49086000208B
:1026600048608860C86008614861084605F031FB31
:10267000002005F002FB002005F020FB00F00070B8
:1026800018B14FF00E084046DCE7D3480068022836
:1026900002D104024FEA5929002C21DDB4F5006F64
:1026A0001EDC601E2040D8B92046FFF769FE834635
:1026B000CA4804601020C949486040208860002052
:1026C000C8604FF480600861084605F0D9FA102010
:1026D000FEF7C7FF8046B8F12A0F05D04046B1E7A4
:1026E0004FF026084046ADE7012D70D905FB04F0F8
:1026F000B0F1007F03D34FF026084046A2E705FB68
:1027000004F0B24908600120B5490860B548066088
:10271000AF48B049086005FB04F048604FEA0B1071
:1027200088600220C86000200861012048610846D6
:1027300005F0CFFAA948C0F800901220A7494860D8
:10274000402088600020C8604FF48060086108461F
:1027500005F096FA1220FEF784FF8046B8F12A0FA2
:1027600001D040466EE79648006802287BD111E010
:102770004FF4004005F0FBFA60B14FF0000A05E0AD
:1027800005F0C9FA47F82A000AF1010ABAF1080F60
:10279000F6D320379448406B40F22A310840002895
:1027A000E6D0082005F0E3FA30B1082005F0E9FA98
:1027B0004FF00408404645E7022005F0D8FA38B14A
:1027C000022005F0DEFA4FF0020840463AE78AE0C0
:1027D000202005F0CCFA30B1202005F0D2FA4FF0DD
:1027E000060840462EE74FF4007005F0C0FA38B1F5
:1027F0004FF4007005F0C5FA4FF00708404621E796
:1028000003E005F088FA38603F1D4FF4001005F032
:10281000AEFA0028F5D14FF4807005F0A8FA18B38D
:102820006D48006838B16C480068022803D06A48D7
:102830000068012818D10020684908600C20486011
:10284000402088600020C8604FF48060086108461E
:1028500005F016FA0C20FEF704FF8046B8F12A0FA7
:1028600002D04046EEE604E040F2FF5005F089FA5F
:1028700039E053480068012813D1012148F22A3079
:1028800005F0EEF900BF4F48006818B94E480078CF
:102890002A28F8D04C4800782A2824D04A480078C2
:1028A000D0E647480068F0B9012140F22A3005F02F
:1028B000D7F9012005F0E1F905FB04F13046FEF7F8
:1028C00090FE00BFFEF7B8FE30B93E48006818B968
:1028D0003D4800782A28F5D03B4800782A2802D0C5
:1028E00039480078AEE64046ACE67CB504462A2579
:1028F0000020019000903D4800880004374908609E
:102900000D204860402088600020C8604FF480603F
:102910000861084605F0B4F93348406B009002E0C6
:102920003148406B0090009800F045000028F7D037
:10293000009800F0040028B10325042005F021FAD6
:1029400028467CBD009800F0010028B10125012037
:1029500005F017FA2846F4E705F0ACF90090009866
:102960000D2802D010252846EBE740F2FF5005F075
:1029700008FA002005F0A2F901900198C0F3432065
:1029800020701B490198084008B92846D9E70198EA
:1029900000F0004008B11C20D3E7019800F080400F
:1029A00008B10920CDE7019800F0005008B10A20D5
:1029B000C7E7019800F08050E0B10B20C1E70000AC
:1029C000A4040020BC040020B8040020A8040020B7
:1029D000FFFF0F00381400209C0400202414002066
:1029E000AC040020B404002000800140A0040020BA
:1029F00008E0FFFD019800F0006008B10C20A0E79E
:102A0000019800F0806008B10D209AE7019800F06D
:102A1000807008B10E2094E7019800F4000008B11E
:102A20000F208EE7019800F4800008B1102088E79D
:102A3000019800F4001008B1112082E7019800F419
:102A4000801008B112207CE7019800F4002008B142
:102A5000132076E7019800F4802008B1142070E775
:102A6000019800F4003008B115206AE7019800F4DD
:102A7000803008B1162064E7019800F4004008B1E6
:102A800017205EE7019800F4804008B1182058E74D
:102A9000019800F4005008B1192052E7019800F0A5
:102AA000080008B11A204CE728464AE72DE9FF5FE5
:102AB00082460F4614462A25002003900290834642
:102AC0000026019080460090B94627B92625284661
:102AD00004B0BDE8F09F2A20FE4908700020FE499E
:102AE0000860FE490860FE48FE4908600020486012
:102AF0008860C86008614861084605F0EAF800206F
:102B000005F0BBF8002005F0D9F800F0007010B116
:102B10000E252846DCE7F4480068022802D10402AA
:102B20004FEA5A2A002C20DDB4F5006F1DDC601E30
:102B30002040D0B92046FFF723FC0390EB48046007
:102B40001020EA494860402088600020C8604FF4A7
:102B500080600861084605F093F81020FEF781FDBB
:102B600005462A2D04D02846B2E726252846AFE799
:102B7000DF4800880004DD4908600D2048604020DF
:102B800088600020C8604FF480600861084605F046
:102B900077F80D20FEF765FD05462A2D01D0284661
:102BA00096E7002005F08AF80190DFF834B31EE0C4
:102BB000ABF1010BCE4800880004CC4908600D2021
:102BC0004860402088600020C8604FF48060086141
:102BD000084605F055F80D20FEF743FD05462A2D61
:102BE00001D0284674E7002005F068F801900198AC
:102BF00000F4807010B9BBF1000FD9D1BBF1000F08
:102C000001D1292064E7B948C0F800A01820B749CD
:102C10004860402088600020C8604FF480600861F0
:102C2000084605F02DF81820FEF71BFD05462A2D55
:102C300001D028464CE7A94804600020AD4908604F
:102C4000AD480760A648A749086008464460039855
:102C5000000188600020C8600861012048610846C2
:102C600005F037F8A548006802286BD139E04FF429
:102C7000804005F07CF8A0B398480068801B2028AD
:102C800020D296480078801B00F0030020B99348BA
:102C90000068801B800804E090480068801B800862
:102CA000401C00904FF0000808E0D9F8000005F043
:102CB00036F808F1010809F10409361D009880452D
:102CC0000FD2F2E74FF0000805E059F8280005F0B0
:102CD00026F808F10108B8F1080FF6D309F1200928
:102CE00020368748406B40F21A6108400028BED069
:102CF000082005F03CF828B1082005F042F804252A
:102D00002846E5E6022005F032F828B1022005F059
:102D100038F802252846DBE6102005F028F828B10F
:102D2000102005F02EF805252846D1E64FF4007056
:102D300005F01DF8F0B34FF4007005F022F80725F8
:102D40002846C5E66D480068012813D1012144F2E8
:102D50001A3004F085FF00BF5F48006818B95D486D
:102D600000782A28F8D05B4800782A2825D05948CE
:102D70000078ADE661480068E0B9012140F21A3000
:102D800004F06EFF21463846FEF700FC012004F0F7
:102D900074FF00BFFEF750FC30B94F48006818B907
:102DA0004C4800782A28F5D04A4800782A2804D0D0
:102DB000484800E001E000788AE640F2FF5004F065
:102DC000E0FF02A8FFF791FD054603E002A8FFF728
:102DD0008CFD05462A2D07D19DF808000728F5D05F
:102DE0009DF808000628F1D0284671E62DE9FE4F2F
:102DF00081468A4614461E462A254FF0000B0020C5
:102E0000029000270190C8460090B9F1000F03D14D
:102E100026252846BDE8FE8F2A202E49087000206E
:102E20002D4908602D4908602D482E490860002072
:102E300048608860C86008614861084604F049FF3E
:102E4000002004F01AFF002004F038FF00F00070AA
:102E500010B10E252846DDE723480068022802D17C
:102E600004024FEA5A2A002C20DDB4F5006F1DDC65
:102E7000601E2040D0B92046FFF782FA83461B48E7
:102E80000460102019494860402088600020C86014
:102E90004FF480600861084604F0F2FE1020FEF74F
:102EA000E0FB05462A2D04D02846B3E72625284610
:102EB000B0E70F48008800040C4908600D20486006
:102EC000402088600020C8604FF480600861084698
:102ED00018E00000B8040020BC040020A804002072
:102EE000FFFF0F00381400209C0400202414002051
:102EF000A0040020AC040020B0040020A4040020A2
:102F00000080014004F0BCFE0D20FEF7AAFB054640
:102F10002A2D01D028467DE7012E7AD906FB04F040
:102F2000B0F1007F02D32625284673E7FE480068EB
:102F300038B1FD480068012803D0FB48006802282A
:102F40002FD1FA4800880004F9490860372048600A
:102F5000402088600020C8604FF480600861084607
:102F600004F08EFE3720FEF77CFB05462A2D01D0AB
:102F700028464FE7EE4806601720ED49486040209C
:102F800088600020C8604FF480600861084604F043
:102F900077FE1720FEF765FB05462A2D01D028464F
:102FA00038E7E348C0F800A01920E1494860402014
:102FB00088600020C8604FF480600861084604F013
:102FC0005FFE1920FEF74DFB05462A2D01D028464D
:102FD00020E706FB04F0D74908600120D6490860C5
:102FE000D648C0F80090D648D649086006FB04F0E1
:102FF00048604FEA0B1088600020C860086101201B
:103000004861084604F065FECF480068022870D188
:103010003EE0D1E04FF4804004F0A9FEC0B3C548C3
:103020000068C01B202811D30020009007E0009901
:1030300058F8210004F073FE0098401C009000989E
:103040000828F4D308F12008203721E0B948007897
:10305000C01B00F0030020B9B6480068C01B800800
:1030600004E0B4480068C01B8008401C01900020A8
:10307000009009E0D8F8000004F051FE0098401CD0
:10308000009008F104083F1DDDE900108142F1D3F2
:10309000AE48406B40F21A3108400028BAD00820F0
:1030A00004F065FE28B1082004F06BFE04252846D4
:1030B000B0E6022004F05BFE28B1022004F061FEBD
:1030C00002252846A6E6102004F051FE28B1102063
:1030D00004F057FE052528469CE64FF4007004F0E6
:1030E00046FE38B14FF4007004F04BFE0725284629
:1030F00090E627E04FF4807004F039FE00285BD0A2
:103100008948006838B188480068012803D086489B
:103110000068022850D10020854908600C204860D2
:10312000402088600020C8604FF480600861084635
:1031300004F0A6FD0C20FEF794FA05462A2D3BD09C
:10314000284667E680480068012813D1012144F22F
:103150001A3004F085FD00BF7D48006818B97D482D
:1031600000782A28F8D07B4800782A2824D079488B
:1031700000784FE674480068F0B9012140F21A3037
:1031800004F06EFD012004F078FD06FB04F14846D2
:10319000FEF7FCF900BFFEF74FFA30B96C48006843
:1031A00018B96C4800782A28F5D06A4800782A288F
:1031B00002D0684800782DE640F2FF5004F0E1FDAF
:1031C0000020009002E00098401C00904FF6FF7134
:1031D00000988842F7D302A8FFF787FB054603E073
:1031E00002A8FFF782FB05462A2D07D19DF80800AB
:1031F0000728F5D09DF808000628F1D0284609E6F2
:103200005248406B00F4405008B101207047002044
:10321000FCE710B52A240020454908600C204860CE
:10322000402088600020C8604FF480600861084634
:1032300004F026FD0C20FEF714FA0446204610BDCB
:103240002DE9FC4105460E462A2400270020019066
:10325000009041484068202101EA105018B9252407
:103260002046BDE8FC8139484068C0B2801C3B491B
:10327000B1FBF0F00190002004F020FD00F00070A0
:1032800010B10E242046ECE727480068022801D13F
:103290006D0A760A2448006838B12348006801287E
:1032A00003D02148006802282DD121480560202044
:1032B0001F494860402088600020C8604FF480604B
:1032C0000861084604F0DCFC2020FEF7CAF9044639
:1032D0002A2C01D02046C4E7154806602120144955
:1032E0004860402088600020C8604FF4806008611A
:1032F000084604F0C5FC2120FEF7B3F904462A2C49
:1033000001D02046ADE7002009490860262048602A
:10331000402088600020C8604FF480600861084643
:1033200004F0AEFC26201BE09C040020A00400203A
:1033300024140020A8040020AC040020B0040020C5
:10334000FFFF0F0038140020A4040020008001407B
:10335000BC040020B80400209C130020C0D401004D
:10336000FEF77FF904462A2C01D0204679E7002792
:1033700000E07F1C01988742FBD36846FFF7B5FA4F
:10338000044603E06846FFF7B0FA04462A2C07D14A
:103390009DF800000728F5D09DF800000628F1D020
:1033A00020465EE770B504462A260025002004F07A
:1033B00085FC00F0007010B10E26304670BD402034
:1033C000EB49086010204860402088600020C860F9
:1033D0004FF480600861084604F052FC1020FEF7AC
:1033E00040F906462A2E01D03046E7E7E14800883A
:1033F0000004DF49086037204860402088600020D2
:10340000C8604FF480600861084604F039FC37203A
:10341000FEF727F906462A2E01D03046CEE7D648D9
:10342000D649086040204860602088600220C8605B
:103430000020086101204861084604F04AFC002091
:10344000CB4908600D204860402088600020C8609B
:103450004FF480600861084604F012FC0D20FEF76E
:1034600000F906462A2E01D03046A7E70EE04FF4B9
:10347000004004F07CFC48B1002504E004F04BFC63
:1034800044F825006D1C082DF8D32034BC48406B4F
:1034900040F22A6108400028E9D0082004F067FCC7
:1034A00028B1082004F06DFC0426304686E702208F
:1034B00004F05DFC28B1022004F063FC02263046D3
:1034C0007CE7202004F053FC28B1202004F059FCB4
:1034D0000626304672E74FF4007004F048FC30B125
:1034E0004FF4007004F04DFC0726304666E703E019
:1034F00004F011FC2060241D4FF4001004F037FC90
:103500000028F5D140F2FF5004F03BFC403C002580
:1035100015E014F82500000634F8251001F47F4169
:1035200040EA012054F8251001F47F0140EA1120FF
:1035300054F8251040EA116044F825006D1C102D48
:10354000E7D330463AE770B5002400258D4800687F
:10355000012867D1C00304F017FCA8B100BF06E042
:1035600004F0D9FB8849096841F82400641C082C40
:10357000F6D3854800682030834908608348006896
:103580002030824908604DE04FF4804004F0FCFB9D
:10359000002847D07E4800687C490968401A2028E6
:1035A0002BD27B48007879490968401A00F0030063
:1035B00030B97748006875490968401A800806E004
:1035C0007348006871490968401A8008401C054624
:1035D00000240FE06F490968086804F0A0FB641C30
:1035E0006C480068001D6B49086068480068001D51
:1035F00066490860AC42EDD314E0002406E065495A
:10360000096851F8240004F08AFB641C082CF6D3E6
:103610006048006820305F4908605C4800682030DE
:103620005A4908604FF4807004F0AEFBD8B3554897
:103630000068D0B10EE004F06EFB534909680860E1
:1036400051480068001D5049086050480068001D3E
:103650004E4908604FF4001004F089FB28B14B4834
:1036600000684B4909688842E5D34B480068012847
:1036700004D1FFF7CEFD4949087002E02A204749EE
:1036800008704FF4807004F089FB00214CF23A304E
:1036900004F0E6FA01204249086000203B49086036
:1036A0003E48007870BDFFE7022004F06DFB70B16A
:1036B000022004F073FB00214CF23A3004F0D0FAFF
:1036C000002032490860022034490870EAE70820E7
:1036D00004F05AFB70B1082004F060FB00214CF2AA
:1036E0003A3004F0BDFA00202849086004202B4934
:1036F0000870D7E7202004F047FB70B1202004F0C9
:103700004DFB00214CF23A3004F0AAFA00201F4988
:103710000860062021490870C4E7102004F034FB3B
:1037200070B1102004F03AFB00214CF23A3004F062
:1037300097FA002015490860052018490870B1E77C
:103740004FF4007004F020FB78B14FF4007004F0E7
:1037500025FB00214CF23A3004F082FA00200B499C
:10376000086007200D4908709CE72A209AE70000AE
:1037700024140020A0040020FFFF0F0038140020B4
:1037800000800140A4040020B4040020C0040020F4
:10379000A8040020B0040020AC040020B8040020DD
:1037A000BC04002008B50C20ADF8000003208DF803
:1037B000020010208DF803006946374804F0EAFB48
:1037C0000821354804F093FC0421334804F08FFCB1
:1037D00008BD10B50821304804F089FCC820FDF769
:1037E000F0FD04212C4804F082FCC820FDF7E9FD1F
:1037F0000821294804F07DFCC820FDF7E2FD0421E2
:10380000254804F076FCC820FDF7DBFD10BD10B59F
:103810000821214804F06DFC04211F4804F069FCD4
:10382000C820FDF7CEFD08211B4804F060FC0421F0
:10383000194804F05CFCC820FDF7C3FD10BD7047BB
:1038400010B50821144804F052FC0421124804F079
:103850004EFC10BD10B50446062C1AD2DFE804F069
:103860000306090C0F14FFF7B4FF13E0FFF7CFFFB7
:1038700010E0FFF7E4FF0DE0FFF7E2FF0AE00421AC
:10388000054804F036FC05E00421034804F02FFC51
:1038900000E000BF00BF10BD00100140F748006805
:1038A000F649496808447047014609B90020704745
:1038B000087B102801D10120F9E70020F7E700B5C7
:1038C00002461046FFF7F0FF08B9002000BD10695E
:1038D000FCE708B50B2007230122E9A10090EB4883
:1038E0000BF0A8FCE94808BD70B504460D4604B1CC
:1038F0000DB9012070BDAC4201D10020FAE705E00E
:10390000207808B90020F5E7641C6D1C20780BF0C6
:1039100066FC064628780BF062FC8642F0D02078E0
:103920000BF05DFC064628780BF059FC301AE1E7F5
:103930002DE9F04104460D460026002714B9002069
:10394000BDE8F08120460BF09CFF461C30462968FC
:10395000884707460FB90020F2E73246214638462D
:103960000BF0F9FF3846EBE738B9C949C94A11608D
:10397000C9495160C94991607047C549C54A11603C
:10398000016809B101681160C349C24A51604168C8
:1039900009B1416851600021BE4A91601146096831
:1039A000BB4A914207D1BB494968BB4A914202D107
:1039B000BA49B84A916000BFDEE770B504462820D6
:1039C0002168884705461DB1282128460CF05CF87F
:1039D000284670BD70B50446002522E02568A08900
:1039E00000F4807020B9A06810B1A068FFF7F2FF62
:1039F000A08900F4807028B9206918B1A54A20690F
:103A000051688847A08900F4007028B9206A18B16D
:103A1000A04A206A516888479E48416820468847E6
:103A20002C46002CDAD170BD2E2070472DE9F043D2
:103A300091B080460C4600BF00201090FFF7F4FFC5
:103A4000814600250CB1206818B9002011B0BDE8EE
:103A5000F08300253CE0A16820680844405D3428DC
:103A600020D00ADCA0F12B0009282ED2DFE800F0DC
:103A7000202D212A2D1617181900382816D006DCFB
:103A8000352810D036280FD037281ED10DE0392820
:103A90000DD045280FD0652817D10BE000BF00BF1F
:103AA00000BF00BF00BF00BF00BF00BF00BF00BF1E
:103AB00000BF00BF00BFA16820680844405D0DF84A
:103AC000050003E00DF8059000E00AE000BF6D1C62
:103AD0003F2D05D224B1A068284461688842BAD33A
:103AE00000BF00200DF8050010A968460EF0E8FAA6
:103AF00006460F4668461099884201D10020A5E786
:103B0000C8E90667664A674B304639460EF028FD1D
:103B100004D86FF00040C8F8140011E00022624B96
:103B2000304639460EF0E2FB04D84FF00040C8F8AA
:103B3000140005E0304639460EF07EFBC8F814004C
:103B40000820C8F80C00A0686A461099891A084431
:103B5000A06001207AE770B5064614461D46504A1B
:103B6000504B204629460EF0FBFC03D86FF0004076
:103B700070610FE000224C4B204629460EF0B6FB48
:103B800003D84FF00040706104E0204629460EF053
:103B900053FB706120462946C6E9064570BD2DE9F4
:103BA000F04104460D46002600270CB1206810B9EC
:103BB0000020BDE8F081606828B1D4E90110884296
:103BC00001D30020F5E7B5F1004F01D30020F0E765
:103BD000A068401C05446068A84203D3A16820681F
:103BE0000844E6E7206908B10020E2E7B5F1804F1C
:103BF00007D3B5F1004F02D26FF0004702E000207A
:103C0000D7E76F00206A60B13946226A2068904782
:103C10000646E6B9E16920688847002060602060B8
:103C2000C7E73846A1698847064636B9E169206882
:103C30008847002060602060BBE72EB1A068421C6E
:103C4000304621680BF087FEE1692068884767608D
:103C50002660A0683044ACE770B5044600250CB17E
:103C6000206800B970BDA1682068451828460BF08F
:103C700008FEA1680844A06000BFF3E7C404002068
:103C800025692E25692E25690000000050140020AA
:103C90007BF00008CC040020D9F0000827F10008D0
:103CA0000000C0FFFFFFDF410000E0C12DE9F04F41
:103CB0008BB082460D464FF00009DAE906780026FF
:103CC0000024FFF7B1FE83461DB900200BB0BDE80C
:103CD000F08F00221346384641460EF043FB002287
:103CE0001346CDE900010EF06BFA05D0F9A104A846
:103CF0000BF0A0FA06461BE03A464346F7A104A89B
:103D00000BF098FA064602AAF6A104A80BF042FCB2
:103D1000012806D13A464346DDE902010EF050FA89
:103D200006D03A464346F0A104A80BF083FA0646B3
:103D3000002E01DB192E01DD0020C7E7711C28468B
:103D4000FFF72DFF8146B9F1000F01D10020BDE73B
:103D500000240DE004A8005D584503D12E2009F889
:103D6000040004E004A8005D09F8040000BF641C1E
:103D7000B442EFD3002009F80400A8683044A860DA
:103D80000120A3E702460023002100BF23E0505C8E
:103D9000302806DB505C392803DC505C30380344A3
:103DA00015E0505C412806DB505C462803DC505C83
:103DB000373803440BE0505C612806DB505C662812
:103DC00003DC505C5738034401E0002070470329AE
:103DD00000D21B01491C0429D9D31846F6E72DE966
:103DE000FF5F80468946154600240026C246002013
:103DF0000390834602900190A9EB0A00062800DA9E
:103E000081E00AF10200FFF7BDFF0646B6F55C4F00
:103E100003D3B6F5604F00D275E0B6F5584F29D3FD
:103E2000B6F55C4F26D20AF10607002000900C2060
:103E30000290A9EB0700062800DA64E038785C28D5
:103E400002D17878752800D05DE0B81CFFF79AFFA2
:103E500000900098B0F55C4F03D30098B0F5604F28
:103E600000D350E0C6F30901009861F39F2000F5EC
:103E7000803402E0062002903446802C02D20120D9
:103E8000039018E0B4F5006F04D202200390C02024
:103E9000019010E0B4F5803F04D203200390E020AD
:103EA000019008E0B4F5881F04D204200390F020AC
:103EB000019000E027E00398401E00F0FF0B0BE0AC
:103EC00004F0BF0040F08000296801F80B00A4094D
:103ED000ABF1010000F0FF0BBBF1000FF0DC039829
:103EE000012804DD019820432968087003E004F0EC
:103EF0007F002968087029680398084428600298A0
:103F000004B0BDE8F09F0020FAE72DE9F84F8046A5
:103F10000C46A16820680844461CA1682068084433
:103F2000451C002000900027A1682068405C2228E2
:103F300000D0A6E04FF0000AD1460DE028785C28BA
:103F400009D1681C2168401A6168884200D398E052
:103F500009F101096D1C6D1C2068281A61688842EE
:103F600002D228782228E9D12068281A616888427C
:103F700002D22878222800D083E0A1682068084473
:103F8000281AA0EB090A0AF10100216988470746AF
:103F900007B976E0009761E030785C2807D016F822
:103FA000010B009908700098401C009056E04FF0FB
:103FB0000209A81B012800DA63E07078662819D08E
:103FC00008DC222832D02F2832D05C282FD062285B
:103FD00040D108E06E2814D0722819D074281ED061
:103FE000752837D12BE00820009908700098401CF4
:103FF000009030E00C20009908700098401C009060
:1040000029E00A20009908700098401C009022E0E6
:104010000D20009908700098401C00901BE00920BA
:10402000009908700098401C009014E000BF00BF89
:104030007078009908700098401C00900BE06A4668
:1040400029463046FFF7CBFE8146B9F1000F00D17B
:1040500017E000E015E000BF4E4400BFAE429BD326
:104060000020009908701020C8F80C00C8F81070E3
:104070002068281AA060A068401CA0600120BDE84C
:10408000F88F17B138466169884716B12068301A31
:10409000A0600020F3E72DE9F04707468A46002498
:1040A00000260025A046A146BAF1000F02D100204B
:1040B000BDE8F087F7B903215046FFF770FD0646CB
:1040C0000EB90020F4E70AA130460BF0B6FB012040
:1040D000EEE700006E756C6C0000000025312E319B
:1040E00035670000256C670025312E3137670000E9
:1040F000222200003C4622E020780C2811D006DC69
:1041000008280DD009280FD00A2810D10AE00D2860
:1041100009D0222802D05C2809D100E000BF00BFEE
:1041200000BF00BF00BF00BF09F1010905E0207812
:10413000202801DA09F1050900BF00BF641C2078BE
:104140000028D9D1E01B00EB090808F10301504613
:10415000FFF725FD06460EB90020A9E7B9F1000FCB
:104160000FD12220307042463946701C0BF0F3FB11
:10417000222108F1010031540021401C315401205A
:1041800096E722203070751C3C463DE020781F28C1
:1041900008DD2078222805D020785C2802D02078FD
:1041A00028702FE05C2005F8010B20780C2815D032
:1041B00006DC08280FD0092819D00A281AD110E0E7
:1041C0000D2811D0222803D05C2813D1287018E0C4
:1041D0002220287015E06220287012E066202870E6
:1041E0000FE06E2028700CE07220287009E0742027
:1041F000287006E02278F7A128460BF01BF82D1D49
:1042000000BF00BF641C6D1C20780028BED1222195
:1042100008F1010031540021401C3154012047E7CE
:1042200070B504460D4629462069FFF734FF70BD7E
:10423000014609B1086808B90020704702E08868A3
:10424000401C886041B1D1E90120904204D28A68C3
:104250000868805C2028F2DDD1E90120904202D17B
:104260008868401E88600846E7E710B504461CB120
:10427000206808B1A06808B1002010BD7CB1A0681A
:10428000001D616888420AD2A2682168881803224A
:10429000D2A10BF015FB10B9A068C01CA06020468D
:1042A000EBE72DE9F04180460C4600270025E06849
:1042B000B0F57A7F02D30020BDE8F081E068401CB1
:1042C000E06044B1D4E90110884204D2A1682068BA
:1042D000405C7B2800D07BE0A068401CA0602046AA
:1042E000FFF7A6FF4CB1D4E90110884205D2A168BE
:1042F0002068405C7D2800D15DE01CB1D4E901104C
:10430000884203D3A068401EA06061E0A068401E00
:10431000A06000BF04F11000FFF74FFB064606B98E
:1043200056E017B93746354602E02E6075603546CF
:10433000A068401CA0602046FFF77AFF214628466F
:10434000FFF7E3FD00B943E02046FFF771FF28695E
:1043500028620020286144B1D4E90110884204D2C7
:10436000A1682068405C3A2800D031E0A068401C79
:10437000A0602046FFF75CFF2146284600F0A8F821
:1043800000B925E02046FFF753FF44B1D4E90110FE
:10439000884204D2A1682068405C2C28BAD044B17D
:1043A000D4E90110884204D2A1682068405C7D28CD
:1043B00000D00DE000BFE068401EE0604020C8F87B
:1043C0000C00C8F80870A068401CA060012073E7CA
:1043D00017B13846FFF7FEFA00206DE72DE9F041EE
:1043E00007460C460026B046E068B0F57A7F02D357
:1043F0000020BDE8F081E068401CE060A168206812
:10440000405C5B2800D05DE0A068401CA0602046B6
:10441000FFF70EFF4CB1D4E90110884205D2A16824
:104420002068405C5D2800D141E01CB1D4E9011056
:10443000884203D3A068401EA06043E0A068401EED
:10444000A06000BF04F11000FFF7B7FA054605B9F8
:1044500038E016B92E46A84604E0C8F80050C5F862
:104460000480A846A068401CA0602046FFF7E0FE3C
:104470002146404600F02CF800B923E02046FFF723
:10448000D7FE44B1D4E90110884204D2A168206863
:10449000405C2C28D6D044B1D4E90110884204D223
:1044A000A1682068405C5D2800D00BE000BFE06898
:1044B000401EE0602020F860BE60A068401CA06044
:1044C000012096E716B13046FFF784FA002090E706
:1044D00070B505460C460CB1206808B9002070BDC7
:1044E000A4B1A068001D616888420FD8A268216845
:1044F00088180422AFF224410BF0E2F930B904200D
:10450000E860A068001DA0600120E8E79CB1A068F9
:10451000401D616888420ED8A2682168881805226B
:104520002FA10BF0CDF930B90120E860A068401D43
:10453000A0600120D3E7ACB1A068001D616888428B
:1045400010D8A26821688818042227A10BF0B8F9B6
:1045500040B90220E86001206861A068001DA060E9
:104560000120BCE76CB1D4E90110884209D2A168EE
:104570002068405C222804D121462846FFF7C5FC6C
:10458000ADE7BCB1D4E90110884213D2A16820681C
:10459000405C2D2809D0A1682068405C302809DBE8
:1045A000A1682068405C392804DC21462846FFF7D2
:1045B0003DFA94E7E4B1D4E90110884218D2A16829
:1045C0002068405C5B2813D121462846FFF706FF90
:1045D00085E700007525303478000000EFBBBF0090
:1045E00066616C7365000000747275650000000000
:1045F0006CB1D4E90110884209D2A1682068405CFE
:104600007B2804D121462846FFF74BFE67E70020B0
:1046100065E72DE9F04389B004460D4617461C2195
:1046200002A80BF031FA00260020F7490860486024
:1046300004B934E0029420460BF023F9401C0390A7
:1046400000200490F14A07CA06AB07C3EF48FFF702
:10465000B4F9064606B922E002A8FFF706FE814635
:10466000FFF7E6FD804641463046FFF731FF00B9CF
:1046700015E05FB102A8FFF7DBFDDDE9031088421A
:1046800003D204990298405C00B108E01DB104997E
:10469000029808442860304609B0BDE8F08316B19E
:1046A0003046FFF797F9C4B1009400200190DDE98E
:1046B0000310884202D20498019004E0039810B1DC
:1046C0000398401E01901DB1DDE9000108442860F7
:1046D000CD48DDE9001206C000BF0020DCE710B5C0
:1046E0000446002211462046FFF793FF10BD2DE936
:1046F000F04781460C4600250026D9F8087014B909
:104700000020BDE8F087606908B1022000E00120C8
:104710000646711C2046FFF742FA05460DB90020F7
:10472000EFE77B2005F8010BE068401CE060606962
:1047300010B10A2005F8010BA0683044A06069E0C0
:104740006069B8B12046E168FFF729FA05460DB95E
:104750000020D6E74FF0000804E0092005F8010B1F
:1047600008F10108E0684045F7D8D4E9020108449F
:10477000A06000BF2146386AFFF78DFC08B9002011
:10478000BFE72046FFF768FA606908B1022000E041
:104790000120064631462046FFF701FA05460DB9CD
:1047A0000020AEE73A2005F8010B606910B109203E
:1047B00005F8010BA0683044A0602146384600F09F
:1047C000A9F808B900209CE72046FFF745FA606980
:1047D00008B1012000E00020396809B1012100E0A2
:1047E00000214618711C2046FFF7D9F905460DB97E
:1047F000002086E7386810B12C2005F8010B6069AD
:1048000010B10A2005F8010B00202870A068304480
:10481000A0603F68002F93D1606910B1E068401C30
:1048200000E0022001462046FFF7B9F905460DB920
:10483000002066E7606950B1002003E0092105F817
:10484000011B401CE168491E8142F7D800BF7D2052
:1048500005F8010B00202870E068401EE060012090
:104860004FE72DE9F04107460C460025A846BE68F3
:1048700014B90020BDE8F08101212046FFF78FF92F
:1048800005460DB90020F5E75B202870A068401CA4
:10489000A060E068401CE06028E02146304600F05F
:1048A00039F808B90020E5E72046FFF7D5F9306868
:1048B000D8B1606908B1022000E00120804608F10B
:1048C00001012046FFF76BF905460DB90020D1E73D
:1048D0002C2005F8010B606910B1202005F8010BB0
:1048E00000202870A0684044A0603668002ED4D113
:1048F00002212046FFF753F905460DB90020B9E71C
:104900005D2005F8010B00202870E068401EE06083
:104910000120AFE72DE9F04104460E46002504B121
:1049200016B90020BDE8F081207B10285AD008DCA1
:1049300001281CD0022829D0042809D0082860D1D9
:1049400033E0202853D0402856D0802859D131E078
:1049500005213046FFF723F905460DB90020E1E7B0
:10496000AFF6900128460AF068FF0120DAE7062139
:104970003046FFF714F905460DB90020D2E7AFF233
:10498000A03128460AF059FF0120CBE70521304627
:10499000FFF705F905460DB90020C3E7AFF2B831BE
:1049A00028460AF04AFF0120BCE731462046FFF7BF
:1049B0007DF9B7E70027206908B90020B2E7206930
:1049C0000AF05FFF471C39463046FFF7E8F8054616
:1049D0000DB90020A6E73A46284621690AF0BBFF38
:1049E00001209FE731462046FFF71AFC9AE731463F
:1049F0002046FFF736FF95E731462046FFF777FE62
:104A000090E700208EE70000C4040020CC040020C2
:104A1000F0B589B007460E461446002524216846A5
:104A20000BF032F84FF480702168884700904FF403
:104A300080700190059694E8070006AB07C30098C4
:104A400000B933E069463846FFF764FF00B92DE04E
:104A50006846FFF701F9A06850B1029B591C009805
:104A6000A2689047054605B920E0002000901AE0B2
:104A7000029A501C21688847054605B916E0DDE911
:104A80000130401C834201D2019801E00298401C91
:104A90000246284600990AF05EFF002002996854F9
:104AA000009861688847284609B0F0BD009810B1A9
:104AB00000986168884715B12846616888470020DA
:104AC000F2E710B50446F84A01212046FFF7A0FF9F
:104AD00010BD10B50446F44A00212046FFF798FFA8
:104AE00010BD70B58AB006460C461546242101A8B3
:104AF0000AF0CAFF002C02DA00200AB070BDEA48B2
:104B00000168204688470190019808B90020F4E721
:104B100002940020039005900695E34A07CA07AB6C
:104B200007C301A93046FFF7F5FE28B9DE4A019810
:104B3000516888470020E0E70198DEE7F0B589B0CA
:104B400007460C4615461E46242168460AF09CFF7F
:104B5000002D00DB14B9002009B0F0BD00940195D0
:104B600000200290012004900596CF4A07CA06ABA8
:104B700007C369463846FFF7CDFEEDE70146002240
:104B8000002309B9002070478A6801E05B1C1268A5
:104B9000002AFBD11846F6E702460B4600210AB967
:104BA00000207047916801E05B1E096809B1002B85
:104BB000FAD10846F5E770B505460C46002C01DA37
:104BC000002070BD21462846FFF7E6FFF9E72DE9F2
:104BD000F04105460E461746002405B116B90020DF
:104BE000BDE8F081AC685FB100E024688CB1206A58
:104BF00078B13046216A0AF06FFF0028F5D108E04D
:104C000000E024682CB13046216AFEF76DFE0028D2
:104C1000F7D10CB1206A08B90020E1E72046DFE7B0
:104C200070B504460D46002229462046FFF7CFFF07
:104C300070BD70B504460D46012229462046FFF797
:104C4000C6FF70BD70B504460D4629462046FFF7E5
:104C5000E7FF08B1012070BD0020FCE7016048605B
:104C6000704770B505460E4600240DB9002070BD92
:104C70003046FEF7A2FE04460CB90020F7E72822D2
:104C8000294620460AF0ACFE00202062E06840F48D
:104C90008070E0600020606020602046E7E770B52B
:104CA00004460E46002506B10CB9002070BDA5686B
:104CB0000DB9A66008E000E02D6828680028FBD147
:104CC00031462846FFF7CAFF0120EFE770B50446DA
:104CD0000D4629462046FFF7E2FF70BD70472DE9DB
:104CE000F04707460D4614461E46DDF820904FF06B
:104CF0000008C2460FB105B114B90020BDE8F08725
:104D0000B9F1000F07D02846FFF7E8FF8046E068BA
:104D100040F4007A0CE031462846FEF709FE804652
:104D2000B8F1000F01D10020E8E7E06820F4007A34
:104D3000A08900F4007020B9206A10B1206A71685F
:104D40008847C4F82080C4F80CA021463846FFF7F5
:104D5000A6FFD3E7F8B504460D4616460020524B91
:104D60003246294600902046FFF7B9FFF8BDF8B556
:104D700004460D46164601204B4B3246294600900C
:104D80002046FFF7ACFFF8BD70B504460D4604B9E8
:104D900070BD45492846FFF764FF06463146204668
:104DA000FFF77DFF00BFF3E7F8B504460D46164652
:104DB00004B105B9F8BD3C493046FFF752FF07463C
:104DC0000020394B3A46294600902046FFF787FFDE
:104DD00000BFEFE710B53448FEF7EFFD04460CB115
:104DE0000420E060204610BDF8B504460D46FFF7EC
:104DF000F1FF064600202C4B324629460090204603
:104E0000FFF76DFF08B13046F8BD3046FEF7E2FD12
:104E10000020F9E710B52448FEF7CFFD04460CB199
:104E20000220E060204610BDF8B504460D46FFF7AD
:104E3000F1FF064600201C4B3246294600902046D2
:104E4000FFF74DFF08B13046F8BD3046FEF7C2FD12
:104E50000020F9E710B51448FEF7AFFD04460CB189
:104E60000120E060204610BDF8B504460D46FFF76E
:104E7000F1FF064600200C4B3246294600902046A2
:104E8000FFF72DFF08B13046F8BD3046FEF7A2FD12
:104E90000020F9E770B505460348FEF78EFD04468D
:104EA00034B11DB1022002E0CC0400200120E060FA
:104EB000204670BDF8B505460E4614462046FFF75D
:104EC000E9FF07460020F74B3A4631460090284656
:104ED000FFF705FF08B13846F8BD3846FEF77AFD02
:104EE0000020F9E770B505460E46EE48FEF765FD71
:104EF0000446F4B10820E060C4E90656EA4AEB4BE8
:104F0000284631460DF02CFB03D86FF0004060615D
:104F10000FE00022E64B284631460DF0E7F903D8B2
:104F20004FF00040606104E0284631460DF084F9FE
:104F30006061204670BD2DE9F84306460F461446D1
:104F40001D4620462946FFF7CDFF80460020D54B61
:104F50004246394600903046FFF7C1FE10B1404648
:104F6000BDE8F8834046FEF735FD0020F8E770B550
:104F70000546CC48FEF721FD04466CB11020E060E8
:104F8000C8492846FEF7D4FC2061206920B9204694
:104F9000FEF720FD002070BD2046FCE7F8B5054671
:104FA0000E4614462046FFF7E2FF07460020BD4BA1
:104FB0003A46314600902846FFF791FE08B1384640
:104FC000F8BD3846FEF706FD0020F9E770B5054646
:104FD000B448FEF7F2FC04466CB18020E060B149B1
:104FE0002846FEF7A5FC2061206920B92046FEF77F
:104FF000F1FC002070BD2046FCE7F8B505460E46E2
:1050000014462046FFF7E2FF07460020A54B3A462C
:10501000314600902846FFF762FE08B13846F8BDD9
:105020003846FEF7D7FC0020F9E710B59D48FEF79B
:10503000C4FC04460CB14020E060204610BDF8B529
:1050400004460D46FFF7F1FF06460020954B324619
:10505000294600902046FFF742FE08B13046F8BDD1
:105060003046FEF7B7FC0020F9E710B58D48FEF793
:10507000A4FC04460CB12020E060204610BDF8B529
:1050800004460D46FFF7F1FF06460020854B3246E9
:10509000294600902046FFF722FE08B13046F8BDB1
:1050A0003046FEF797FC0020F9E7024602B109B945
:1050B00000207047486810B1D1E900031860086803
:1050C00010B1D1E9003058609068884201D1086879
:1050D00090600020486008600846EAE770B5054621
:1050E0000C46002C01DA002070BD21462846FFF74F
:1050F00053FD064631462846FFF7D7FFF4E770B563
:1051000004460D4629462046FFF7E8FF0646FEF70F
:1051100061FC70BD70B504460D4629462046FFF778
:105120007FFD064631462046FFF7BFFF70BD70B5D4
:1051300004460D4629462046FFF77BFD06463146CC
:105140002046FFF7B2FF70BD70B504460D462946F4
:105150002046FFF7DFFF0646FEF73CFC70BD70B54A
:1051600004460D4629462046FFF7E1FF0646FEF7B6
:1051700031FC70BD2DE9F04106460F46144600256E
:10518000002F01DABDE8F08139463046FFF704FD13
:10519000054625B921463046FFF781FDF2E7256037
:1051A000686860606C60B068A84201D1B46001E0DA
:1051B0006068046000BFE5E770B506460D4614461A
:1051C0000EB104B10DB9002070BDAC4201D1012077
:1051D000FAE72868206068686060206808B1206885
:1051E0004460606808B160680460B068A84200D19B
:1051F000B4600020286068602846FEF7EBFB0120C1
:10520000E2E72DE9F04105460C461646002C01DA8E
:10521000BDE8F08121462846FFF7BEFC074632462E
:1052200039462846FFF7C8FF00BFF1E710B504462E
:105230001C4841682046884710BD2DE9F0410746CB
:105240000D4614461E4604B115B90020BDE8F08194
:10525000A08900F4007020B9206A10B1206AFFF71D
:10526000E5FF10492846FEF763FB2062E06820F462
:105270000070E060324629463846FFF7A8FC8046B9
:10528000224641463846FFF797FF0120DEE770B51A
:1052900004460D4616460023324629462046FFF7AF
:1052A000CCFF70BDCC0400200000C0FFFFFFDF4139
:1052B0000000E0C170B504460D4616460123324693
:1052C00029462046FFF7B9FF70BD70B50546FE4878
:1052D000FEF773FB044634B14FF48870E060284653
:1052E000FFF7FCFC2061204670BD70B50546F6480E
:1052F000FEF763FB044634B14FF4A070E06028462B
:10530000FFF7ECFCA060204670BD70B50546EE4886
:10531000FEF753FB044634B14FF49070E06028462A
:10532000FFF7DCFCA060204670BD2DE9F05F06466B
:10533000894600240025A346A246B9F1000F00DBF0
:1053400016B90020BDE8F09FFFF78FFE82460024CB
:1053500017E056F824000CF09EFF0746FFF7C2FD49
:10536000054625B95046FEF735FB0020EAE714B99B
:10537000CAF8085003E029465846FFF76FFCAB46D1
:10538000641CBAF1000F01D04C45E2D35046D9E776
:105390002DE9F05F0646894600240025A346A24673
:1053A000B9F1000F00DB16B90020BDE8F09FFFF750
:1053B0005CFE8246002417E056F824000DF006F942
:1053C0000746FFF78FFD054625B95046FEF702FB5D
:1053D0000020EAE714B9CAF8085003E02946584605
:1053E000FFF73CFCAB46641CBAF1000F01D04C4502
:1053F000E2D35046D9E72DE9F04706460F46002490
:105400000025A146A046002F00DB16B90020BDE80C
:10541000F087FFF72AFE8046002417E006EBC40061
:10542000D0E900211046FFF75DFD054625B940464D
:10543000FEF7D0FA0020EAE714B9C8F8085003E0F4
:1054400029464846FFF70AFCA946641CB8F1000F3C
:1054500001D0BC42E2D34046D9E72DE9F0470646E9
:105460000F4600240025A146A046002F00DB16B9F8
:105470000020BDE8F087FFF7F8FD8046002414E027
:1054800056F82400FFF773FD054625B94046FEF7A0
:10549000A1FA0020EDE714B9C8F8085003E0294646
:1054A0004846FFF7DBFBA946641CB8F1000F01D0AA
:1054B000BC42E5D34046DCE72DE9F0470446894687
:1054C00000250027A846002604B948E07E48FEF7DC
:1054D00074FA054605B942E0E06820F48070E8609F
:1054E00060696861D4E90601C5E90601206938B13F
:1054F00075492069FEF71CFA2861286900B92EE079
:10550000206A68B1A08900F4007008B1206A03E045
:105510006D49206AFEF70CFA2862286A00B91EE07D
:10552000B9F1000F02D12846BDE8F087A76812E064
:1055300001213846FFF7C0FF064606B90FE0B8F173
:10554000000F05D0C8F80060C6F80480B04601E03E
:10555000AE60B0463F68002FEAD12846E4E715B1B7
:105560002846FEF737FA0020DEE70168891C016053
:105570000AE0016809780A2903D10168491C016021
:1055800070470168491C0160016809780029F0D161
:1055900000BFF5E70168891C01600EE00168097829
:1055A0002A2907D1016849782F2903D10168891C6C
:1055B000016070470168491C016001680978002991
:1055C000ECD100BFF5E7026812780B681A70026828
:1055D000521C02600A68521C0A6028E002681278B5
:1055E0000B681A7002681278222A08D10B681A70A8
:1055F0000268521C02600A68521C0A607047026806
:1056000012785C2A0DD102685278222A09D10268E8
:1056100052780B685A700268521C02600A68521C69
:105620000A600268521C02600A68521C0A60026822
:105630001278002AD2D100BFE0E701B582B002980B
:105640000190029800B90EBD38E002980078202839
:105650000CD006DC09280AD00A280AD00D2821D14E
:1056600006E0222819D02F281CD106E000BF00BF79
:1056700000BF0298401C02901FE0029840782F283B
:1056800003D102A8FFF771FF06E0029840782A28AC
:1056900002D102A8FFF77EFF0FE001A902A8FFF7E1
:1056A00092FF0AE002980078019908700298401C65
:1056B00002900198401C019000BF00BF0298007842
:1056C0000028C2D1019901E0CC040020087000BF7D
:1056D000B9E7014609B900207047087B08B90120E5
:1056E000FAE70020F8E7014609B900207047087B77
:1056F000012800D1FAE70020F8E7014609B90020A7
:105700007047087B022801D10120F9E70020F7E764
:10571000014609B900207047087B00F0030008B17A
:105720000120F8E70020F6E7014609B9002070479C
:10573000087B042801D10120F9E70020F7E70146A2
:1057400009B900207047087B082801D10120F9E73A
:105750000020F7E7014609B900207047087B2028A0
:1057600001D10120F9E70020F7E7014609B900203F
:105770007047087B402801D10120F9E70020F7E7B6
:10578000014609B900207047087B802801D101201B
:10579000F9E70020F7E72DE9F047044689469246ED
:1057A0005CB1B9F1000F08D0207B99F80C10884249
:1057B00003D12046FFF78DFF10B10020BDE8F08730
:1057C000207B102814D008DC01280DD002280CD032
:1057D00004280BD008280FD109E020280AD040283F
:1057E00009D0802808D104E000BF00BF00BF00BF7F
:1057F00000BF00BF00BF01E00020DFE700BF4C4555
:1058000001D10120DAE7207B102821D008DC012813
:105810000DD002280CD004280BD008287DD10AE036
:10582000202827D040283CD0802876D111E000BF26
:1058300000BF0120C2E7D9E906532A46D4E9067120
:1058400038460CF0BDFC01D10120B7E70020B5E7D8
:1058500000BF206910B1D9F8100008B90020ADE7E9
:10586000D9F8101020690AF037F908B90120A5E726
:105870000020A3E7A568D9F8086009E05246314640
:105880002846FFF788FF08B9002097E72D6836689B
:105890000DB1002EF2D1B54201D000208EE70120DB
:1058A0008CE7002500260CB1A06800E0002005462A
:1058B00011E052464846296AFFF789F906460EB9B3
:1058C00000207BE7524631462846FFF764FF08B9BF
:1058D000002073E72D68002DEBD1B9F1000F02D045
:1058E000D9F8080000E00020064612E052462046A3
:1058F000316AFFF76CF9054615B900205EE70CE048
:10590000524629463046FFF746FF08B9002055E7C2
:105910003668002EEAD1012050E700204EE710B58E
:105920000446024801682046884710BDCC04002088
:1059300010B596B05822924968460AF051F891483D
:1059400000F06BF904208DF808008FA0039014205C
:10595000ADF8180001208DF81A008DA010908FA0CE
:1059600013906A46FF21904807F0DFFE84B200F0F2
:105970003FF978B98D4909680868804700F038F91F
:1059800040B90020884981F80601084690F80601D0
:1059900016B010BD85490968C8688047834800680B
:1059A00083A1826884A090476420FBF70AFD7F48AA
:1059B0000068214602697C4890474FF49670FBF7D7
:1059C00000FD7A480068FF214269774808F08BF9AA
:1059D000022804D10120744981F8060103E0002067
:1059E000714981F80601704890F80601D0E710B5BA
:1059F000FF216D4807F0A5FF84B26C48006821467E
:105A00000269694890470020674981F8060110BD86
:105A1000F0B58BB004460D4616460020089009905C
:105A20000A900894CDE9055608A807C802AB07C339
:105A30000020009003460246FF2101905A4808F0DA
:105A400034FA87B259480068394602695648904787
:105A500001200BB0F0BD70B588B000200590069015
:105A600007900125049058A0059004A805A90122DB
:105A70002B46CDE9002102900022FF214A4808F080
:105A8000E1FA86B2494800683146026946489047C3
:105A90004FF49670FBF795FC44480068FF2142697B
:105AA000414808F020F9092801D1012400E0002430
:105AB000204608B070BD10B53B4890F8060101289B
:105AC0002BD1394890F80701032806DD002036491C
:105AD00081F8060181F807011FE03E480088401C5C
