:020000040800F2
:10000000B01F0020F93A0008D5060008D7060008FE
:10001000DB060008DF060008E30600080000000019
:10002000000000000000000000000000E7060008DB
:10003000E906000800000000EB060008ED060008D5
:10004000133B0008133B0008133B0008133B000858
:10005000133B0008133B0008133B00080707000888
:10006000133B0008133B0008133B0008133B000838
:10007000133B0008133B0008133B0008133B000828
:10008000133B0008133B0008133B0008230700083C
:100090002B070008133B0008133B0008133B000824
:1000A000133B0008133B0008133B0008133B0008F8
:1000B0003307000855070008133B0008133B0008EE
:1000C000133B0008133B0008133B0008133B0008D8
:1000D000133B0008C311000827130008133B000856
:1000E000133B0008133B0008133B0008133B0008B8
:1000F000133B0008133B0008133B0008133B0008A8
:10010000133B0008FF060008133B0008133B0008E0
:10011000133B0008133B0008133B0008133B000887
:10012000133B0008133B0008133B0008133B000877
:1001300000F002F800F0B0F80AA090E8000C824449
:100140008344AAF10107DA4501D100F0A5F8AFF226
:10015000090EBAE80F0013F0010F18BFFB1A43F0A5
:1001600001031847E0820300008303000A444FF0B4
:10017000000C10F8013B13F0070408BF10F8014B06
:100180001D1108BF10F8015B641E05D010F8016B4B
:10019000641E01F8016BF9D113F0080F1EBF10F8AF
:1001A000014BAD1C0C1B09D16D1E58BF01F801CBD2
:1001B000FAD505E014F8016B01F8016B6D1EF9D555
:1001C0009142D6D37047000000230024002500266A
:1001D000103A28BF78C1FBD8520728BF30C148BFAA
:1001E0000B6070476E290BF0508770290BF0A183CC
:1001F00066290DF0058265290DF0028267290DF050
:10020000FF816129AFF3008003681B0A28BF41F01A
:10021000800169290BF0128364290BF00F83752983
:100220000BF00C836F290CF0568278290BF06D834C
:10023000E9290CF0F181E4290CF0EE81F5290CF0AC
:10024000EB81EF290CF05382F8290BF06C830368E3
:10025000DB0928BF41F0800163290CF0608173291C
:100260000CF06581E3290CF03183F3290CF036831F
:10027000002070471FB50CF08DFA0400002000210B
:100280000DF092F9401C6060002000210DF0A2F9F1
:10029000E0601FBD10B510BD0CF074FD1146FFF7F6
:1002A000E9FF00F09CF80CF092FD03B4FFF7F2FFB9
:1002B00003BC00F01DFF000010B50446214692A0CB
:1002C0000BF04AFA322C6ED2DFE804F019232D37F6
:1002D000414D595A5B5C5D5E5F6061626364656657
:1002E0006768696A6B6C6E6F70717273747576771C
:1002F00078797A7B7C7D7E7F80818283848586A0ED
:100300000BF02AFA02218BA000F0BEFD03F09DFA4B
:1003100063E08BA00BF020FA022186A000F0B4FD70
:1003200003F0B1FA59E08CA00BF016FA022181A07B
:1003300000F0AAFD03F0BFFA4FE08EA00BF00CFA1C
:10034000022192A000F0A0FD03F0B6FA45E092A0D1
:100350000BF002FA022196A000F096FD04219748C6
:1003600004F0F1FF39E096A00BF0F6F9022187A026
:1003700000F08AFD0421914804F0E3FF2DE02CE019
:100380002BE02AE029E028E027E026E025E024E031
:1003900023E022E021E020E01FE01EE01DE01CE061
:1003A0001BE01AE019E017E017E016E015E014E092
:1003B00013E012E011E010E00FE00EE00DE00CE0C1
:1003C0000BE00AE009E008E007E006E005E004E0F1
:1003D00003E002E001E000E000BF00BF10BDADF5AA
:1003E0000C7D002400F0F4FF322001F026F84FF4D9
:1003F000E13000F0A3FE4FF4E13000F03BFF00F0ED
:100400009DFA03F00BFA01F05CFF292802D172A0DB
:100410000BF0A2F9002008F00BF96946002009F062
:1004200029FB73A00BF098F979A00BF095F97CA04B
:100430000BF092F97DA00BF08FF97FA00BF08CF9F7
:1004400080A00BF089F983A00BF086F984A00BF053
:1004500083F986A00BF080F987A00BF07DF932209C
:100460000AF0DFFA10B187A00BF076F964228AA1B6
:100470008CA00AF0ACFA18B98D498EA00BF06CF97B
:10048000322189A80AF066FA18B9894989A00BF0C7
:1004900063F9022189A000F0F7FC00208B49087065
:1004A00030E08B48007800B12CE000F065F9874817
:1004B0000078102815D003DC48B101281BD104E0D6
:1004C000112819D0312816D100E000BF18E0012012
:1004D0007E49087000F03CFA10B931207B49087061
:1004E0000EE000F099FD04462046FFF7E5FE0020EF
:1004F0007649087004E000BF00207449087000BF0E
:1005000000BF00BFCDE700000D0ACAB6B1F0C2EBD4
:100510003A25640D0A000000A1B0C1F7CBAEB5C604
:10052000A1B1C3FCC1EECAB6B1F0B3C9B9A60D0AF8
:1005300000000000BFAACCA8B5C62E6D7033000025
:10054000A1B0C9C1CBB8A1B1C3FCC1EECAB6B1F06C
:10055000B3C9B9A60D0A0000A1B0B0B4BCFCB4A5E3
:10056000B7A2A1B1C3FCC1EECAB6B1F0B3C9B9A676
:100570000D0A0000A1B0C8ABC3F0A1B1C3FCC1EE2D
:10058000CAB6B1F0B3C9B9A60D0A0000B9D8B5C64C
:100590002E6D703300000000A1B0BFAAB5C6A1B196
:1005A000C3FCC1EECAB6B1F0B3C9B9A60D0A0000CA
:1005B000BFAAB5C62E6D70330000000000100140C8
:1005C000A1B0B9D8B5C6A1B1C3FCC1EECAB6B1F0ED
:1005D000B3C9B9A60D0A00005344BFA8BDD3BFDA02
:1005E000B3F5CABCBBAFCAA7B0DC0D0A000000005F
:1005F000BBF9D3DAB5A5C6ACBBFAB5C4D6C7C4DC63
:10060000D3EFD2F4BFD8D6C6CFB5CDB30D0A000014
:10061000B3F5CABCBBAFCDEAB3C90D0A00000000F8
:10062000BFDAC1EEA3BA0D0A0000000030A1A2C1DA
:10063000F7CBAEB5C60D0A0031A1A2C9C1CBB80D2A
:100640000A00000032A1A2B0B4BCFCB4A5B7A20D50
:100650000A00000033A1A2C8ABC3F00D0A000000DD
:1006600034A1A2BFAAB5C60D0A00000035A1A2B9E7
:10067000D8B5C60D0A000000455350383236360D45
:100680000A00000045535038323636D6D8C6F4CA70
:10069000A7B0DCA3A10D0A006A6B7879313233343C
:1006A0000000000035303673757065720000000080
:1006B000D403002025730D0A00000000C6F4B6AF75
:1006C000CFB5CDB32E6D70330000000000000020C8
:1006D00085000020704700BFFEE700BFFEE700BFB7
:1006E000FEE700BFFEE77047704770471F4800886D
:1006F00020B11E480088401E1C490880704710B574
:1007000002F05DFF10BD10B5022004F0F3FC38B11B
:1007100000F012FB022004F0E9FC022004F0FBFCD4
:1007200010BD10B506F061FA10BD10B507F062FB00
:1007300010BD10B50E48008840F400400C490880F8
:1007400000214FF0804004F099F80121880704F05F
:100750006FFB10BD10B50121064804F058FB18B11D
:100760000121044804F064FB10BD000002000020D9
:10077000960000200004004010B54FF40041884866
:1007800004F0C5FDB0B906F0E0FE06F012FF06F079
:1007900048FF06F0B3FE06F099FE06F085F800BFAC
:1007A000804800680528FBD106F003FF04F02EFC0A
:1007B00000BFFEE710BD00B587B0012148F2080078
:1007C00004F0DBFF0121784804F0DFFD3820ADF8AC
:1007D000040003208DF8060018208DF8070001A9F9
:1007E0006F4804F001FD4FF40070ADF804000320E1
:1007F0008DF8060010208DF8070001A9684804F064
:10080000F3FC4FF48071664804F09BFD00216748BB
:1008100005F0D5F80020ADF808004FF48270ADF86F
:100820000A000020ADF80C000220ADF80E000020F8
:10083000ADF810004FF40070ADF812002820ADF8AC
:1008400014000020ADF816000720ADF8180002A92A
:10085000564805F00FF80121544805F0B0F807B0EC
:1008600000BD1FB50121102004F07AFF0220ADF871
:10087000000004208DF8030003208DF80200694673
:100880004B4804F0B1FC0121022004F0C3FD02201A
:10089000029000208DF80C000C208DF80D00012036
:1008A0008DF80E0002A804F0BFFB022004F00BFC40
:1008B00002213F4804F045FD022004F017FC02200D
:1008C00004F029FC07208DF8040000208DF80500B5
:1008D0008DF8060001208DF8070001A803F031F91A
:1008E0001FBD08B50121052004F03AFF4FF48070C8
:1008F000ADF8000018208DF8030003208DF80200E9
:1009000069462C4804F070FC072004F064FF0121C4
:100910003C2004F025FF4FF4E070ADF80000032008
:100920008DF8020010208DF8030069461C4804F081
:100930005BFC80211A4804F004FD08BD10B5FFF7E8
:10094000D0FFFFF78EFFFFF736FF00F035F810BD40
:1009500070B50024002500BF1DE000F0D2FA32205F
:1009600000F06BFD00F00EFB28B900F025F83220F6
:1009700000F063FD0DE00A2000F05FFD00F0C5FA15
:1009800028B900F019F8322000F057FD01E00125E8
:1009900003E0601CC4B2052CDFDB00BF284670BD3D
:1009A000000C0140C002002000023000003C00406A
:1009B000001001400008014010B54021F74804F044
:1009C000C0FC642000F039FD4021F44804F0BBFC79
:1009D000642000F032FD4021F04804F0B2FC6420B5
:1009E00000F02BFD4FF48071EC4804F0ACFC642067
:1009F00000F023FD4FF48071E84804F0A2FC64206D
:100A000000F01BFD10BD10B5062000F050FB352195
:100A1000172000F030FB052000F00FFD062000F04D
:100A200046FB0321892000F026FB052000F005FD90
:100A30004321CF2000F01FFB052000F0FEFC022127
:100A4000CB2000F018FB1121084600F014FBD4481D
:100A50000078402810D100211E2000F00CFB0F214F
:100A6000192000F008FB18211B2000F004FB2C21AA
:100A70001D2000F000FB0FE000211E2000F0FBFA1B
:100A80003F21192000F0F7FA48211B2000F0F3FA6B
:100A90001F211D2000F0EFFA052000F0CEFC0421FC
:100AA000CD2000F0E8FA4C21172000F0E4FA0120F4
:100AB00000F0C3FC0021B92000F0DDFA4F21CF2067
:100AC00000F0D9FAFF216F2000F0D5FA10BD10B563
:100AD0000820B3490870FFF796FF0021BD2000F001
:100AE000CAFA4821172000F0C6FA052000F0A5FC3C
:100AF00080213C2000F0BFFA07213E2000F0BBFA25
:100B0000FF21382000F0B7FA07213A2000F0B3FAAD
:100B10000021402000F0AFFA0821422000F0ABFA9B
:100B20000021442000F0A7FA0821462000F0A3FA93
:100B3000012000F082FC10BD10B5402098490870DB
:100B4000FFF761FF0221BD2000F095FA4821172030
:100B500000F091FA0A2000F070FC5221852000F08C
:100B60008AFA00218F2000F086FA0021812000F00F
:100B700082FA0021832000F07EFAFF218E2000F00F
:100B80007AFAFF218D2000F076FA012000F055FC62
:100B9000FF21872000F06FFAFF21892000F06BFA17
:100BA000012000F04AFC0021222000F064FA00211C
:100BB000232000F060FAEF21202000F05CFA0721EA
:100BC000212000F058FA7721242000F054FA032164
:100BD000252000F050FABB21262000F04CFA01211C
:100BE000272000F048FA10BD70B50025062000F05F
:100BF0005EFA044608E0FF21012000F03CFA6D1C7B
:100C0000062000F054FA044604F008000028F2D050
:100C100070BD10B50020634908600120624908706A
:100C20006048006861490968884200D310BDFFF739
:100C3000DBFF0021BA2000F01EFA4821172000F047
:100C40001AFA0121332000F016FA0421292000F0BD
:100C500012FA0121022000F00EFA5A21852000F03C
:100C60000AFA00BFE2E710B50446C4F10F0000071E
:100C7000840E44F0C3018E2000F0FDF97821872016
:100C800000F0F9F910BD38B5062000F010FA04465E
:100C900013E044480068401C42490860012269464C
:100CA0004348006807F02FFD9DF80010012000F078
:100CB000E2F9062000F0FBF9044604F0080028B928
:100CC00038480068394909688842E2D935480068DF
:100CD0003649096888422ED30121BC2000F0CBF9A7
:100CE0001021292000F0C7F900BFBA2000F0DFF979
:100CF00000F020000028F8D000212B2000F0BBF9E4
:100D00000021BA2000F0B7F90021BC2000F0B3F9AF
:100D10000020254908700121082000F0ACF90021CD
:100D2000082000F0A8F90021332000F0A4F92048A1
:100D3000006807F0DDFC38BD10B500242B2000F062
:100D4000B6F91C49087016480078082843D10021DC
:100D5000292000F090F90021022000F08CF91548BC
:100D6000007800F0100048B3B22000F0A0F921286C
:100D700025D1BF2000F09BF9352820D1BA2000F002
:100D800096F90446002C05DD042C03DC10200A49EA
:100D9000087017E011200849087013E0000C0140AA
:100DA0008400002080000020850000207C000020BE
:100DB0008C0000208600002000000020FFE71120AA
:100DC0009849087000212B2000F055F900211C20C3
:100DD00000F051F910BD292000F069F9924908701E
:100DE000022000F064F9914908700021292000F0E8
:100DF00042F90021022000F03EF9BA2000F057F934
:100E000000F02000F8B100212B2000F034F900217F
:100E1000BA2000F030F90021BC2000F02CF90020AD
:100E2000834908700121082000F025F900210820DD
:100E300000F021F90021332000F01DF97D48006801
:100E400007F056FCC6E77C4800687C490968884280
:100E50000CD30121BC2000F00EF91021292000F054
:100E60000AF97448006807F043FCB3E7FFF70BFF8B
:100E70006D480178292000F0FEF86C4801780220C6
:100E800000F0F9F800BFA5E770B505460C46002252
:100E90001146284607F018FC6649086008460068B5
:100EA000401C30B90846006807F022FC6148006821
:100EB00070BD01205E4908705E48006807F062FC62
:100EC000401E5E490860FFF737FE2046FFF7CBFE65
:100ED000FFF79FFE0020EBE770B5002500240BE034
:100EE000B22000F0E4F8212801D1012506E00A2013
:100EF00000F0A3FA601CC4B20A2CF1DB00BF284644
:100F000070BD10B5FFF7E3FD10BD10B543213520CE
:100F100000F0B1F809211C2000F0ADF82021BD201F
:100F200000F0A9F80121082000F0A5F8012000F048
:100F300084FA0021082000F09EF8012000F07DFADC
:100F4000FFF7CAFF08B9002010BDFF21B22000F052
:100F500092F80621372000F08EF80621372000F0A5
:100F60008AF8052000F069FA0B211C2000F083F8B4
:100F70001021292000F07FF80021BD2000F07BF82F
:100F80000120E1E770B50126002440E0FFF7A4FF4F
:100F900008B900263DE02146C12000F06CF8002190
:100FA000C32000F068F80421082000F064F8012054
:100FB00000F043FA0021082000F05DF8012000F065
:100FC0003CFA002512E004EB84001D4901EB80008F
:100FD000405D00B90CE004EB8400194A02EB80008C
:100FE000415D052000F047F8681CC5B2142DEADB0E
:100FF00000BF2946B92000F03EF8FF21B22000F0E2
:101000003AF80421372000F036F8601CC4B2062CF0
:10101000BCDB00BF304670BD10B5C52000F047F8FE
:1010200010BD000000000020870000208800002084
:10103000850000208C000020800000207C00002023
:101040000400002010B5044600BF0221264804F029
:101050003AFD0028F9D02146234804F0E1FC00BF06
:101060000121214804F02FFD0028F9D01E4804F08A
:10107000D9FCC0B210BD70B505460C464FF4807166
:101080001A4804F060F94FF40071184804F05BF955
:101090000420FFF7D7FF2846FFF7D4FF2046FFF7CD
:1010A000D1FF4FF48071114804F04BF970BD70B559
:1010B00004464FF480710D4804F045F94FF4007177
:1010C0000A4804F040F90520FFF7BCFF2046FFF76F
:1010D000B9FF0020FFF7B6FF05464FF480710348C3
:1010E00004F02FF9284670BD003C0040000C014080
:1010F000014600BF704700BF504A128802F040020C
:10110000002AF9D0C2B24D4B1B1D1A807047014610
:1011100000BF704708B54FF4E06002F00DFD2520D8
:101120008DF8000003208DF801008DF802000120E9
:101130008DF80300684602F004FD08BD10B586B0C6
:101140000446012144F2040004F00AFB3B4802F08B
:1011500061FD4FF40070ADF8140003208DF8160007
:1011600018208DF8170005A9354804F03DF84FF414
:101170008060ADF8140004208DF8170005A93048F0
:1011800004F032F801940020ADF80800ADF80A0030
:10119000ADF80C00ADF810000C20ADF80E0001A960
:1011A000264802F07AFD012240F22551234802F040
:1011B0000CFE0121214802F0FCFDFFF7ABFF06B059
:1011C00010BD10B540F225511C4802F0E3FE10B3EB
:1011D0001A4802F05FFEC4B21A48008800F40040CA
:1011E000C8B91848008800F4804060B10A2C03D0C8
:1011F00000201449088020E01248008840F4004094
:101200001049088019E00D2C06D10E48008840F4E2
:1012100080400C49088010E00A480088C0F30D00A7
:1012200009490C5407480088401C064908800846B4
:101230000088FF2801DD0020088010BD0038014033
:101240000008014094000020D402002008B54FF4AB
:10125000E06002F071FC26208DF8000002208DF87D
:1012600001008DF8020001208DF80300684602F0AD
:1012700068FC08BD10B586B004460121042004F0C6
:101280006FFA0121480404F078FA4A4802F0C2FCDF
:101290000420ADF8140003208DF8160018208DF8F6
:1012A000170005A9444803F09FFF0820ADF814007B
:1012B00004208DF8170005A93F4803F095FF01941D
:1012C0000020ADF80800ADF80A00ADF80C00ADF84C
:1012D00010000C20ADF80E0001A9364802F0DDFC2C
:1012E0000121344802F065FD01228021314802F0DD
:1012F00091FD4FF48063314A2E49091D304800F0BA
:10130000C1F8012240F225512A4802F05EFD41F663
:101310001F41632000F0FEF800202A490880FFF7F3
:1013200095FF06B010BD10B52748007860B9214878
:10133000001D00882549234A1288885421480088C6
:10134000401C2049088018E01A48001D0088C1B2DE
:101350001E481C4A1288815400214FF0804003F03F
:1013600021FD1848008818B90121880703F086FA82
:1013700014480088401C1349088010BD0FB438B5CC
:1013800005A800900D48009A04990AF0D3F90020AE
:1013900000900A480AF0E2FC84B22146084800F0B6
:1013A00096F800BF0648001D00680028FAD138BC36
:1013B0005DF814FB0044004000080140D407002001
:1013C000800002409600002098000020D4030020F6
:1013D00030B500BF26480068264AB0FBF2F1B1F1F3
:1013E000807F01D301201DE021F07F40401E4FF09F
:1013F000E022506150170F22002807DA13071D0E54
:101400001D4B00F00F04241F1D5503E013071C0E95
:101410001A4B1C5400BF00204FF0E02290610720BF
:10142000106100200028D5D130BD1549088000BFCB
:10143000134909880029FBD1704700B5024603E033
:101440004FF47A70FFF7F1FF101EA2F101018AB28A
:10145000F6D100BD00B5034603E04FF47A70FFF704
:10146000ECFF181EA3F101018BB2F6D100BD000004
:10147000C400002040420F0018ED00E000E400E04E
:1014800002000020F0B58BB007460C4615461E46FC
:101490000121084604F057F9384604F04BFB00944C
:1014A0000195102002900396002004908020059062
:1014B00000200690079008904FF48050099000207B
:1014C0000A906946384604F0D7FB0BB0F0BD70B502
:1014D00004460D460021204604F0F9FB294620462B
:1014E00004F00AFC0121204604F0F1FB70BD08B5B0
:1014F0004FF4E06002F020FB1C208DF8000001207A
:101500008DF801008DF802008DF80300684602F0A6
:1015100018FB08BD3EB505460C460121084604F0FF
:101520002CF94FF0804002F079FD4FF0804003F03D
:10153000D9F9ADF80450ADF800400020ADF8060030
:10154000ADF8020069464FF0804002F03BFE0121F9
:10155000880703F059FC00214FF0804003F08EFA19
:1015600001221146900703F0A4F900214FF08040BA
:1015700003F084F9FFF7BBFF3EBD000008B5002073
:1015800003F085FC002003F085FC03F055FC0021EE
:101590004FF4806004F0D7F84FF4F850ADF8000035
:1015A00004208DF803006946F94803F01DFE04206D
:1015B000ADF800006946F74803F016FE08BD08B50F
:1015C0000121B02004F0CCF84FF4F850ADF8000041
:1015D00003208DF8020018208DF803006946EC48BE
:1015E00003F002FE0420ADF800006946E94803F06C
:1015F000FBFD0121880204F0A6F80121022004F07D
:10160000A2F808BD30B58BB005460C46E24804F0A0
:101610008DFB0021E14804F05AFBE1480090019560
:1016200010200290A00803900020049080200590D4
:101630008000069080000790002008904FF4005032
:10164000099000200A906946D44804F015FB012156
:10165000D24804F03CFB0BB030BD30B58BB0054632
:101660000C46CD4804F062FB0021CC4804F02FFB6F
:10167000CB480090019500200290A0080390002024
:101680000490802005908000069080000790002044
:1016900008904FF40050099000200A906946BF4816
:1016A00004F0EAFA0121BD4804F011FB0BB030BD93
:1016B00010B5BC4804F026FB10BD10B5FFF75EFF67
:1016C00010BD01462A2019B1012901D0022902D1F9
:1016D000B54A116000E0262070472DE9F04106462A
:1016E0002A27AF488038456B02E0AD488038456B0B
:1016F00005F045000028F8D005F0040030B10327BC
:10170000042003F068FC3846BDE8F08105F00100D4
:1017100028B10127012003F05EFC3846F4E703F00E
:10172000F3FBB04202D010273846EDE740F2FF50FD
:1017300003F051FC002003F0EBFB04469B482040E3
:1017400008B93846E0E704F0004008B11C20DBE7A8
:1017500004F0804008B10920D6E704F0005008B139
:101760000A20D1E704F0805008B10B20CCE704F048
:10177000006008B10C20C7E704F0806008B10D20BC
:10178000C2E704F0807008B10E20BDE704F4000049
:1017900008B10F20B8E704F4800008B11020B3E7C7
:1017A00004F4001008B11120AEE704F4801008B171
:1017B0001220A9E704F4002008B11320A4E704F4E0
:1017C000802008B114209FE704F4003008B11520F0
:1017D0009AE704F4803008B1162095E704F400403D
:1017E00008B1172090E704F4804008B118208BE777
:1017F00004F4005008B1192086E704F0080008B18D
:101800001A2081E738467FE72DE9FC4107460D465F
:1018100000262A24002000900190082064490860D6
:1018200010204860402088600020C8604FF480602D
:101830000861084603F04EFB1020FFF74EFF0446F8
:101840002A2C02D02046BDE8FC815A4800880004BA
:101850005749086037204860402088600020C860F1
:101860004FF480600861084603F034FB3720FFF72F
:1018700034FF04462A2C01D02046E4E74E484F4965
:10188000086008204860302088600220C86000207E
:10189000086101204861084603F045FB00204449E7
:1018A000086033204860402088600020C8604FF402
:1018B00080600861084603F00DFB3320FFF70DFF41
:1018C00004462A2C01D02046BDE709E04FF4001061
:1018D00003F077FB20B103F048FB4DF82600761C9F
:1018E0002F488038406B40F22A6108400028EDD034
:1018F000082003F066FB28B1082003F06CFB0424E9
:101900002046A0E7022003F05CFB28B1022003F090
:1019100062FB0224204696E7202003F052FB28B108
:10192000202003F058FB062420468CE74FF400707B
:1019300003F047FB30B14FF4007003F04CFB072479
:10194000204680E740F2FF5003F045FB0098000678
:10195000009901F47F4140EA0120009901F47F01E0
:1019600040EA1120009940EA116068600198000681
:10197000019901F47F4140EA0120019901F47F01BE
:1019800040EA1120019940EA1160286020465AE798
:10199000001001400014014000F000104404024017
:1019A0008080014000200010A400002008E0FFFD1E
:1019B0005C0C0020A0000020FFFF0F00700C002036
:1019C0007CB505462A2400200090019003F0A0FA7F
:1019D00000F0007010B10E2420467CBDFE4909883D
:1019E00088B26946FFF710FF04462A2C01D0204632
:1019F000F3E7012D38D1019800F48020002830D081
:101A0000F54800880004F549086037204860402008
:101A100088600020C860A8020861084603F05AFAEE
:101A20003720FFF75AFE04462A2C01D02046D4E77F
:101A30000220EA49086006204860402088600020B3
:101A4000C8604FF480600861084603F043FA06203E
:101A5000FFF743FE04462A2C01D02046BDE720466E
:101A6000BBE725242046B8E7019800F4803078B31E
:101A7000D94800880004D9490860372048604020D0
:101A800088600020C8604FF480600861084603F059
:101A900021FA3720FFF721FE04462A2C01D02046E8
:101AA0009BE70020CD490860062048604020886000
:101AB0000020C8604FF480600861084603F00AFA0D
:101AC0000620FFF70AFE04462A2C02D0204684E7AF
:101AD00001E0204681E7252420467EE770B50446D4
:101AE0002A25BF480068032802D12725284670BD53
:101AF000BB48006838B1BA480068012803D0B8482C
:101B00000068022830D1B4F5805F02D1272528462D
:101B1000EDE7B4F5006F15D10120FFF751FF054641
:101B20002A2D21D10120AF490875002008604860A6
:101B300088604FF40060C86000200861084603F028
:101B400089F911E00020FFF73BFF05462A2D0BD154
:101B50000120A44908750020086048608860C860BA
:101B60000861084603F076F92846C0E770B50446D8
:101B70002A259A48046007209849486040208860D8
:101B80000020C8604FF480600861084603F0A2F9A5
:101B90000720FFF7A2FD0546284670BD30B5014677
:101BA0002A2000228E4B1B7881F84E308A4B1B88EE
:101BB000A1F84C308C4B1B681A0E93090B70C2F3C2
:101BC00083034B7002F003038B70874B1B68C3F3D6
:101BD0000742CA70844B1B88C3F307220A71824BE9
:101BE0001A784A715B681A0E1301CB807E4B5B68D2
:101BF000C3F30742CB8843EA1213CB8002F00F03F2
:101C00000B72794B9B88C3F30722D3094B72C2F343
:101C100080138B72C2F34013CB72C2F300130B73A9
:101C200000234B736E4B1B681BB16D4B1B68012B64
:101C30003CD193071B0D0B616B4B1A790B6943EA7F
:101C400082030B61684B9B681A0E0B6943EA92137F
:101C50000B61C2F3C2030B7502F007034B75624BB5
:101C60009B68C3F3074253098B75C2F38203CB759C
:101C700093075B0F0B765C4B1B89C3F307220B7E2C
:101C800043EAD2130B760B695B1C4B640C7E4B6CE6
:101C9000A41C0125A5406B434B640C7A0123A3408F
:101CA0008B64D1E9113463434B6421E04C4B1B68D6
:101CB000022B1DD14C4B1A7993069B0A0B614A4BA0
:101CC0009B681A0E0B6943EA02230B61464B9B6823
:101CD000C3F307420B6913430B61434B1B89C3F3E7
:101CE00007220B695B1CDB044B644FF400738B64AD
:101CF000C2F3801301F8193F93065B0E4B703A4B09
:101D00001A7A4B7843EAD2134B7002F07F038B7040
:101D1000354BDB681A0ED309CB70C2F341130B713C
:101D2000C2F382034B7193071B0F8B712E4BDB6841
:101D3000C3F307428B7943EA92138B71C2F34013CA
:101D4000CB7100230B7202F001034B72264B9B896F
:101D5000C3F30722D3098B72C2F38013CB72C2F391
:101D600040130B73C2F300134B73C2F381038B73E5
:101D700002F00303CB731C4B1A7B53080B74012333
:101D80004B741A4B1B681A0ECA741939174B1B680F
:101D9000C3F307421402CC85144B1B88C3F30722FC
:101DA000CB8D1343CB85114B1A7814060C635B68FB
:101DB0001A0E0B6B43EA02440C630C4B5B68C3F3D3
:101DC00007420B6B43EA02240C63084B9B88C3F366
:101DD00007220B6B13430BE0A00000205C0C0020DB
:101DE0009C000020440C0020D40B0020E40B0020B9
:101DF0000B63FE4B1A7934235A54FC4B9B681A0E22
:101E000035235A54F94B9B68C3F3074214068C637D
:101E1000F64B1B89C3F307228B6B43EA02448C63A6
:101E2000F24B1A7A8B6B43EA02248C63EF4BDB682C
:101E30001A0E8B6B13438B63EC4BDB68C3F30742C7
:101E40003C235B5C43EA12143C235C5413071C0DD7
:101E5000CC87E64B9B89C3F30722CB8F1343CB87F9
:101E6000E24B1A7B540840235C54012441235C5408
:101E700030BD70B52A25DE48446B01E0DC48446B78
:101E800004F045000028F9D004F0040028B103252F
:101E9000042003F0A0F8284670BD04F0010028B12A
:101EA0000125012003F097F82846F5E740F2FF509E
:101EB00003F091F82846EFE72DE9F04106460F467A
:101EC0004FF02A08CA48456B01E0C948456B05F048
:101ED00045000028F9D005F0040038B14FF00308A0
:101EE000042003F078F84046BDE8F08105F00100D9
:101EF00030B14FF00108012003F06DF84046F3E7E0
:101F000003F002F8B04203D04FF010084046EBE770
:101F100040F2FF5003F05FF8002002F0F9FF0446A2
:101F200004F4604018B9200C38804046DCE704F423
:101F3000005008B11320D7E704F4804008B1102006
:101F4000D2E704F4004008B10F20CDE74046CBE7CC
:101F500038B52A240120009002F0A7FF10B92524EB
:101F6000204638BDA3480068042829D00020A24993
:101F7000086002204860C02088600020C8604FF4DC
:101F800080600861084602F0A5FFFFF772FF044673
:101F90002A2C01D02046E4E7002002F0B9FF934943
:101FA0000860042002F0B4FF90494860082002F065
:101FB000AFFF8E4988600C2002F0AAFF8B49C860F1
:101FC0008C48006858B18B480068012807D08948C0
:101FD0000068062803D087480068022817D100202F
:101FE0008549086003204860402088600020C86060
:101FF0004FF480600861084602F06CFF69460320D8
:10200000FFF75AFF04462A2C01D02046A9E7794859
:10201000006804282FD0BDF8000078490860BDF89A
:10202000000000047449086009204860C0208860EE
:102030000020C8604FF480600861084602F04AFF43
:10204000FFF717FF04462A2C01D0204689E700201D
:1020500002F05EFF6A490860042002F059FF6849F7
:102060004860082002F054FF654988600C2002F0A7
:102070004FFF6349C8602A24204672E770B52A25BD
:102080005B48446B01E05A48446B04F0450000286B
:10209000F9D004F0040028B10325042002F09BFFCE
:1020A000284670BD40F2FF5002F095FF2846F8E741
:1020B00070B52A264FF480354D48446B02E06D1E02
:1020C0004B48446B04F0450008B9002DF7D115B119
:1020D00004F0040028B10326042002F07CFF3046FF
:1020E00070BD04F0400028B12A26402002F073FFA2
:1020F0003046F5E73046F3E770B52A254FF48034D3
:1021000000E0641E24B1802002F05BFF0028F8D0BC
:1021100014B90325284670BD40F2FF5002F05BFF62
:102120002846F8E72DE9F0412A240026002500275B
:102130004FF00008B220334908750020086048605D
:102140008860C8600861084602F084FE032002F03F
:10215000A1FE012002F09BFE002027490860486094
:102160008860C8604FF480600861084602F0B2FEE3
:10217000FFF7C2FF04462A2C02D02046BDE8F081BA
:102180004FF4D5701C4908600820486040208860E2
:102190000020C8604FF480600861084602F09AFE93
:1021A000FFF786FF04462A2C05D10120114908605B
:1021B0004FF0804812E000200F4908603720486047
:1021C000402088600020C8604FF4806008610846A5
:1021D00002F080FE3720FFF780FA0446002006490F
:1021E000086037204860402088600DE0E40B002044
:1021F000008001409C0000205C0C0020A00000201A
:10220000D40B0020440C00200020C8604FF48060F4
:102210000861084602F05EFE3720FFF75EFA0446CA
:102220002A2C4CD138E00020FA4908603720486059
:10223000402088600020C8604FF480600861084634
:1022400002F048FE3720FFF748FA04462A2C01D056
:10225000204693E7F04848EA0000EE49086029204C
:102260004860402088600020C8604FF480600861AA
:10227000084602F02FFEFFF701FF04462A2C01D08A
:1022800020467BE7002002F043FE0646012080EA5C
:10229000D67080F001076D1C1FB94FF6FF708542A4
:1022A000C1D34FF6FF70854202D31B24204665E759
:1022B00006F08040061E02D00220D8490860204661
:1022C0005CE710B52A24FFF77AF902F0B5FDFFF7B5
:1022D00029FF04462A2C01D0204610BDFFF738FE06
:1022E00004462A2C01D02046F7E70120CC49087586
:1022F0000020086048608860C8600861084602F0F5
:10230000A9FD2A2C03D1C748FFF748FC04462A2C14
:1023100006D1C449B1F84C100804FFF727FC044665
:102320002A2C04D14FF40060FFF7D8FB04462A2C76
:1023300003D10020FFF7C5F904462046CDE770B56C
:1023400004462A2514B92625284670BDB6480088BB
:102350000004B04908600D204860402088600020DB
:10236000C8604FF480600861084602F0B3FD0D209C
:10237000FFF7B3F905462A2D01D02846E5E70020EE
:1023800002F0C6FD20602846DFE708B50120009076
:10239000C102A64802F0BBFF08B1002000909DF8E2
:1023A000000008BD08B500200090FFF7EEFF0128EF
:1023B0000AD16846FFF7C3FF2A2801D0FF2008BDD5
:1023C0000098C0F34320FAE7FF20F8E710B5042493
:1023D000FFF7E8FF0446042C01D1002010BDFF2CBC
:1023E00001D10220FAE70120F8E710B52A240020E5
:1023F00002F050FD204610BD0146002002E04910C9
:10240000421CD0B20129FAD170472DE9F0470746A6
:102410000D4614464FF02A084FF000092E464FF0A3
:10242000000A25B94FF026084046BDE8F0872A206B
:102430007F49087000207F4908607F4908607F4815
:102440007F490860002048608860C8600861486172
:10245000084602F068FD002002F039FD002002F07D
:1024600057FD00F0007018B14FF00E084046DCE751
:102470006A480068022801D104027F0A002C21DD8D
:10248000B4F5006F1EDC601E2040D8B92046FFF76F
:10249000B3FF82465F48046010205E4948604020D8
:1024A00088600020C8604FF480600861084602F030
:1024B00011FD1020FFF711F98046B8F12A0F05D061
:1024C0004046B2E74FF026084046AEE75B485C491D
:1024D0000860084644604FEA0A1088600220C8601D
:1024E0000020086101204861084602F01CFD5248A6
:1024F0000460002053490860534805604548076060
:10250000112044494860402088600020C8604FF492
:1025100080600861084602F0DDFC1120FFF7DDF85D
:102520008046B8F12A0F01D040467EE74748006850
:10253000022857D111E04FF4004002F042FD60B193
:102540004FF0000905E002F010FD46F8290009F1FE
:102550000109B9F1080FF6D320363D48406B40F22F
:102560002A6108400028E6D0082002F02AFD30B198
:10257000082002F030FD4FF00408404655E70220E5
:1025800002F01FFD30B1022002F025FD4FF00208DD
:1025900040464AE7202002F014FD30B1202002F02E
:1025A0001AFD4FF0060840463FE74FF4007002F076
:1025B00008FD38B14FF4007002F00DFD4FF0070830
:1025C000404632E703E002F0D0FC3060361D4FF4A5
:1025D000001002F0F6FC0028F5D140F2FF5002F0A6
:1025E000FAFC58E019480068012833D1012148F26B
:1025F0002A3002F05FFC00BF0E48006818B90C4892
:1026000000782A28F8D00A4800782A2843D00848B9
:1026100000780AE75C0C0020000010809C0000207D
:10262000440C0020F40B0020A0000020001C0140FE
:10263000B8000020BC000020A8000020FFFF0F0011
:10264000700C0020AC000020B4000020A40000208A
:1026500000800140F8480068E8B9012140F22A30C2
:1026600002F028FC012002F032FC21462846FEF749
:10267000F4FF00BFFFF71CF830B9F048006818B944
:10268000EF4800782A28F5D0ED4800782A2802D0B3
:10269000EB480078C9E64046C7E62DE9F05F814681
:1026A0000E4614461D464FF02A084FF0000A3746E2
:1026B0004FF0000B26B94FF026084046BDE8F09FCA
:1026C0002A20DF4908700020DC490860DD490860E5
:1026D000DD48DE490860002048608860C860086105
:1026E0004861084602F01FFC002002F0F0FB0020C9
:1026F00002F00EFC00F0007018B14FF00E084046DA
:10270000DCE7D3480068022802D104024FEA5929C5
:10271000002C21DDB4F5006F1EDC601E2040D8B90E
:102720002046FFF769FE8346CA4804601020C94965
:102730004860402088600020C8604FF480600861D5
:10274000084602F0C7FB1020FEF7C7FF8046B8F12D
:102750002A0F05D04046B1E74FF026084046ADE7C6
:10276000012D70D905FB04F0B0F1007F03D34FF0C9
:1027700026084046A2E705FB04F0B24908600120A4
:10278000B5490860B5480660AF48B049086005FB28
:1027900004F048604FEA0B1088600220C8600020F7
:1027A000086101204861084602F0BDFBA948C0F855
:1027B00000901220A7494860402088600020C8602F
:1027C0004FF480600861084602F084FB1220FEF797
:1027D00084FF8046B8F12A0F01D040466EE7964844
:1027E000006802287BD111E04FF4004002F0E9FBC1
:1027F00060B14FF0000A05E002F0B7FB47F82A008D
:102800000AF1010ABAF1080FF6D320379448406B59
:1028100040F22A3108400028E6D0082002F0D1FB1F
:1028200030B1082002F0D7FB4FF00408404645E7DE
:10283000022002F0C6FB38B1022002F0CCFB4FF0C0
:10284000020840463AE78AE0202002F0BAFB30B1A5
:10285000202002F0C0FB4FF0060840462EE74FF460
:10286000007002F0AEFB38B14FF4007002F0B3FB21
:102870004FF00708404621E703E002F076FB38609E
:102880003F1D4FF4001002F09CFB0028F5D14FF4DF
:10289000807002F096FB18B36D48006838B16C4840
:1028A0000068022803D06A480068012818D1002077
:1028B000684908600C204860402088600020C8609B
:1028C0004FF480600861084602F004FB0C20FEF71C
:1028D00004FF8046B8F12A0F02D04046EEE604E03D
:1028E00040F2FF5002F077FB39E0534800680128BE
:1028F00013D1012148F22A3002F0DCFA00BF4F4820
:10290000006818B94E4800782A28F8D04C4800785A
:102910002A2824D04A480078D0E647480068F0B911
:10292000012140F22A3002F0C5FA012002F0CFFA6C
:1029300005FB04F13046FEF790FE00BFFEF7B8FE3F
:1029400030B93E48006818B93D4800782A28F5D0CB
:102950003B4800782A2802D039480078AEE6404645
:10296000ACE67CB504462A250020019000903D4845
:1029700000880004374908600D20486040208860C6
:102980000020C8604FF480600861084602F0A2FA97
:102990003348406B009002E03148406B0090009853
:1029A00000F045000028F7D0009800F0040028B19E
:1029B0000325042002F00FFB28467CBD009800F0A0
:1029C000010028B10125012002F005FB2846F4E7AB
:1029D00002F09AFA009000980D2802D0102528469F
:1029E000EBE740F2FF5002F0F6FA002002F090FA16
:1029F00001900198C0F3432020701B4901980840C2
:102A000008B92846D9E7019800F0004008B11C2019
:102A1000D3E7019800F0804008B10920CDE7019884
:102A200000F0005008B10A20C7E7019800F080507C
:102A3000E0B10B20C1E70000A4000020BC00002092
:102A4000B8000020A8000020FFFF0F00700C00203D
:102A50009C0000205C0C0020AC000020B400002092
:102A600000800140A000002008E0FFFD019800F078
:102A7000006008B10C20A0E7019800F0806008B168
:102A80000D209AE7019800F0807008B10E2094E7BD
:102A9000019800F4000008B10F208EE7019800F4BF
:102AA000800008B1102088E7019800F4001008B1F8
:102AB000112082E7019800F4801008B112207CE711
:102AC000019800F4002008B1132076E7019800F483
:102AD000802008B1142070E7019800F4003008B19C
:102AE00015206AE7019800F4803008B1162064E7E9
:102AF000019800F4004008B117205EE7019800F447
:102B0000804008B1182058E7019800F4005008B13F
:102B1000192052E7019800F0080008B11A204CE78C
:102B200028464AE72DE9FF5F82460F4614462A25CC
:102B3000002003900290834600260190804600907A
:102B4000B94627B92625284604B0BDE8F09F2A20BB
:102B5000FE4908700020FE490860FE490860FE48F2
:102B6000FE490860002048608860C86008614861CC
:102B7000084602F0D8F9002002F0A9F9002002F07E
:102B8000C7F900F0007010B10E252846DCE7F448C4
:102B90000068022802D104024FEA5A2A002C20DDE4
:102BA000B4F5006F1DDC601E2040D0B92046FFF751
:102BB00023FC0390EB4804601020EA494860402061
:102BC00088600020C8604FF480600861084602F009
:102BD00081F91020FEF781FD05462A2D04D02846F4
:102BE000B2E726252846AFE7DF4800880004DD4924
:102BF00008600D204860402088600020C8604FF4C5
:102C000080600861084602F065F90D20FEF765FD59
:102C100005462A2D01D0284696E7002002F078F9D3
:102C20000190DFF834B31EE0ABF1010BCE48008811
:102C30000004CC4908600D204860402088600020D6
:102C4000C8604FF480600861084602F043F90D2027
:102C5000FEF743FD05462A2D01D0284674E70020E3
:102C600002F056F90190019800F4807010B9BBF1A0
:102C7000000FD9D1BBF1000F01D1292064E7B94879
:102C8000C0F800A01820B7494860402088600020A4
:102C9000C8604FF480600861084602F01BF91820F4
:102CA000FEF71BFD05462A2D01D028464CE7A94812
:102CB00004600020AD490860AD480760A648A749F8
:102CC0000860084644600398000188600020C860DE
:102CD000086101204861084602F025F9A54800680E
:102CE00002286BD139E04FF4804002F06AF9A0B3BA
:102CF00098480068801B202820D296480078801BC6
:102D000000F0030020B993480068801B800804E0AD
:102D100090480068801B8008401C00904FF000081D
:102D200008E0D9F8000002F024F908F1010809F1DF
:102D30000409361D009880450FD2F2E74FF00008D5
:102D400005E059F8280002F014F908F10108B8F17B
:102D5000080FF6D309F1200920368748406B40F26E
:102D60001A6108400028BED0082002F02AF928B1D4
:102D7000082002F030F904252846E5E6022002F09A
:102D800020F928B1022002F026F902252846DBE6C8
:102D9000102002F016F928B1102002F01CF90525C8
:102DA0002846D1E64FF4007002F00BF9F0B34FF46F
:102DB000007002F010F907252846C5E66D48006846
:102DC000012813D1012144F21A3002F073F800BF38
:102DD0005F48006818B95D4800782A28F8D05B4839
:102DE00000782A2825D059480078ADE66148006867
:102DF000E0B9012140F21A3002F05CF82146384671
:102E0000FEF700FC012002F062F800BFFEF750FC64
:102E100030B94F48006818B94C4800782A28F5D0D6
:102E20004A4800782A2804D0484800E001E00078A9
:102E30008AE640F2FF5002F0CEF802A8FFF791FDBB
:102E4000054603E002A8FFF78CFD05462A2D07D1B1
:102E50009DF808000728F5D09DF808000628F1D055
:102E6000284671E62DE9FE4F81468A4614461E46E5
:102E70002A254FF0000B0020029000270190C84641
:102E80000090B9F1000F03D126252846BDE8FE8F3A
:102E90002A202E49087000202D4908602D4908601D
:102EA0002D482E490860002048608860C86008618D
:102EB0004861084602F037F8002002F008F80020C8
:102EC00002F026F800F0007010B10E252846DDE76C
:102ED00023480068022802D104024FEA5A2A002C33
:102EE00020DDB4F5006F1DDC601E2040D0B9204607
:102EF000FFF782FA83461B48046010201949486096
:102F0000402088600020C8604FF480600861084657
:102F100001F0E0FF1020FEF7E0FB05462A2D04D06B
:102F20002846B3E726252846B0E70F480088000466
:102F30000C4908600D204860402088600020C8606F
:102F40004FF480600861084618E00000B8000020D7
:102F5000BC000020A8000020FFFF0F00700C002024
:102F60009C0000205C0C0020A0000020AC00002091
:102F7000B0000020A40000200080014001F0AAFF62
:102F80000D20FEF7AAFB05462A2D01D028467DE735
:102F9000012E7AD906FB04F0B0F1007F02D326257A
:102FA000284673E7FE48006838B1FD4800680128EC
:102FB00003D0FB48006802282FD1FA48008800049B
:102FC000F949086037204860402088600020C860C8
:102FD0004FF480600861084601F07CFF3720FEF75F
:102FE0007CFB05462A2D01D028464FE7EE480660B7
:102FF0001720ED494860402088600020C8604FF4E9
:1030000080600861084601F065FF1720FEF765FB48
:1030100005462A2D01D0284638E7E348C0F800A02D
:103020001920E1494860402088600020C8604FF4C2
:1030300080600861084601F04DFF1920FEF74DFB46
:1030400005462A2D01D0284620E706FB04F0D74983
:1030500008600120D6490860D648C0F80090D648DC
:10306000D649086006FB04F048604FEA0B10886000
:103070000020C860086101204861084601F053FF44
:10308000CF480068022870D13EE0D1E04FF4804084
:1030900001F097FFC0B3C5480068C01B202811D3BA
:1030A0000020009007E0009958F8210001F061FF2E
:1030B0000098401C009000980828F4D308F12008DC
:1030C000203721E0B9480078C01B00F0030020B988
:1030D000B6480068C01B800804E0B4480068C01B04
:1030E0008008401C01900020009009E0D8F8000002
:1030F00001F03FFF0098401C009008F104083F1DBC
:10310000DDE900108142F1D3AE48406B40F21A3144
:1031100008400028BAD0082001F053FF28B1082049
:1031200001F059FF04252846B0E6022001F049FFCE
:1031300028B1022001F04FFF02252846A6E6102004
:1031400001F03FFF28B1102001F045FF052528467A
:103150009CE64FF4007001F034FF38B14FF400707A
:1031600001F039FF0725284690E627E04FF48070EC
:1031700001F027FF00285BD08948006838B18848F3
:103180000068012803D086480068022850D100203A
:10319000854908600C204860402088600020C86095
:1031A0004FF480600861084601F094FE0C20FEF7A1
:1031B00094FA05462A2D3BD0284667E680480068E9
:1031C000012813D1012144F21A3001F073FE00BF2F
:1031D0007D48006818B97D4800782A28F8D07B48D7
:1031E00000782A2824D0794800784FE6744800688F
:1031F000F0B9012140F21A3001F05CFE012001F02B
:1032000066FE06FB04F14846FEF7FCF900BFFEF738
:103210004FFA30B96C48006818B96C4800782A2811
:10322000F5D06A4800782A2802D0684800782DE650
:1032300040F2FF5001F0CFFE0020009002E0009825
:10324000401C00904FF6FF7100988842F7D302A807
:10325000FFF787FB054603E002A8FFF782FB054660
:103260002A2D07D19DF808000728F5D09DF8080001
:103270000628F1D0284609E65248406B00F4405039
:1032800008B1012070470020FCE710B52A24002077
:10329000454908600C204860402088600020C860D4
:1032A0004FF480600861084601F014FE0C20FEF720
:1032B00014FA0446204610BD2DE9FC4105460E4691
:1032C0002A240027002001900090414840682021D6
:1032D00001EA105018B925242046BDE8FC81394880
:1032E0004068C0B2801C3B49B1FBF0F00190002067
:1032F00001F00EFE00F0007010B10E242046ECE745
:1033000027480068022801D16D0A760A244800681F
:1033100038B123480068012803D0214800680228FA
:103320002DD12148056020201F4948604020886039
:103330000020C8604FF480600861084601F0CAFDB3
:103340002020FEF7CAF904462A2C01D02046C4E703
:1033500015480660212014494860402088600020FC
:10336000C8604FF480600861084601F0B3FD212079
:10337000FEF7B3F904462A2C01D02046ADE7002021
:103380000949086026204860402088600020C86005
:103390004FF480600861084601F09CFD26201BE088
:1033A0009C000020A00000205C0C0020A800002051
:1033B000AC000020B0000020FFFF0F00700C0020C8
:1033C000A400002000800140BC000020B8000020C4
:1033D000D40B0020C0D40100FEF77FF904462A2C4C
:1033E00001D0204679E7002700E07F1C0198874242
:1033F000FBD36846FFF7B5FA044603E06846FFF7DB
:10340000B0FA04462A2C07D19DF800000728F5D011
:103410009DF800000628F1D020465EE770B504460E
:103420002A260025002001F073FD00F0007010B185
:103430000E26304670BD4020EB49086010204860E1
:10344000402088600020C8604FF480600861084612
:1034500001F040FD1020FEF740F906462A2E01D06B
:103460003046E7E7E14800880004DF49086037207C
:103470004860402088600020C8604FF48060086188
:10348000084601F027FD3720FEF727F906462A2EC9
:1034900001D03046CEE7D648D64908604020486083
:1034A000602088600220C860002008610120486117
:1034B000084601F038FD0020CB4908600D20486027
:1034C000402088600020C8604FF480600861084692
:1034D00001F000FD0D20FEF700F906462A2E01D06E
:1034E0003046A7E70EE04FF4004001F06AFD48B116
:1034F000002504E001F039FD44F825006D1C082D7D
:10350000F8D32034BC48406B40F22A6108400028C0
:10351000E9D0082001F055FD28B1082001F05BFD3D
:103520000426304686E7022001F04BFD28B1022038
:1035300001F051FD022630467CE7202001F041FDDC
:1035400028B1202001F047FD0626304672E74FF4EF
:10355000007001F036FD30B14FF4007001F03BFD1A
:103560000726304666E703E001F0FFFC2060241DDB
:103570004FF4001001F025FD0028F5D140F2FF5076
:1035800001F029FD403C002515E014F82500000657
:1035900034F8251001F47F4140EA012054F8251049
:1035A00001F47F0140EA112054F8251040EA11602F
:1035B00044F825006D1C102DE7D330463AE770B56E
:1035C000002400258D480068012867D1C00301F060
:1035D00005FDA8B100BF06E001F0C7FC88490968F5
:1035E00041F82400641C082CF6D38548006820307C
:1035F00083490860834800682030824908604DE0B4
:103600004FF4804001F0EAFC002847D07E48006873
:103610007C490968401A20282BD27B4800787949D8
:103620000968401A00F0030030B97748006875490E
:103630000968401A800806E0734800687149096803
:10364000401A8008401C054600240FE06F490968B5
:10365000086801F08EFC641C6C480068001D6B4912
:10366000086068480068001D66490860AC42EDD3F8
:1036700014E0002406E06549096851F8240001F0CF
:1036800078FC641C082CF6D36048006820305F4941
:1036900008605C48006820305A4908604FF4807028
:1036A00001F09CFCD8B355480068D0B10EE001F0A1
:1036B0005CFC53490968086051480068001D504986
:1036C000086050480068001D4E4908604FF4001023
:1036D00001F077FC28B14B4800684B4909688842E3
:1036E000E5D34B480068012804D1FFF7CEFD4949D6
:1036F000087002E02A20474908704FF4807001F0FA
:1037000077FC00214CF23A3001F0D4FB0120424911
:10371000086000203B4908603E48007870BDFFE724
:10372000022001F05BFC70B1022001F061FC00217D
:103730004CF23A3001F0BEFB002032490860022012
:1037400034490870EAE7082001F048FC70B108200D
:1037500001F04EFC00214CF23A3001F0ABFB0020AE
:103760002849086004202B490870D7E7202001F081
:1037700035FC70B1202001F03BFC00214CF23A30C6
:1037800001F098FB00201F490860062021490870BD
:10379000C4E7102001F022FC70B1102001F028FCD9
:1037A00000214CF23A3001F085FB002015490860F9
:1037B000052018490870B1E74FF4007001F00EFCC5
:1037C00078B14FF4007001F013FC00214CF23A3054
:1037D00001F070FB00200B49086007200D490870BC
:1037E0009CE72A209AE700005C0C0020A000002043
:1037F000FFFF0F00700C002000800140A40000209B
:10380000B4000020C0000020A8000020B00000206C
:10381000AC000020B8000020BC00002008B50C203F
:10382000ADF8000003208DF8020010208DF8030091
:103830006946384801F0D8FC0821364801F081FD7E
:103840000421344801F07DFD08BD10B50821314840
:1038500001F077FD3220FDF7F0FD04212D4801F045
:1038600070FD3220FDF7E9FD08212A4801F06BFDCB
:103870003220FDF7E2FD0421264801F064FD3220EC
:10388000FDF7DBFD10BD10B50821224801F05BFDFE
:103890000421204801F057FD3220FDF7CEFD08211C
:1038A0001C4801F04EFD04211A4801F04AFD322067
:1038B000FDF7C3FD10BD704710B50821154801F094
:1038C00040FD0421134801F03CFD10BD10B5044635
:1038D000072C1BD2DFE804F01A04070A0D101500AC
:1038E000FFF7B3FF13E0FFF7CEFF10E0FFF7E3FFB2
:1038F0000DE0FFF7E1FF0AE00421064801F023FD97
:1039000005E00421034801F01CFD00E000BF00BFFA
:1039100010BD0000001001400CB500200190009087
:103920006C48006840F480306A49086000BF69480C
:10393000006800F4003000900198401C019000984D
:1039400018B90198B0F5A06FF1D16248006800F491
:10395000003010B10120009001E00020009000989C
:10396000012843D15C48006840F010005A490860C3
:103970000846006820F0030008600846006840F030
:103980000200086053484068524948600846406851
:1039900048600846406840F48060486008464068D7
:1039A00020F47C1048600846406840F4E810486005
:1039B0000846006840F08070086000BF4548006815
:1039C00000F000700028F9D04248406820F0030061
:1039D000404948600846406840F00200486000BF27
:1039E0003C48406800F00C000828F9D10CBD10B527
:1039F000FFF792FF10BD10B53648006840F0010097
:103A000034490860084640683449084031494860F4
:103A100008460068324908402E4908600846006898
:103A200020F4802008600846406820F4FE004860CA
:103A30004FF41F008860FFF7DAFF4FF0006029495C
:103A4000086010BD10B5002100200022214B5B68EA
:103A500003F00C0121B1042906D0082928D107E080
:103A6000214B224C236027E01F4B204C236023E096
:103A7000184B5B6803F47010164B5B6803F48032DC
:103A8000022303EB904022B9194B4343174C2360A8
:103A90000DE0104B5B6803F4003323B1144B434338
:103AA000124C236003E0104B4343104C236003E0AF
:103AB0000D4B0E4C236000BF00BF064B5B68C3F389
:103AC00003130C4CE15C094B1B68CB40074C236093
:103AD00010BD000000100240002002400000FFF86E
:103AE000FFFFF6FE08ED00E000127A00C40000209F
:103AF00000093D00C80000200948804709480047E8
:103B0000FEE7FEE7FEE7FEE7FEE7FEE7FEE7FEE78D
:103B1000FEE7FEE704480549054A064B70470000EA
:103B2000F739000831010008B0190020B01F00204B
:103B3000B01B0020B01B002031490143314A116005
:103B4000704770B5002100230F22C47804B32D4CB8
:103B5000246804F4E064C4F5E064210AC1F10403BC
:103B6000CA40447804FA03F18478144021430901DF
:103B7000254C0678A155047804F01F050124AC40BB
:103B800005786D11AD0005F1E025C5F8004109E0AB
:103B9000047804F01F050124AC401C4D0678761112
:103BA00045F8264070BD1A4A0A400243154B1B1FB8
:103BB0001A60704739B1134A121D12680243114B43
:103BC0001B1D1A6006E00F4A121D126882430D4B3E
:103BD0001B1D1A607047042808D14FF0E0210969C5
:103BE00041F004014FF0E022116107E04FF0E021C5
:103BF000096921F004014FF0E022116170470000D3
:103C00000000FA050CED00E000E400E080E100E0D7
:103C100080FFFF1F10B50446FB48844209D10121F3
:103C2000880301F0B7FD00214FF4804001F0B2FDA0
:103C300032E0F648844209D10121480401F0B7FD81
:103C400000214FF4003001F0B2FD25E0F04884423D
:103C500009D10121880401F0AAFD00214FF4802040
:103C600001F0A5FD18E0EB48844209D10121C80408
:103C700001F09DFD00214FF4002001F098FD0BE0C4
:103C8000E548844208D10121080501F090FD00219A
:103C90004FF4801001F08BFD10BD2DE9F04786B088
:103CA00005460E460024A24600BFA1460027B08963
:103CB00000B100BF2F462C8A4CF6FF700440F088FC
:103CC00004432C82AC894EF6F3100440B08831894D
:103CD0000843718908430443AC81AC8A4FF6FF4026
:103CE0000440B0890443AC8201A801F0CCFCC64872
:103CF000874202D1DDF810A001E0DDF80CA0A88910
:103D000000F4004040B10AEBCA0000EB0A10316831
:103D10004900B0FBF1F807E00AEBCA0000EB0A101B
:103D200031688900B0FBF1F86420B8FBF0F00401C1
:103D30002009642101FB1089A88900F4004040B1EA
:103D4000322000EBC900B0FBF1F000F007000443A3
:103D500008E0322000EB09106421B0FBF1F000F024
:103D60000F0004432C8106B0BDE8F0874FF41651D4
:103D7000016000218180C18001810C2141810021ED
:103D80008181704710B502460020108A4FF2FF0370
:103D900018400B884C8823438C882343CC882343CA
:103DA0001843108210BD0021018041808180C180B4
:103DB000704721B1828942F40052828104E08289F5
:103DC0004DF6FF731A4082817047F0B50346002418
:103DD00000260025002040F66A17B94200D100BF36
:103DE0001846C1F3421401F01F06012707FA06F531
:103DF000012C01D10C3004E0022C01D1103000E084
:103E000014301AB107682F43076002E00768AF4318
:103E10000760F0BD1AB1838A0B43838202E0838A74
:103E20008B4383827047028A4FF6F0731A400282F6
:103E3000028A0A430282704782894FF2FF731A4056
:103E4000828182890A438281704721B1828942F04E
:103E50000202828104E082894FF6FD731A4082815A
:103E60007047028A4FF6DF731A400282028A0A43C1
:103E70000282704721B1028A42F48042028204E049
:103E8000028A4BF6FF731A4002827047C1F30802A0
:103E90008280704701468888C0F308007047818996
:103EA00041F0010181817047028BD2B20283028B03
:103EB00042EA012202837047028B02F47F420283AE
:103EC000028B0A430283704721B1828A42F02002AA
:103ED000828204E0828A4FF6DF731A408282704742
:103EE00021B1828A42F01002828204E0828A4FF677
:103EF000EF731A408282704721B1828A42F0080231
:103F0000828204E0828A4FF6F7731A4082827047F9
:103F100021B1828942F40042828103E08289C2F3A6
:103F20000E028281704721B1828A42F4006282824D
:103F300004E0828A4FF2FF731A4082827047828ABD
:103F40004FF6FB731A408282828A0A43828270474C
:103F500021B1828A42F00202828204E0828A4FF614
:103F6000FD731A408282704702460020B1F5007F3F
:103F700000D100BF13880B400BB1012000E00020EE
:103F8000704701F40072B2F5007F00D100BFCA4350
:103F90000280704770B502460024002300250020EF
:103FA00040F66A16B14200D100BFC1F3421501F0DC
:103FB0001F03012606FA03F3012D02D1968933402F
:103FC00006E0022D02D1168A334001E0968A334082
:103FD0000C12012606FA04F41688344013B10CB111
:103FE000012000E0002070BD10B50022002340F643
:103FF0006A14A14200D100BF0A1201249440A3B266
:10400000DC43048010BD0000003801400044004043
:1040100000480040004C00400050004010B50446ED
:10402000FE48844208D10121C01401F0B3FB0021F5
:10403000E01401F0AFFBC4E0B4F1804F08D10121DE
:10404000084601F0B4FB0021012001F0B0FBB8E00C
:10405000F348844208D10121022001F0A8FB00218D
:10406000022001F0A4FBACE0EE48844208D101211B
:10407000042001F09CFB0021042001F098FBA0E04B
:10408000E948844208D10121082001F090FB002179
:10409000082001F08CFB94E0E448844208D101211F
:1040A000102001F084FB0021102001F080FB88E04B
:1040B000DF48844208D10121202001F078FB002153
:1040C000202001F074FB7CE0DA48844208D1012111
:1040D000401401F05FFB0021601401F05BFB70E015
:1040E000D548844209D10121C80401F053FB0021C5
:1040F0004FF4002001F04EFB63E0D048844209D128
:104100000121080501F046FB00214FF4801001F069
:1041100041FB56E0CA48844209D10121480501F01B
:1041200039FB00214FF4001001F034FB49E0C54891
:10413000844208D10121402001F039FB00214020B8
:1041400001F035FB3DE0C048844208D101218020C8
:1041500001F02DFB0021802001F029FB31E0BB485C
:10416000844208D10121801501F021FB0021A01516
:1041700001F01DFB25E0B648844209D10121080465
:1041800001F008FB00214FF4803001F003FB18E040
:10419000B048844209D10121480401F0FBFA002112
:1041A0004FF4003001F0F6FA0BE0AB48844208D13E
:1041B0000121880401F0EEFA00214FF4802001F083
:1041C000E9FA10BD00220288944B98420ED0994B18
:1041D00098420BD0B0F1804F08D0914B984205D057
:1041E000904B984202D0904B984204D14FF68F7377
:1041F0001A404B881A438D4B984207D08C4B9842FB
:1042000004D04FF6FF431A40CB881A4302808B88B4
:1042100083850B880385814B98420BD0854B984250
:1042200008D08B4B984205D08A4B984202D08A4BDB
:10423000984201D10B7A038601238382704770B5BF
:10424000002400220023058C4FF6FE7635400584BD
:10425000028C8388048B4FF68F752C40B51E2C4042
:104260000D882C43751E2A400D892A434D882A4308
:104270006A4DA8420BD06F4DA84208D0744DA84299
:1042800005D0744DA84202D0734DA84213D14FF609
:10429000F7752A404D892A434FF6FB752A408D88D1
:1042A0002A434FF6FF652B404FF6FF552B408D8973
:1042B0002B43CD892B4383800483CD88858602845C
:1042C00070BD70B5002400220023058C4FF6EF76F8
:1042D00035400584028C8388048B48F6FF752C409A
:1042E0004FF6FF452C400D884FF6FF7606EA052570
:1042F0002C434FF6DF752A400D8906EA05152A433F
:104300004D8806EA05152A43444DA84202D0494D7E
:10431000A8421DD14FF67F752A404D894FF6FF7692
:1043200006EA05152A434FF6BF752A408D8806EA2E
:1043300005152A434FF6FF352B404FF2FF752B40F2
:104340008D8906EA85052B43CD8906EA85052B4331
:1043500083800483CD880587028470BD70B50024F6
:1043600000220023058C4FF6FF6635400584028C41
:104370008388848B4FF68F752C404FF6FC752C404C
:104380000D882C434FF6FF552A400D894FF6FF76D6
:1043900006EA05252A434D8806EA05252A431F4DCE
:1043A000A84202D0234DA8421DD14FF2FF752A40EA
:1043B0004D894FF6FF7606EA05252A434FF6FF356D
:1043C0002A408D8806EA05252A434EF6FF752B40C4
:1043D0004DF6FF752B408D8906EA05152B43CD89D7
:1043E00006EA05152B4383808483CD888587028464
:1043F00070BD70B5002200230024058C4EF6FF76B8
:1044000035400584038C8488828B48F6FF752A40EA
:104410004FF6FF452A400D8820E00000002C0140A7
:104420000004004000080040000C00400010004064
:104430000014004000340140004C01400050014095
:104440000054014000180040001C004000200040C3
:104450000040014000440140004801404FF6FF7613
:1044600006EA05252A434DF6FF752B400D8906EA1D
:1044700005352B434D8806EA05352B43FA4DA842F6
:1044800002D0FA4DA84208D14BF6FF752C408D8919
:104490004FF6FF7606EA85152C4384808283CD880B
:1044A000A0F84050038470BD828B4FF2FF331A4056
:1044B0008283828B4FF6FF7303EA01231A438283C0
:1044C0007047F0B50C461546002200210026078CE7
:1044D0004EF6FF7C07EA0C070784828B018C4FF6AF
:1044E000FF7707EA043640F6FF473A404FF6FF777A
:1044F00007EA05273A434FF6FF7707EA03373A43BF
:10450000D94FB8420ED0D94FB8420BD0B0F1804F3E
:1045100008D0D74FB84205D0D64FB84202D0D64FB8
:10452000B84206D14DF6FF77394046F480573943FB
:1045300005E047F6FF57394044F4805739438283FA
:104540000184F0BD828B4FF6F3731A408283828B15
:104550000A4382837047F0B50C46154600220021BD
:104560000026078C4FF6FF6C07EA0C070784828B46
:10457000018C4FF6FF7707EA04264FF60C773A4096
:104580004FF6FF7707EA03172F433A43B64FB84277
:104590000ED0B64FB8420BD0B0F1804F08D0B44F18
:1045A000B84205D0B34FB84202D0B34FB84206D19B
:1045B0004FF6FF57394046F48077394305E04FF214
:1045C000FF57394044F48077394382830184F0BD3A
:1045D000028B4FF2FF331A400283028B4FF6FF73B8
:1045E00003EA01231A4302837047F0B50C461546CF
:1045F000002200210026078C4FF6EF7C07EA0C070B
:104600000784028B018C4FF6FF7707EA041640F609
:10461000FF473A404FF6FF7707EA03373A434FF632
:10462000FF7707EA05273A438F4FB8420ED08F4FE6
:10463000B8420BD0B0F1804F08D08D4FB84205D0B2
:104640008C4FB84202D08C4FB84206D14FF6DF777C
:10465000394046F01007394305E04FF65F7739409F
:1046600044F01007394302830184F0BD028B4FF6FA
:10467000F3731A400283028B0A4302837047F0B53A
:104680000C46154600220021068C4FF6FE773E4070
:104690000684028B018C4FF60C7632407E1C06EAB3
:1046A00003162E433243704EB0420ED06F4EB042CE
:1046B0000BD0B0F1804F08D06D4EB04205D06D4E9A
:1046C000B04202D06C4EB04206D14FF6FD7631407A
:1046D00044F00106314305E04FF6F576314044F0F1
:1046E0000106314302830184F0BD70B505460C46D6
:1046F0005D4885420ED05D4885420BD0B5F1804FB4
:1047000008D05B48854205D05A48854202D05A48B5
:10471000854200D100E000BF208850B92389A288DB
:1047200061882846FFF7ABFFE1882846FFF79EFF28
:1047300025E0208804280AD12389A2886188284698
:10474000FFF753FFE1882846FFF742FF17E0208874
:1047500008280AD12389A28861882846FFF7FBFE32
:10476000E1882846FFF7EEFE09E02389A2886188E8
:104770002846FFF7A6FEE1882846FFF795FE70BDA4
:104780002DE9F04105460C4600260127608808B94E
:10479000022600E00026A088012801D1022700E0BF
:1047A00001272088A0B92389A28861882846FFF7BD
:1047B00066FFE1882846FFF759FF23893A463146CC
:1047C0002846FFF712FFE1882846FFF701FF13E0B4
:1047D0002389A28861882846FFF707FFE1882846D9
:1047E000FFF7F6FE23893A4631462846FFF747FF92
:1047F000E1882846FFF73AFFBDE8F0810A884B8838
:104800001A438B881A43CB881A430B891A434B8966
:104810001A438B891A43A0F8442070474FF6FF7162
:10482000818000210180C180418001727047002198
:10483000018041808180C180018141818181C1816C
:104840007047002101804180012181800021C180C9
:10485000018170470021018041808180C1800181F8
:104860004181818170470000002C014000340140EB
:104870000004004000080040000C004021B1028804
:1048800042F00102028004E002884FF6FE731A40F3
:104890000280704731B1B0F8442042F40042A0F8E1
:1048A000442005E0B0F84420C2F30E02A0F84420F2
:1048B00070471AB183890B43838102E083898B435C
:1048C000838170478182704741EA0203A0F8483033
:1048D00070471AB183890B43838102E083898B433C
:1048E0008381704701894FF6F8721140018170474A
:1048F0000A46002101894FF68F7319401143018147
:10490000704730B504460D4629462046FFF7F0FFB4
:10491000208940F00700208130BD2DE9F041044698
:104920000D4616461F46602D06D13B4601223146F4
:104930002046FFF75AFE05E03B460122314620465D
:10494000FFF79DFE29462046FFF7D2FF208940F061
:1049500007002081BDE8F08130B50C4600210189B7
:10496000C9B24FF6FF7505EA0325154325432943D0
:10497000018130BD2DE9F04105460E4617469846A7
:10498000002443463A4631462846FFF7E5FF2C8986
:104990004FF6F870044044F007044FF68F7004405F
:1049A00044F070042C81BDE8F081F0B504460D465A
:1049B00016461F463B46324629462046FFF7CCFFA7
:1049C000208940F480402081F0BD018582827047BB
:1049D0000A46002101884FF68F7319401143018068
:1049E0007047F0B50C4615461E46002100220023F4
:1049F0000189028B038C4FF6F877394021434FF63B
:104A0000FC473A4040F201173A434FF6DD773B400E
:104A10004FF6FF7707EA06172F433B4301810283D6
:104A20000384F0BD0A460021018B4FF68F731940B5
:104A30001143018370470A460021018B48F6FF733A
:104A400019404FF6FF7303EA0223194301837047AD
:104A50000A460021818B4FF68F73194011438183E1
:104A600070470A460021818B48F6FF7319404FF6C4
:104A7000FF7303EA022319438183704721B102883F
:104A800042F08002028004E002884FF67F731A40F1
:104A90000280704721B1828842F00402828004E0E3
:104AA00082884FF6FB731A408280704721B182885A
:104AB00042F00802828004E082884FF6F7731A40C1
:104AC0008280704721B1828842F00102828004E036
:104AD00082884FF6FE731A40828070470A46002192
:104AE000018B4FF6F77319401143018370470A4653
:104AF0000021018B4FF2FF7319404FF6FF7303EA59
:104B000002231943018370470A460021818B4FF627
:104B1000F77319401143818370470A460021818B46
:104B20004FF2FF7319404FF6FF7303EA0223194354
:104B3000818370470A460021018B4FF6FB731940B1
:104B40001143018370470A460021018B4FF6FF3362
:104B500019404FF6FF7303EA02231943018370479C
:104B60000A460021818B4FF6FB7319401143818364
:104B700070470A460021818B4FF6FF3319404FF6EC
:104B8000FF7303EA02231943818370470A46002119
:104B9000018B4FF67F7319401143018370470A461A
:104BA0000021018BC1F30E014FF6FF7303EA0223CC
:104BB0001943018370470A460021818B4FF67F73AA
:104BC00019401143818370470A460021818BC1F34C
:104BD0000E014FF6FF7303EA0223194381837047E6
:104BE0000A460021018C4FF6FD73194011430184E0
:104BF00070470A460021018C4FF6F77319401143A4
:104C0000018470470A460021018C4FF6DF7319407A
:104C10004FF6FF7303EA02131943018470470A46F3
:104C20000021018C4FF67F7319404FF6FF7303EAA2
:104C300002131943018470470A460021018C4FF684
:104C4000FF5319404FF6FF7303EA0223194301840F
:104C500070470A460021018C4FF2FF7319404FF64E
:104C6000FF7303EA02231943018470470A460021B7
:104C7000018C4DF6FF7319404FF6FF7303EA0233C0
:104C800019430184704730B5002301248C40A3B23E
:104C9000048C9C430484048C02FA01F5ADB22C43CD
:104CA000048430BD30B5002304248C40A3B2048CAE
:104CB0009C430484048C02FA01F5ADB22C430484B5
:104CC00030BD70B503460020002418461830012579
:104CD0008D40ACB21D8CA5431D8409B1082909D1B2
:104CE00000EB6100056825F0700505600568154357
:104CF00005600EE00D1FC5F34E052844056825F438
:104D0000E045056005684FF6FF7606EA0226354362
:104D1000056070BD21B1028842F00202028004E009
:104D200002884FF6FD731A400280704721B1028855
:104D300042F00402028004E002884FF6FB731A403E
:104D40000280704721B1828842F08002828004E0B4
:104D500082884FF67F731A408280704702884FF630
:104D6000F7731A40028002880A43028070478288E3
:104D70004FF68F731A40828082880A438280704780
:104D800002894FF6F8731A40028102890A430281B0
:104D9000704702894FF67F731A40028102890A43E5
:104DA0000281704781847047818570478186704792
:104DB0000187704781877047A0F8401070470288CC
:104DC0004FF6FF431A40028002880A430280704770
:104DD0000146888E70470146088F70470146888FCC
:104DE00070470146B1F8400070470146888C704713
:104DF0000146088D704702460020138A0B400BB114
:104E0000012000E000207047CA430282704730B59D
:104E10000246002000230024158A05EA0103958933
:104E200005EA010413B10CB1012000E0002030BDFF
:104E3000CA4302827047000000206F490860486042
:104E40008860C86048628862C8626C4888630020D5
:104E5000C86370470021684A516847F6FF62914372
:104E6000027D83681A4343681A43C3681A43036880
:104E70001A4303691A4311435F4A51607047002186
:104E80000175016041608160C160016170475C49EA
:104E9000086070475849096821F00301564A1160BB
:104EA000114609680143116070475348006800F0DB
:104EB0000300704729B1504AD26B02434E4BDA636C
:104EC00004E04D4AD26B82434B4BDA6370474D4945
:104ED000086070470021484B02689A601A46D16802
:104EE0006FF30A01D0E901231A43C3681A43036927
:104EF0001A431143404AD16070470021016041606C
:104F00008160C160016170473B480069C0B2704771
:104F100008B501460020009037481430084400903E
:104F20000098006808BD0021334B02685A6242684D
:104F30009A621A46D16A21F0F701D0E902231A4396
:104F400003691A4343691A4311432B4AD1627047DC
:104F50004FF0FF310160002141608160C16001615B
:104F6000416170472448006B7047234880300068D7
:104F7000704721498031086070471F48806C704736
:104F800020491431086070471E4918310860704785
:104F90001C491C31086070471A492031086070476D
:104FA0001949086070471849091D086070470121B8
:104FB0008143154A08321160704713490C3108606B
:104FC0007047014600200C4A526B0A400AB101208A
:104FD00000E00020704708498863704701460020C0
:104FE000054A526B0A400AB1012000E000207047D8
:104FF000014988637047000000800140FF07C0003E
:10500000A00030428C053042AC01304200204449BF
:105010000860091D0860091D0860091D08604148F5
:105020003F4914310860704700213D498279002AC8
:105030003AD00A46126803689A430B461A600A1D62
:10504000126803689A430B1D1A60027911440A68BA
:1050500003681A430A60324A0832126803689A43A6
:105060002F4B08331A601A1D126803689A432C4BA1
:105070000C331A604279102A0ED11A1F1268036885
:105080001A43274B08331A601A1D126803681A4323
:10509000234B0C331A600DE02149427911440A6810
:1050A00003681A430A6005E0027911440A6803683C
:1050B0009A430A6070470021016001710C2141711F
:1050C0000021817170471649103109680143144A63
:1050D00010321160704701460020114A14321268E4
:1050E0000A400AB1012000E0002070470C49143149
:1050F00008607047014600200022094B1B6803EA44
:105100000102074B14331B680B4013B10AB1012095
:1051100000E0002070470249143108607047000029
:1051200000040140FFFF0F0010B50446CC48844244
:1051300008D10121042000F02DFB0021042000F003
:1051400029FB46E0C748844208D10121082000F02D
:1051500021FB0021082000F01DFB3AE0C2488442F8
:1051600008D10121102000F015FB0021102000F0D3
:1051700011FB2EE0BD48844208D10121202000F01F
:1051800009FB0021202000F005FB22E0B848844202
:1051900008D10121402000F0FDFA0021402000F05C
:1051A000F9FA16E0B348844208D10121802000F0CA
:1051B000F1FA0021802000F0EDFA0AE0AE488442C6
:1051C00007D10121801500F0E5FA0021A01500F0BB
:1051D000E1FA10BD10B50121084600F0DBFA00210C
:1051E000012000F0D7FA10BD2DE9F041024600255C
:1051F0000026002000230024002791F803C00CF0B3
:105200000F0591F803C00CF0100CBCF1000F03D097
:1052100091F802C04CEA050591F800C0BCF1000FFE
:1052200031D0146800202BE04FF0010C0CFA00F391
:10523000B1F800C00CEA03069E4220D183004FF073
:105240000F0C0CFA03F7BC4305FA03FC4CEA040408
:1052500091F803C0BCF1280F06D14FF0010C0CFAF5
:1052600000FCC2F814C00AE091F803C0BCF1480F7A
:1052700005D14FF0010C0CFA00FCC2F810C0401C24
:105280000828D1D31460B1F800C0BCF1FF0F34DDA1
:10529000546800202EE000F1080C4FF0010808FAD5
:1052A0000CF3B1F800C00CEA03069E4221D1830042
:1052B0004FF00F0C0CFA03F7BC4305FA03FC4CEA61
:1052C000040491F803C0BCF1280F05D100F1080CCB
:1052D00008FA0CF8C2F8148091F803C0BCF1480F2A
:1052E00007D100F1080C4FF0010808FA0CF8C2F8D9
:1052F0001080401C0828CED35460BDE8F0814FF6E2
:10530000FF710180022181700421C1707047024643
:10531000002093680B400BB1012000E00020704793
:105320000146886880B2704702460020D3680B406F
:105330000BB1012000E0002070470146C86880B230
:10534000704701617047416170470AB1016100E037
:1053500041617047C16070474FF480320A438261F7
:105360008161826182698269704702460020434BF5
:1053700018684FF68073184040EA021008433F4B0C
:10538000186070473E49C8617047F0B50A4600236F
:1053900000240021002500F00046B6F1004F02D1A4
:1053A000364EF16901E0354E7168C0F3034583B2B2
:1053B00000F44016B6F5401F08D121F070612F4E61
:1053C000766826F070662D4F7E6012E000F480163D
:1053D000B6F5801F06D1032606FA05F4A14341F075
:1053E000706106E0460D360103FA06F6B14341F05E
:1053F000706122B1460D360103FA06F6314300F022
:105400000046B6F1004F02D11C4EF16101E01B4E87
:105410007160F0BD30B500228B071C0F0F2303FA1B
:1054200004F2164B08338C1053F824309343134C7A
:1054300008348D1044F8253023468C1053F824305E
:105440008C07240F00FA04F423430C4C08348D100D
:1054500044F8253030BD0A49DC310860704700004F
:1054600000080140000C0140001001400014014000
:1054700000180140001C01400020014000000140D4
:1054800000002042DF48006840F00100DD4908606C
:1054900008464068DC490840DA4948600846006828
:1054A000DA490840D74908600846006820F480209F
:1054B00008600846406820F4FE0048604FF41F0072
:1054C00088607047CF49096821F48031CD4A116066
:1054D0001146096821F480211160B0F5803F03D0A6
:1054E000B0F5802F0ED106E0C649096841F480313D
:1054F000C44A116007E0C349096841F4A021C14AC8
:10550000116000E000BF00BF704710B501460022E7
:10551000002300204A11012A02D1BA4C236806E078
:10552000022A02D1B74C236A01E0B64C636A01F04B
:105530001F02012494401C400CB1012000E0002017
:1055400010BD38B5002000900024002500BF312098
:10555000FFF7DBFF05460098401C00900098B0F56F
:10556000A06F01D0002DF2D03120FFF7CEFF08B19F
:10557000012400E00024204638BD01460020A14A55
:10558000106820F0F80040EAC10010607047A049A0
:1055900008607047024600209A4B586820F47C103F
:1055A00042EA01031843974B5860704798490866D0
:1055B000704701460020934A506820F003000843DA
:1055C000506070478F48406800F00C0070470146FB
:1055D00000208C4A506820F0F0000843506070476B
:1055E00001460020874A506820F4E060084350607C
:1055F000704701460020834A506820F4605040EA1A
:10560000C1005060704729B17E4A527A02437D4BF7
:105610005A7204E07B4A527A82437A4B5A7270473C
:105620007B49D8310860704701460020754A5068B0
:1056300020F440400843506070470021714A2032F6
:105640001170704A82F82010012802D004280AD173
:1056500004E001216B4A2032117005E00521694AFE
:105660002032117000E000BF00BF70476949086038
:1056700070476449096A0143624A1162704765498B
:1056800044390860704730B500210022002400230F
:105690005C4D6D6805F00C0121B1042905D0082985
:1056A00023D105E05C4D056022E05B4D05601FE005
:1056B000544D6D6805F47012524D6D6805F48034D8
:1056C000022505EB92421CB9544D554305600BE091
:1056D0004C4D6D6805F400351DB1504D55430560C6
:1056E00002E04D4D5543056002E04B4D056000BFA3
:1056F00000BF444D6D6805F0F0010909484D6B5C31
:105700000568DD4045603F4D6D6805F4E061090ABC
:10571000434D6B5C4568DD4085603A4D6D6805F42E
:105720006051C90A3E4D6B5C4568DD40C560354D32
:105730006D6805F44041890B3A4D6B5CC568B5FB5B
:10574000F3F5056130BD29B12E4A526902432D4B54
:105750005A6104E02B4A526982432A4B5A617047CE
:1057600029B1284A92690243264B9A6104E0254AEE
:1057700092698243234B9A61704729B1214AD269C9
:105780000243204BDA6104E01E4AD26982431D4B7A
:10579000DA61704729B11B4AD2680243194BDA60BB
:1057A00004E0184AD2688243164BDA60704729B188
:1057B000144A12690243134B1A6104E0114A126938
:1057C0008243104B1A617047124940390860704794
:1057D0000F49C86470470B49C87170470948406A4F
:1057E00040F0807007494862704701460020054A32
:1057F00092680A400AB1012000E000207047014988
:1058000088727047001002400000FFF8FFFFF6FEAC
:10581000000042428004424200127A0000093D002A
:10582000D8000020E800002010B50446BE4884429D
:1058300008D101218014FFF7ADFF0021A014FFF76C
:10584000A9FF16E0B948844208D101210014FFF7EE
:10585000AEFF00212014FFF7AAFF0AE0B4488442FB
:1058600007D10121C013FFF7A2FF0021E013FFF7CA
:105870009EFF10BD10B50022028802F441520B8831
:105880004C8823438C882343CC8823430C892343AF
:105890004C8923438C892343CC8923431A430280B8
:1058A000838B4FF2FF74234083830B8A038210BDE6
:1058B0002DE9F04F85B005460C464FF00009022750
:1058C0004FF000084FF0010B0026B246A88B4FF2B4
:1058D00040010840A88302202884B5F81C90A068E5
:1058E000022801D100BF38E0A08810B94FF0010BA9
:1058F00001E04FF0020B8D48854200D100E000BF6F
:105900006846FFF7C0FEDDF800A0E088B0F5007F34
:105910000AD14FEA1A2000EB80004000A168B0FBDA
:10592000F1F0401D86B20BE04FEA4B10BAFBF0F0ED
:1059300000EB80004000A168B0FBF1F0401D86B292
:105940000A20B6FBF0F606F00108A6EB0800C0F34B
:105950004F074FF6FF7000EA0828022F01DBFF2FE8
:1059600002DD02274FF00008E08840EA08003843D3
:105970002884A088A18908436188084321880843B6
:1059800040F4006040EA0909A5F81C9005B0BDE8A4
:10599000F08F0021018041808180C180018141819F
:1059A0008181C181072101827047002101804180EE
:1059B0008180C1800221816000218181704721B1F5
:1059C000028842F04002028004E002884FF6BF7372
:1059D0001A400280704721B1828B42F48062828338
:1059E00004E0828B4FF6FF331A408283704730B554
:1059F000002400230C110125A540ABB21AB1858803
:105A00001D43858002E085889D43858030BD1AB1A5
:105A100083880B43838002E083888B4383807047B5
:105A2000818170470146888970474FF6FF62914235
:105A300004D0028842F48072028004E002884FF6AB
:105A4000FF631A400280704721B1828842F004024D
:105A5000828004E082884FF6FB731A408280704790
:105A600002884FF2FF731A40028002880A430280C4
:105A70007047018841F480510180704721B102884C
:105A800042F40052028004E002884DF6FF731A408F
:105A90000280704702460020012901D0108B00E0EF
:105AA000908A70470146088A7047B1F5804F04D14B
:105AB000028842F48042028004E002884BF6FF73C1
:105AC0001A40028070470246002013890B400BB138
:105AD000012000E000207047CA4302817047F0B502
