:020000040800F2
:1000000038170020A1370008D1020008D3020008E9
:10001000D7020008DB020008DF0200080000000031
:10002000000000000000000000000000E3020008E3
:10003000E502000800000000E7020008E9020008ED
:10004000BB370008BB370008BB370008BB370008C8
:10005000BB370008BB370008BB370008390600086B
:10006000BB370008BB370008BB370008BB370008A8
:10007000BB370008BB370008BB370008BB37000898
:10008000BB370008BB370008BB370008BB37000888
:10009000BB370008BB370008BB370008BB37000878
:1000A000BB370008BB370008BB370008BB37000868
:1000B000F9120008BB370008BB370008BB3700083F
:1000C000BB370008BB370008BB370008BB37000848
:1000D000BB370008990F0008FF100008BB37000865
:1000E000BB370008BB370008BB370008BB37000828
:1000F000BB370008BB370008BB370008BB37000818
:10010000BB370008BB370008BB370008BB37000807
:10011000BB370008BB370008BB370008BB370008F7
:10012000BB370008BB370008BB370008BB370008E7
:1001300000F002F800F090F80AA090E8000C824469
:100140008344AAF10107DA4501D100F085F8AFF246
:10015000090EBAE80F0013F0010F18BFFB1A43F0A5
:10016000010318471042030030420300103A24BF35
:1001700078C878C1FAD8520724BF30C830C144BF0C
:1001800004680C607047000000230024002500264E
:10019000103A28BF78C1FBD8520728BF30C148BFEA
:1001A0000B6070476E2908F09380702908F0E78192
:1001B000662909F00782652909F00482672909F098
:1001C00001826129AFF3008003681B0A28BF41F058
:1001D0008001692907F03286642907F02F86752986
:1001E00007F02C866F2908F07481782908F0B38114
:1001F000E92908F00F81E42908F00C81F52908F0BD
:100200000981EF2908F07181F82908F0B2810368AB
:10021000DB0928BF41F08001632908F04B84732972
:1002200008F05084E32908F05B84F32908F0608427
:10023000002070471FB508F0B1FC04000020002129
:1002400009F0AAF9401C60600020002109F08EF935
:10025000E0601FBD10B510BD08F072FC1146FFF73D
:10026000E9FF00F009F808F04FFD03B4FFF7F2FFD3
:1002700003BC00F02BFE000000F076FF4FF4FA7094
:1002800000F0A7FF4FF4E13000F043FE00F0C8F9A2
:1002900009A007F0C7FD00F073F800BF0A48006826
:1002A00000F4E06009490843001D07490860BFF3F6
:1002B0004F8F00BF00BFFEE7B3F5CABCBBAFCDEAAE
:1002C000B3C90D0A000000000CED00E00000FA05C3
:1002D000704700BFFEE700BFFEE700BFFEE700BFBC
:1002E000FEE77047704770470448008820B1034814
:1002F0000088401E0149088070470000000000206F
:1003000000BF011EA0F10100FBD1704730B50346CC
:100310000024002500BF08E0002503E07820FFF757
:10032000EFFF6D1C9D42F9D3641C052CF4D330BD46
:1003300070B50024002500BF1DE000F0CEFC642055
:10034000FFF7E4FF00F00AFD28B900F021FA32209F
:10035000FFF7DCFF0DE00A20FFF7D8FF00F0C1FC3B
:1003600028B900F015FA3220FFF7D0FF01E001258F
:1003700003E0601CC4B2052CDFDB00BF284670BD63
:100380000024B4A007F04EFDBAA007F04BFDBCA0BE
:1003900007F048FDBDA007F045FDBFA007F042FDF6
:1003A000C1A007F03FFDC3A007F03CFDC4A007F0CB
:1003B00039FD0020C549087057E0C548007800B1F4
:1003C00053E0C2480078102815D003DC48B101285A
:1003D00041D104E011283FD031283CD100E000BFDA
:1003E0003EE00120B9490870FFF7A2FF10B93120A3
:1003F000B649087034E000F0FCFC0446642000F0CC
:10040000E8FE2146B3A007F00DFD072C1DD2DFE862
:1004100004F01C04080C10141800B2A007F002FD30
:1004200014E0B7A007F0FEFC10E0BBA007F0FAFC58
:100430000CE0C0A007F0F6FC08E0C4A007F0F2FC56
:1004400004E0C8A007F0EEFC00E000BF00BF002001
:100450009E49087004E000BF00209C49087000BF5E
:1004600000BF204607F091FC00BFA6E708B50C20AE
:10047000ADF8000003208DF8020010208DF8030075
:100480006946BE4804F004FD0821BC4804F0ADFDF7
:100490000421BA4804F0A9FD08BD00B587B00121C8
:1004A00048F2080004F0BDFF0121B54804F0C1FD89
:1004B0003820ADF8040003208DF8060018208DF8D0
:1004C000070001A9AF4804F0E3FC4FF40070ADF859
:1004D000040003208DF8060010208DF8070001A904
:1004E000A84804F0D5FC4FF48071A64804F07DFDC7
:1004F0000021A54805F0B7F80020ADF808004FF43A
:100500008270ADF80A000020ADF80C000220ADF8B2
:100510000E000020ADF810004FF40070ADF812008E
:100520002820ADF814000020ADF816000720ADF823
:10053000180002A9944804F0F1FF0121924805F047
:1005400092F807B000BD1FB50121102004F05CFF38
:100550000220ADF8000004208DF8030003208DF880
:1005600002006946854804F093FC0121022004F052
:10057000A5FD0220029000208DF80C000C208DF8C3
:100580000D0001208DF80E0002A804F0A1FB02204E
:1005900004F0EDFB0221794804F027FD022004F06D
:1005A000F9FB022004F00BFC07208DF8040000206A
:1005B0008DF805008DF8060001208DF8070001A8D0
:1005C00003F013F91FBD08B50121052004F01CFF3D
:1005D0004FF48070ADF8000018208DF80300032060
:1005E0008DF802006946694804F052FC072004F0C7
:1005F00046FF01213C2004F007FF4FF4E070ADF806
:10060000000003208DF8020010208DF803006946D9
:100610005C4804F03DFC80215A4804F0E6FC08BD2B
:1006200010B5FFF7D0FFFFF78EFFFFF736FFFFF79C
:100630001DFF00F0ADF810BD10B5022004F0AEFBB8
:1006400038B100F065FA022004F0A4FB022004F0A7
:10065000B6FB10BDBBF9D3DAB5A5C6ACBBFAB5C4C1
:10066000D6C7C4DCD3EFD2F4BFD8D6C6CFB5CDB38E
:100670000D0A0000BFDAC1EEA3BA0D0A00000000A7
:1006800031A1A2C1F7CBAEB5C60D0A0032A1A2C9F5
:10069000C1CBB80D0A00000033A1A2B0B4BCFCB4B9
:1006A000A5B7A20D0A00000034A1A2C8ABC3F00D8B
:1006B0000A00000035A1A2BFAAB5C60D0A000000BD
:1006C00036A1A2B9D8B5C60D0A000000020000206C
:1006D0008D0000200D0ACAB6B1F0C2EB3A25640DB8
:1006E0000A000000A1B0C1F7CBAEB5C6A1B1C3FCF2
:1006F000C1EECAB6B1F0B3C9B9A60D0A0000000038
:10070000A1B0C9C1CBB8A1B1C3FCC1EECAB6B1F0AA
:10071000B3C9B9A60D0A0000A1B0B0B4BCFCB4A521
:10072000B7A2A1B1C3FCC1EECAB6B1F0B3C9B9A6B4
:100730000D0A0000A1B0C8ABC3F0A1B1C3FCC1EE6B
:10074000CAB6B1F0B3C9B9A60D0A0000A1B0BFAADC
:10075000B5C6A1B1C3FCC1EECAB6B1F0B3C9B9A662
:100760000D0A0000A1B0B9D8B5C6A1B1C3FCC1EE55
:10077000CAB6B1F0B3C9B9A60D0A00000010014015
:1007800000023000000C0140003C00400008014025
:1007900010B54021F74804F028FC6420FFF7B6FDAF
:1007A0004021F44804F023FC6420FFF7AFFD402112
:1007B000F04804F01AFC6420FFF7A8FD4FF48071A4
:1007C000EC4804F014FC6420FFF7A0FD4FF48071A6
:1007D000E84804F00AFC6420FFF798FD10BD10B54E
:1007E000062000F052FB3521172000F032FB0520D7
:1007F000FFF78CFD062000F048FB0321892000F064
:1008000028FB0520FFF782FD4321CF2000F021FBCC
:100810000520FFF77BFD0221CB2000F01AFB112100
:10082000084600F016FBD4480078402810D100217B
:100830001E2000F00EFB0F21192000F00AFB1821EA
:100840001B2000F006FB2C211D2000F002FB0FE016
:1008500000211E2000F0FDFA3F21192000F0F9FAD6
:1008600048211B2000F0F5FA1F211D2000F0F1FAAD
:100870000520FFF74BFD0421CD2000F0EAFA4C21C2
:10088000172000F0E6FA0120FFF740FD0021B92013
:1008900000F0DFFA4F21CF2000F0DBFAFF216F20BC
:1008A00000F0D7FA10BD10B50820B3490870FFF763
:1008B00096FF0021BD2000F0CCFA4821172000F05F
:1008C000C8FA0520FFF722FD80213C2000F0C1FA84
:1008D00007213E2000F0BDFAFF21382000F0B9FAD0
:1008E00007213A2000F0B5FA0021402000F0B1FACB
:1008F0000821422000F0ADFA0021442000F0A9FABE
:100900000821462000F0A5FA0120FFF7FFFC10BDEA
:1009100010B5402098490870FFF761FF0221BD2003
:1009200000F097FA4821172000F093FA642000F0B5
:1009300050FC5221852000F08CFA00218F2000F01D
:1009400088FA0021812000F084FA0021832000F041
:1009500080FAFF218E2000F07CFAFF218D2000F02C
:1009600078FA642000F035FCFF21872000F071FA4E
:10097000FF21892000F06DFA642000F02AFC00219C
:10098000222000F066FA0021232000F062FAEF2115
:10099000202000F05EFA0721212000F05AFA77218A
:1009A000242000F056FA0321252000F052FABB2142
:1009B000262000F04EFA0121272000F04AFA10BD4F
:1009C00070B50025062000F060FA044608E0FF211B
:1009D000012000F03EFA6D1C062000F056FA044695
:1009E00004F008000028F2D070BD10B50020634963
:1009F0000860012062490870604800686149096820
:100A0000884200D310BDFFF7DBFF0021BA2000F0C1
:100A100020FA4821172000F01CFA0121332000F0B1
:100A200018FA0421292000F014FA0121022000F014
:100A300010FA5A21852000F00CFA00BFE2E710B549
:100A40000446C4F10F000007840E44F0C3018E2059
:100A500000F0FFF97821872000F0FBF910BD38B5D0
:100A6000062000F012FA044613E044480068401CD7
:100A700042490860012269464348006805F043F88E
:100A80009DF80010012000F0E4F9062000F0FDF9C7
:100A9000044604F0080028B9384800683949096854
:100AA0008842E2D9354800683649096888422ED321
:100AB0000121BC2000F0CDF91021292000F0C9F956
:100AC00000BFBA2000F0E1F900F020000028F8D0C3
:100AD00000212B2000F0BDF90021BA2000F0B9F967
:100AE0000021BC2000F0B5F9002025490870012143
:100AF000082000F0AEF90021082000F0AAF900213A
:100B0000332000F0A6F92048006804F0F1FF38BD5A
:100B100010B500242B2000F0B8F91C4908701648C5
:100B20000078082843D10021292000F092F9002103
:100B3000022000F08EF91548007800F0100048B34C
:100B4000B22000F0A2F9212825D1BF2000F09DF9A4
:100B5000352820D1BA2000F098F90446002C05DD94
:100B6000042C03DC10200A49087017E01120084902
:100B7000087013E0000C01408C0000208800002069
:100B80008D00002084000020940000208E000020B2
:100B900002000020FFE711209849087000212B2057
:100BA00000F057F900211C2000F053F910BD292056
:100BB00000F06BF992490870022000F066F9914943
:100BC00008700021292000F044F90021022000F0E3
:100BD00040F9BA2000F059F900F02000F8B10021E6
:100BE0002B2000F036F90021BA2000F032F9002164
:100BF000BC2000F02EF90020834908700121082054
:100C000000F027F90021082000F023F9002133200B
:100C100000F01FF97D48006804F06AFFC6E77C48D1
:100C200000687C49096888420CD30121BC2000F08F
:100C300010F91021292000F00CF97448006804F024
:100C400057FFB3E7FFF70BFF6D480178292000F04D
:100C500000F96C480178022000F0FBF800BFA5E71E
:100C600070B505460C4600221146284604F02CFFBC
:100C70006649086008460068401C30B908460068AC
:100C800004F036FF6148006870BD01205E490870BD
:100C90005E48006804F076FF401E5E490860FFF77A
:100CA00037FE2046FFF7CBFEFFF79FFE0020EBE765
:100CB00070B5002500240BE0B22000F0E6F82128F2
:100CC00001D1012506E00A20FFF720FB601CC4B219
:100CD0000A2CF1DB00BF284670BD10B5FFF7E3FD1D
:100CE00010BD10B54321352000F0B3F809211C20B8
:100CF00000F0AFF82021BD2000F0ABF80121082062
:100D000000F0A7F80520FFF701FB0021082000F004
:100D1000A0F80520FFF7FAFAFFF7CAFF08B900208C
:100D200010BDFF21B22000F094F80621372000F01A
:100D300090F80621372000F08CF80520FFF7E6FA3E
:100D40000B211C2000F085F81021292000F081F8EB
:100D50000021BD2000F07DF80120E1E770B50126FB
:100D6000002441E0FFF7A4FF08B900263EE02A482E
:100D7000015DC12000F06DF80021C32000F069F88A
:100D80000421082000F065F80120FFF7BFFA0021D8
:100D9000082000F05EF80120FFF7B8FA002512E005
:100DA00004EB84001D4901EB8000405D00B90CE0BC
:100DB00004EB8400194A02EB8000415D052000F03D
:100DC00048F8681CC5B2142DEADB00BF2946B920DB
:100DD00000F03FF8FF21B22000F03BF8042137205B
:100DE00000F037F8601CC4B2062CBBDB00BF3046F5
:100DF00070BD10B5C52000F048F810BD02000020FD
:100E00008F000020900000208D0000209400002022
:100E100088000020840000207C00002004000020C6
:100E200010B5044600BF0221264804F0A0FC0028AB
:100E3000F9D02146234804F047FC00BF0121214896
:100E400004F095FC0028F9D01E4804F03FFCC0B225
:100E500010BD70B505460C464FF480711A4804F079
:100E6000C6F84FF40071184804F0C1F80420FFF7E9
:100E7000D7FF2846FFF7D4FF2046FFF7D1FF4FF4F6
:100E80008071114804F0B1F870BD70B504464FF49C
:100E900080710D4804F0ABF84FF400710A4804F07B
:100EA000A6F80520FFF7BCFF2046FFF7B9FF00209A
:100EB000FFF7B6FF05464FF48071034804F095F83C
:100EC000284670BD003C0040000C0140014600BFB8
:100ED000704700BF4F4A128802F04002002AF9D042
:100EE000C2B24C4B1B1D1A80704708B54FF4E0602E
:100EF00002F076FC25208DF8000003208DF801001B
:100F00008DF8020001208DF80300684602F06DFCA8
:100F100008BD10B586B00446012144F2040004F077
:100F200073FA3C4802F0CAFC4FF40070ADF81400AC
:100F300003208DF8160018208DF8170005A93648F3
:100F400003F0A6FF4FF48060ADF8140004208DF884
:100F5000170005A9304803F09BFF01940020ADF86D
:100F60000800ADF80A00ADF80C00ADF810000C2038
:100F7000ADF80E0001A9274802F0E3FC012240F27F
:100F80002551244802F075FD0121224802F065FD3B
:100F9000FFF7ABFF06B010BD10B540F225511D485C
:100FA00002F04CFE10B31B4802F0C8FDC4B21B484F
:100FB000008800F40040C8B91848008800F4804058
:100FC00060B10A2C03D000201449088020E01348A7
:100FD000008840F400401149088019E00D2C06D12A
:100FE0000E48008840F480400C49088010E00B480F
:100FF0000088C0F30D000A490C5408480088401CC2
:101000000649088008460088FF2801DD0020088086
:1010100010BD000000380140000801409C00002085
:10102000FC00002008B54FF4E06002F0D9FB262058
:101030008DF8000002208DF801008DF802000120DB
:101040008DF80300684602F0D0FB08BD10B586B0ED
:1010500004460121042004F0D7F90121480404F0DA
:10106000E0F93B4802F02AFC0420ADF8140003200C
:101070008DF8160018208DF8170005A9354803F0E3
:1010800007FF0820ADF8140004208DF8170005A90B
:10109000304803F0FDFE01940020ADF80800ADF8E3
:1010A0000A00ADF80C00ADF810000C20ADF80E00F1
:1010B00001A9274802F045FC0121254802F0CDFC9A
:1010C00001228021224802F0F9FC4FF48063224A79
:1010D0001F49091D214800F093F8012240F22551D3
:1010E0001B4802F0C6FC41F61F41632000F0D1F816
:1010F000FFF798FF00201A49088006B010BD144879
:10110000001D00881749164A128888541448008820
:10111000401C1349088070470FB438B505A80090EB
:101120000D48009A049906F06BFE002000900A48D2
:1011300006F084FF84B22146084800F086F800BF1C
:101140000648001D00680028FAD138BC5DF814FB81
:101150000044004000080140FC05002080000240DF
:101160009E000020FC01002030B500BF1F48006831
:101170001F4AB0FBF2F1B1F1807F01D301201DE0E5
:1011800021F07F40401E4FF0E022506150170F22A7
:10119000002807DA13071D0E164B00F00F04241F5A
:1011A0001D5503E013071C0E134B1C5400BF0020F9
:1011B0004FF0E02290610720106100200028D5D177
:1011C00030BD0E49088000BF0C4909880029FBD1B9
:1011D000704700B5024603E04FF47A70FFF7F1FF65
:1011E000101EA2F101018AB2F6D100BDC800002094
:1011F00040420F0018ED00E000E400E00000002095
:10120000F0B58BB007460C4615461E460121084630
:1012100004F0EDF8384604F0E1FA0094019510204E
:1012200002900396002004908020059000200690F4
:10123000079008904FF48050099000200A9069466A
:10124000384604F06DFB0BB0F0BD70B504460D469A
:101250000021204604F08FFB2946204604F0A0FB25
:101260000121204604F087FB70BD000008B54FF453
:10127000E06002F0B5FA1C208DF8000001208DF826
:1012800001008DF802008DF80300684602F0ADFA07
:1012900008BD3EB505460C460121084604F0C1F8DC
:1012A0004FF0804002F00EFD4FF0804003F06EF9E9
:1012B000ADF80450ADF800400020ADF80600ADF8E0
:1012C000020069464FF0804002F0D0FD01218807FE
:1012D00003F0EEFB00214FF0804003F023FA0122DF
:1012E0001146900703F039F900214FF0804003F0D8
:1012F00019F9FFF7BBFF3EBD10B50848008840F460
:1013000000400649088000214FF0804003F00AF9B0
:101310000121880703F0E0FB10BD00009E000020C3
:1013200008B5002003F007FC002003F007FC03F0E1
:10133000D7FB00214FF4806004F059F84FF4F850C7
:10134000ADF8000004208DF803006946F94803F069
:101350009FFD0420ADF800006946F74803F098FDB2
:1013600008BD08B50121B02004F04EF84FF4F85044
:10137000ADF8000003208DF8020018208DF803005E
:101380006946EC4803F084FD0420ADF8000069468E
:10139000E94803F07DFD0121880204F028F80121CD
:1013A000022004F024F808BD30B58BB005460C4689
:1013B000E24804F00FFB0021E14804F0DCFAE148C8
:1013C0000090019510200290A00803900020049046
:1013D00080200590800006908000079000200890F3
:1013E0004FF40050099000200A906946D44804F058
:1013F00097FA0121D24804F0BEFA0BB030BD30B5E7
:101400008BB005460C46CD4804F0E4FA0021CC48E8
:1014100004F0B1FACB480090019500200290A0089A
:1014200003900020049080200590800006908000AA
:101430000790002008904FF40050099000200A9077
:101440006946BF4804F06CFA0121BD4804F093FAE4
:101450000BB030BD10B5BC4804F0A8FA10BD10B5F3
:10146000FFF75EFF10BD01462A2019B1012901D006
:10147000022902D1B54A116000E0262070472DE90B
:10148000F04106462A27AF488038456B02E0AD4858
:101490008038456B05F045000028F8D005F00400C1
:1014A00030B10327042003F0EAFB3846BDE8F081A1
:1014B00005F0010028B10127012003F0E0FB3846C8
:1014C000F4E703F075FBB04202D010273846EDE791
:1014D00040F2FF5003F0D3FB002003F06DFB044605
:1014E0009B48204008B93846E0E704F0004008B1C6
:1014F0001C20DBE704F0804008B10920D6E704F0A7
:10150000005008B10A20D1E704F0805008B10B2048
:10151000CCE704F0006008B10C20C7E704F080605D
:1015200008B10D20C2E704F0807008B10E20BDE7BD
:1015300004F4000008B10F20B8E704F4800008B1FB
:101540001020B3E704F4001008B11120AEE704F452
:10155000801008B11220A9E704F4002008B113207C
:10156000A4E704F4802008B114209FE704F40030BD
:1015700008B115209AE704F4803008B1162095E7E9
:1015800004F4004008B1172090E704F4804008B14B
:1015900018208BE704F4005008B1192086E704F006
:1015A000080008B11A2081E738467FE72DE9FC41A1
:1015B00007460D4600262A240020009001900820AE
:1015C0006449086010204860402088600020C8609E
:1015D0004FF480600861084603F0D0FA1020FFF74E
:1015E0004EFF04462A2C02D02046BDE8FC815A4812
:1015F0000088000457490860372048604020886010
:101600000020C8604FF480600861084603F0B6FA15
:101610003720FFF734FF04462A2C01D02046E4E7A8
:101620004E484F49086008204860302088600220FA
:10163000C8600020086101204861084603F0C7FA2D
:101640000020444908603320486040208860002022
:10165000C8604FF480600861084603F08FFA3320B9
:10166000FFF70DFF04462A2C01D02046BDE709E014
:101670004FF4001003F0F9FA20B103F0CAFA4DF864
:101680002600761C2F488038406B40F22A610840C3
:101690000028EDD0082003F0E8FA28B1082003F074
:1016A000EEFA04242046A0E7022003F0DEFA28B177
:1016B000022003F0E4FA0224204696E7202003F0FB
:1016C000D4FA28B1202003F0DAFA062420468CE769
:1016D0004FF4007003F0C9FA30B14FF4007003F01A
:1016E000CEFA0724204680E740F2FF5003F0C7FA05
:1016F00000980006009901F47F4140EA012000991A
:1017000001F47F0140EA1120009940EA116068600D
:1017100001980006019901F47F4140EA01200199F6
:1017200001F47F0140EA1120019940EA116028602C
:1017300020465AE7001001400014014000F000105C
:10174000440402408080014000200010A8000020D6
:1017500008E0FFFD840A0020A4000020FFFF0F0026
:10176000980A00207CB505462A24002000900190AC
:1017700003F022FA00F0007010B10E2420467CBD68
:10178000FE49098888B26946FFF710FF04462A2CF3
:1017900001D02046F3E7012D38D1019800F48020D4
:1017A000002830D0F54800880004F549086037204B
:1017B0004860402088600020C860A8020861084690
:1017C00003F0DCF93720FFF75AFE04462A2C01D03B
:1017D0002046D4E70220EA490860062048604020FD
:1017E00088600020C8604FF480600861084603F0FC
:1017F000C5F90620FFF743FE04462A2C01D02046F7
:10180000BDE72046BBE725242046B8E7019800F451
:10181000803078B3D94800880004D949086037205F
:101820004860402088600020C8604FF480600861F4
:10183000084603F0A3F93720FFF721FE04462A2CBF
:1018400001D020469BE70020CD4908600620486073
:10185000402088600020C8604FF48060086108461E
:1018600003F08CF90620FFF70AFE04462A2C02D06A
:10187000204684E701E0204681E7252420467EE7D4
:1018800070B504462A25BF480068032802D12725E1
:10189000284670BDBB48006838B1BA4800680128C6
:1018A00003D0B8480068022830D1B4F5805F02D177
:1018B00027252846EDE7B4F5006F15D10120FFF785
:1018C00051FF05462A2D21D10120AF49087500207E
:1018D0000860486088604FF40060C86000200861BC
:1018E000084603F00BF911E00020FFF73BFF054627
:1018F0002A2D0BD10120A4490875002008604860FA
:101900008860C8600861084603F0F8F82846C0E718
:1019100070B504462A259A48046007209849486013
:10192000402088600020C8604FF48060086108464D
:1019300003F024F90720FFF7A2FD0546284670BDF5
:1019400030B501462A2000228E4B1B7881F84E309C
:101950008A4B1B88A1F84C308C4B1B681A0E9309DC
:101960000B70C2F383034B7002F003038B70874B41
:101970001B68C3F30742CA70844B1B88C3F307225A
:101980000A71824B1A784A715B681A0E1301CB8078
:101990007E4B5B68C3F30742CB8843EA1213CB80CC
:1019A00002F00F030B72794B9B88C3F30722D30914
:1019B0004B72C2F380138B72C2F34013CB72C2F32B
:1019C00000130B7300234B736E4B1B681BB16D4BE5
:1019D0001B68012B3CD193071B0D0B616B4B1A79D4
:1019E0000B6943EA82030B61684B9B681A0E0B6913
:1019F00043EA92130B61C2F3C2030B7502F00703B3
:101A00004B75624B9B68C3F3074253098B75C2F356
:101A10008203CB7593075B0F0B765C4B1B89C3F37B
:101A200007220B7E43EAD2130B760B695B1C4B64D7
:101A30000C7E4B6CA41C0125A5406B434B640C7AB7
:101A40000123A3408B64D1E9113463434B6421E04B
:101A50004C4B1B68022B1DD14C4B1A7993069B0AE9
:101A60000B614A4B9B681A0E0B6943EA02230B6118
:101A7000464B9B68C3F307420B6913430B61434B0F
:101A80001B89C3F307220B695B1CDB044B644FF417
:101A900000738B64C2F3801301F8193F93065B0E49
:101AA0004B703A4B1A7A4B7843EAD2134B7002F0E0
:101AB0007F038B70354BDB681A0ED309CB70C2F3F2
:101AC00041130B71C2F382034B7193071B0F8B7190
:101AD0002E4BDB68C3F307428B7943EA92138B7179
:101AE000C2F34013CB7100230B7202F001034B725F
:101AF000264B9B89C3F30722D3098B72C2F3801351
:101B0000CB72C2F340130B73C2F300134B73C2F3D7
:101B100081038B7302F00303CB731C4B1A7B5308B6
:101B20000B7401234B741A4B1B681A0ECA741939B3
:101B3000174B1B68C3F307421402CC85144B1B8858
:101B4000C3F30722CB8D1343CB85114B1A781406B0
:101B50000C635B681A0E0B6B43EA02440C630C4B7C
:101B60005B68C3F307420B6B43EA02240C63084B28
:101B70009B88C3F307220B6B13430BE0A4000020E8
:101B8000840A0020A00000206C0A0020FC0900202C
:101B90000C0A00200B63FE4B1A7934235A54FC4B79
:101BA0009B681A0E35235A54F94B9B68C3F30742BE
:101BB00014068C63F64B1B89C3F307228B6B43EA35
:101BC00002448C63F24B1A7A8B6B43EA02248C63D7
:101BD000EF4BDB681A0E8B6B13438B63EC4BDB68AC
:101BE000C3F307423C235B5C43EA12143C235C547E
:101BF00013071C0DCC87E64B9B89C3F30722CB8FC1
:101C00001343CB87E24B1A7B540840235C540124D6
:101C100041235C5430BD70B52A25DE48446B01E099
:101C2000DC48446B04F045000028F9D004F00400BF
:101C300028B10325042003F022F8284670BD04F0E3
:101C4000010028B10125012003F019F82846F5E725
:101C500040F2FF5003F013F82846EFE72DE9F0417A
:101C600006460F464FF02A08CA48456B01E0C948AE
:101C7000456B05F045000028F9D005F0040038B1A7
:101C80004FF00308042002F0FAFF4046BDE8F0815F
:101C900005F0010030B14FF00108012002F0EFFF24
:101CA0004046F3E702F084FFB04203D04FF0100843
:101CB0004046EBE740F2FF5002F0E1FF002002F067
:101CC0007BFF044604F4604018B9200C388040467D
:101CD000DCE704F4005008B11320D7E704F4804097
:101CE00008B11020D2E704F4004008B10F20CDE77E
:101CF0004046CBE738B52A240120009002F029FFA6
:101D000010B92524204638BDA3480068042829D0EE
:101D10000020A249086002204860C020886000209E
:101D2000C8604FF480600861084602F027FFFFF7A3
:101D300072FF04462A2C01D02046E4E7002002F07E
:101D40003BFF93490860042002F036FF9049486049
:101D5000082002F031FF8E4988600C2002F02CFF31
:101D60008B49C8608C48006858B18B4800680128CE
:101D700007D089480068062803D0874800680228F1
:101D800017D1002085490860032048604020886002
:101D90000020C8604FF480600861084602F0EEFE43
:101DA00069460320FFF75AFF04462A2C01D020463B
:101DB000A9E77948006804282FD0BDF800007849C9
:101DC0000860BDF8000000047449086009204860FC
:101DD000C02088600020C8604FF480600861084619
:101DE00002F0CCFEFFF717FF04462A2C01D0204654
:101DF00089E7002002F0E0FE6A490860042002F052
:101E0000DBFE68494860082002F0D6FE654988601C
:101E10000C2002F0D1FE6349C8602A24204672E7F4
:101E200070B52A255B48446B01E05A48446B04F0C6
:101E300045000028F9D004F0040028B1032504204F
:101E400002F01DFF284670BD40F2FF5002F017FF60
:101E50002846F8E770B52A264FF480354D48446B84
:101E600002E06D1E4B48446B04F0450008B9002D9C
:101E7000F7D115B104F0040028B10326042002F0C4
:101E8000FEFE304670BD04F0400028B12A264020F6
:101E900002F0F5FE3046F5E73046F3E770B52A2547
:101EA0004FF4803400E0641E24B1802002F0DDFE97
:101EB0000028F8D014B90325284670BD40F2FF5021
:101EC00002F0DDFE2846F8E72DE9F0412A2400263D
:101ED000002500274FF00008B22033490875002084
:101EE000086048608860C8600861084602F006FE25
:101EF000032002F023FE012002F01DFE00202749EE
:101F0000086048608860C8604FF4806008610846D7
:101F100002F034FEFFF7C2FF04462A2C02D020460E
:101F2000BDE8F0814FF4D5701C4908600820486076
:101F3000402088600020C8604FF480600861084637
:101F400002F01CFEFFF786FF04462A2C05D1012073
:101F5000114908604FF0804812E000200F490860E6
:101F600037204860402088600020C8604FF48060BF
:101F70000861084602F002FE3720FFF780FA0446A7
:101F800000200649086037204860402088600DE046
:101F90000C0A002000800140A0000020840A0020DC
:101FA000A4000020FC0900206C0A00200020C8606A
:101FB0004FF480600861084602F0E0FD3720FFF72B
:101FC0005EFA04462A2C4CD138E00020FA49086019
:101FD00037204860402088600020C8604FF480604F
:101FE0000861084602F0CAFD3720FFF748FA0446A8
:101FF0002A2C01D0204693E7F04848EA0000EE4939
:10200000086029204860402088600020C8604FF4A4
:1020100080600861084602F0B1FDFFF701FF044649
:102020002A2C01D020467BE7002002F0C5FD0646A1
:10203000012080EAD67080F001076D1C1FB94FF6B1
:10204000FF708542C1D34FF6FF70854202D31B2437
:10205000204665E706F08040061E02D00220D849DF
:10206000086020465CE710B52A24FFF77AF902F0F1
:1020700037FDFFF729FF04462A2C01D0204610BD6A
:10208000FFF738FE04462A2C01D02046F7E701204E
:10209000CC4908750020086048608860C860086105
:1020A000084602F02BFD2A2C03D1C748FFF748FC55
:1020B00004462A2C06D1C449B1F84C100804FFF795
:1020C00027FC04462A2C04D14FF40060FFF7D8FB0C
:1020D00004462A2C03D10020FFF7C5F90446204608
:1020E000CDE770B504462A2514B92625284670BDCB
:1020F000B64800880004B04908600D2048604020C0
:1021000088600020C8604FF480600861084602F0D3
:1021100035FD0D20FFF7B3F905462A2D01D02846DD
:10212000E5E7002002F048FD20602846DFE708B51B
:1021300001200090C102A64802F03DFF08B1002036
:1021400000909DF8000008BD08B500200090FFF742
:10215000EEFF01280AD16846FFF7C3FF2A2801D005
:10216000FF2008BD0098C0F34320FAE7FF20F8E7FE
:1021700010B50424FFF7E8FF0446042C01D1002029
:1021800010BDFF2C01D10220FAE70120F8E710B5BD
:102190002A24002002F0D2FC204610BD0146002077
:1021A00002E04910421CD0B20129FAD170472DE952
:1021B000F04707460D4614464FF02A084FF0000935
:1021C0002E464FF0000A25B94FF026084046BDE8DC
:1021D000F0872A207F49087000207F4908607F49E6
:1021E00008607F487F490860002048608860C860B8
:1021F00008614861084602F0EAFC002002F0BBFCDE
:10220000002002F0D9FC00F0007018B14FF00E0869
:102210004046DCE76A480068022801D104027F0AD0
:10222000002C21DDB4F5006F1EDC601E2040D8B903
:102230002046FFF7B3FF82465F48046010205E49E6
:102240004860402088600020C8604FF480600861CA
:10225000084602F093FC1020FFF711F98046B8F110
:102260002A0F05D04046B2E74FF026084046AEE7B9
:102270005B485C490860084644604FEA0A10886081
:102280000220C8600020086101204861084602F071
:102290009EFC524804600020534908605348056082
:1022A000454807601120444948604020886000206C
:1022B000C8604FF480600861084602F05FFC11209E
:1022C000FFF7DDF88046B8F12A0F01D040467EE7DF
:1022D00047480068022857D111E04FF4004002F04F
:1022E000C4FC60B14FF0000905E002F092FC46F832
:1022F000290009F10109B9F1080FF6D320363D484C
:10230000406B40F22A6108400028E6D0082002F025
:10231000ACFC30B1082002F0B2FC4FF0040840469B
:1023200055E7022002F0A1FC30B1022002F0A7FC28
:102330004FF0020840464AE7202002F096FC30B1F8
:10234000202002F09CFC4FF0060840463FE74FF487
:10235000007002F08AFC38B14FF4007002F08FFC7C
:102360004FF00708404632E703E002F052FC3060CD
:10237000361D4FF4001002F078FC0028F5D140F231
:10238000FF5002F07CFC58E019480068012833D166
:10239000012148F22A3002F0E1FB00BF0E4800683C
:1023A00018B90C4800782A28F8D00A4800782A285A
:1023B00043D0084800780AE7840A00200000108013
:1023C000A00000206C0A00201C0A0020A4000020AD
:1023D000001C0140BC000020C0000020AC00002018
:1023E000FFFF0F00980A0020B0000020B800002076
:1023F000A800002000800140F8480068E8B90121E9
:1024000040F22A3002F0AAFB012002F0B4FB214680
:102410002846FEF7F4FF00BFFFF71CF830B9F0487C
:10242000006818B9EF4800782A28F5D0ED48007800
:102430002A2802D0EB480078C9E64046C7E62DE9D5
:10244000F05F81460E4614461D464FF02A084FF0B5
:10245000000A37464FF0000B26B94FF026084046D9
:10246000BDE8F09F2A20DF4908700020DC490860A1
:10247000DD490860DD48DE4908600020486088606A
:10248000C86008614861084602F0A1FB002002F024
:1024900072FB002002F090FB00F0007018B14FF0CA
:1024A0000E084046DCE7D3480068022802D1040247
:1024B0004FEA5929002C21DDB4F5006F1EDC601EA7
:1024C0002040D8B92046FFF769FE8346CA48046019
:1024D0001020C9494860402088600020C8604FF43F
:1024E00080600861084602F049FB1020FEF7C7FF34
:1024F0008046B8F12A0F05D04046B1E74FF02608D4
:102500004046ADE7012D70D905FB04F0B0F1007F26
:1025100003D34FF026084046A2E705FB04F0B2497A
:1025200008600120B5490860B5480660AF48B04969
:10253000086005FB04F048604FEA0B108860022039
:10254000C8600020086101204861084602F03FFB96
:10255000A948C0F800901220A74948604020886030
:102560000020C8604FF480600861084602F006FB56
:102570001220FEF784FF8046B8F12A0F01D04046B2
:102580006EE79648006802287BD111E04FF40040C6
:1025900002F06BFB60B14FF0000A05E002F039FB7E
:1025A00047F82A000AF1010ABAF1080FF6D32037DA
:1025B0009448406B40F22A3108400028E6D00820B9
:1025C00002F053FB30B1082002F059FB4FF0040831
:1025D000404645E7022002F048FB38B1022002F0F5
:1025E0004EFB4FF0020840463AE78AE0202002F016
:1025F0003CFB30B1202002F042FB4FF00608404681
:102600002EE74FF4007002F030FB38B14FF4007049
:1026100002F035FB4FF00708404621E703E002F0E7
:10262000F8FA38603F1D4FF4001002F01EFB00283E
:10263000F5D14FF4807002F018FB18B36D480068B4
:1026400038B16C480068022803D06A480068012845
:1026500018D10020684908600C204860402088603C
:102660000020C8604FF480600861084602F086FAD6
:102670000C20FEF704FF8046B8F12A0F02D0404636
:10268000EEE604E040F2FF5002F0F9FA39E0534878
:102690000068012813D1012148F22A3002F05EFAC5
:1026A00000BF4F48006818B94E4800782A28F8D073
:1026B0004C4800782A2824D04A480078D0E6474879
:1026C0000068F0B9012140F22A3002F047FA0120F7
:1026D00002F051FA05FB04F13046FEF790FE00BF10
:1026E000FEF7B8FE30B93E48006818B93D4800789A
:1026F0002A28F5D03B4800782A2802D039480078AB
:10270000AEE64046ACE67CB504462A2500200190A2
:1027100000903D4800880004374908600D2048605B
:10272000402088600020C8604FF48060086108463F
:1027300002F024FA3348406B009002E03148406BCD
:102740000090009800F045000028F7D0009800F0B5
:10275000040028B10325042002F091FA28467CBD2C
:10276000009800F0010028B10125012002F087FA4D
:102770002846F4E702F01CFA009000980D2802D0D9
:1027800010252846EBE740F2FF5002F078FA0020CF
:1027900002F012FA01900198C0F3432020701B4907
:1027A0000198084008B92846D9E7019800F0004090
:1027B00008B11C20D3E7019800F0804008B109203F
:1027C000CDE7019800F0005008B10A20C7E7019852
:1027D00000F08050E0B10B20C1E70000A80000200D
:1027E000C0000020BC000020AC000020FFFF0F0054
:1027F000980A0020A0000020840A0020B0000020D9
:10280000B800002000800140A400002008E0FFFD87
:10281000019800F0006008B10C20A0E7019800F0DA
:10282000806008B10D209AE7019800F0807008B12F
:102830000E2094E7019800F4000008B10F208EE705
:10284000019800F4800008B1102088E7019800F496
:10285000001008B1112082E7019800F4801008B13F
:1028600012207CE7019800F4002008B1132076E7DD
:10287000019800F4802008B1142070E7019800F45A
:10288000003008B115206AE7019800F4803008B1E3
:10289000162064E7019800F4004008B117205EE7B5
:1028A000019800F4804008B1182058E7019800F41E
:1028B000005008B1192052E7019800F0080008B153
:1028C0001A204CE728464AE72DE9FF5F82460F466B
:1028D00014462A250020039002908346002601908A
:1028E00080460090B94627B92625284604B0BDE8A1
:1028F000F09F2A20FE4908700020FE490860FE492A
:102900000860FE48FE490860002048608860C86092
:1029100008614861084602F05AF9002002F02BF9DC
:10292000002002F049F900F0007010B10E25284691
:10293000DCE7F4480068022802D104024FEA5A2A70
:10294000002C20DDB4F5006F1DDC601E2040D0B9E6
:102950002046FFF723FC0390EB4804601020EA496F
:102960004860402088600020C8604FF480600861A3
:10297000084602F003F91020FEF781FD05462A2DD6
:1029800004D02846B2E726252846AFE7DF4800886E
:102990000004DD4908600D20486040208860002068
:1029A000C8604FF480600861084602F0E7F80D2027
:1029B000FEF765FD05462A2D01D0284696E7002042
:1029C00002F0FAF80190DFF834B31EE0ABF1010B2E
:1029D000CE4800880004CC4908600D2048604020A3
:1029E00088600020C8604FF480600861084602F0EB
:1029F000C5F80D20FEF743FD05462A2D01D02846D7
:102A000074E7002002F0D8F80190019800F480707B
:102A100010B9BBF1000FD9D1BBF1000F01D12920B2
:102A200064E7B948C0F800A01820B74948604020C2
:102A300088600020C8604FF480600861084602F09A
:102A40009DF81820FEF71BFD05462A2D01D02846CB
:102A50004CE7A94804600020AD490860AD48076014
:102A6000A648A749086008464460039800018860AA
:102A70000020C860086101204861084602F0A7F8FC
:102A8000A548006802286BD139E04FF4804002F07D
:102A9000ECF8A0B398480068801B202820D2964804
:102AA0000078801B00F0030020B993480068801B69
:102AB000800804E090480068801B8008401C00905B
:102AC0004FF0000808E0D9F8000002F0A6F808F17D
:102AD000010809F10409361D009880450FD2F2E77C
:102AE0004FF0000805E059F8280002F096F808F1C8
:102AF0000108B8F1080FF6D309F1200920368748FC
:102B0000406B40F21A6108400028BED0082002F055
:102B1000ACF828B1082002F0B2F804252846E5E612
:102B2000022002F0A2F828B1022002F0A8F8022543
:102B30002846DBE6102002F098F828B1102002F0B9
:102B40009EF805252846D1E64FF4007002F08DF876
:102B5000F0B34FF4007002F092F807252846C5E65E
:102B60006D480068012813D1012144F21A3001F0A8
:102B7000F5FF00BF5F48006818B95D4800782A2853
:102B8000F8D05B4800782A2825D059480078ADE66F
:102B900061480068E0B9012140F21A3001F0DEFF1F
:102BA00021463846FEF700FC012001F0E4FF00BF9B
:102BB000FEF750FC30B94F48006818B94C4800780F
:102BC0002A28F5D04A4800782A2804D0484800E04E
:102BD00001E000788AE640F2FF5002F050F802A8C7
:102BE000FFF791FD054603E002A8FFF78CFD0546BF
:102BF0002A2D07D19DF808000728F5D09DF8080078
:102C00000628F1D0284671E62DE9FE4F81468A4616
:102C100014461E462A254FF0000B00200290002784
:102C20000190C8460090B9F1000F03D1262528462F
:102C3000BDE8FE8F2A202E49087000202D4908602B
:102C40002D4908602D482E490860002048608860A2
:102C5000C86008614861084601F0B9FF002001F032
:102C60008AFF002001F0A8FF00F0007010B10E25CF
:102C70002846DDE723480068022802D104024FEA13
:102C80005A2A002C20DDB4F5006F1DDC601E2040A8
:102C9000D0B92046FFF782FA83461B480460102013
:102CA00019494860402088600020C8604FF4806067
:102CB0000861084601F062FF1020FEF7E0FB0546C0
:102CC0002A2D04D02846B3E726252846B0E70F482A
:102CD000008800040C4908600D204860402088608E
:102CE0000020C8604FF480600861084618E00000CA
:102CF000BC000020C0000020AC000020FFFF0F003F
:102D0000980A0020A0000020840A0020A4000020CF
:102D1000B0000020B4000020A80000200080014086
:102D200001F02CFF0D20FEF7AAFB05462A2D01D04D
:102D300028467DE7012E7AD906FB04F0B0F1007F2A
:102D400002D32625284673E7FE48006838B1FD48BF
:102D50000068012803D0FB48006802282FD1FA48F8
:102D600000880004F94908603720486040208860E6
:102D70000020C8604FF480600861084601F0FEFE44
:102D80003720FEF77CFB05462A2D01D028464FE769
:102D9000EE4806601720ED4948604020886000201A
:102DA000C8604FF480600861084601F0E7FE172014
:102DB000FEF765FB05462A2D01D0284638E7E34893
:102DC000C0F800A01920E149486040208860002038
:102DD000C8604FF480600861084601F0CFFE1920FA
:102DE000FEF74DFB05462A2D01D0284620E706FBBD
:102DF00004F0D74908600120D6490860D648C0F8D9
:102E00000090D648D649086006FB04F048604FEAB7
:102E10000B1088600020C8600861012048610846E6
:102E200001F0D5FECF480068022870D13EE0D1E025
:102E30004FF4804001F019FFC0B3C5480068C01BC3
:102E4000202811D30020009007E0009958F82100B5
:102E500001F0E3FE0098401C009000980828F4D38D
:102E600008F12008203721E0B9480078C01B00F0A5
:102E7000030020B9B6480068C01B800804E0B448CD
:102E80000068C01B8008401C01900020009009E0F1
:102E9000D8F8000001F0C1FE0098401C009008F135
:102EA00004083F1DDDE900108142F1D3AE48406BBC
:102EB00040F21A3108400028BAD0082001F0D5FEAF
:102EC00028B1082001F0DBFE04252846B0E60220E8
:102ED00001F0CBFE28B1022001F0D1FE02252846E8
:102EE000A6E6102001F0C1FE28B1102001F0C7FEB7
:102EF000052528469CE64FF4007001F0B6FE38B177
:102F00004FF4007001F0BBFE0725284690E627E04D
:102F10004FF4807001F0A9FE00285BD0894800685A
:102F200038B188480068012803D086480068022824
:102F300050D10020854908600C20486040208860FE
:102F40000020C8604FF480600861084601F016FE5A
:102F50000C20FEF794FA05462A2D3BD0284667E65A
:102F600080480068012813D1012144F21A3001F091
:102F7000F5FD00BF7D48006818B97D4800782A2813
:102F8000F8D07B4800782A2824D0794800784FE68A
:102F900074480068F0B9012140F21A3001F0DEFDFA
:102FA000012001F0E8FD06FB04F14846FEF7FCF9BC
:102FB00000BFFEF74FFA30B96C48006818B96C488A
:102FC00000782A28F5D06A4800782A2802D0684874
:102FD00000782DE640F2FF5001F051FE00200090F5
:102FE00002E00098401C00904FF6FF710098884264
:102FF000F7D302A8FFF787FB054603E002A8FFF717
:1030000082FB05462A2D07D19DF808000728F5D038
:103010009DF808000628F1D0284609E65248406B82
:1030200000F4405008B1012070470020FCE710B5C3
:103030002A240020454908600C2048604020886010
:103040000020C8604FF480600861084601F096FDDA
:103050000C20FEF714FA0446204610BD2DE9FC4171
:1030600005460E462A240027002001900090414882
:103070004068202101EA105018B925242046BDE8F7
:10308000FC8139484068C0B2801C3B49B1FBF0F07C
:103090000190002001F090FD00F0007010B10E24AE
:1030A0002046ECE727480068022801D16D0A760A1D
:1030B0002448006838B123480068012803D021481B
:1030C000006802282DD12148056020201F49486052
:1030D000402088600020C8604FF480600861084686
:1030E00001F04CFD2020FEF7CAF904462A2C01D03D
:1030F0002046C4E715480660212014494860402056
:1031000088600020C8604FF480600861084601F0C4
:1031100035FD2120FEF7B3F904462A2C01D02046C4
:10312000ADE70020094908602620486040208860FB
:103130000020C8604FF480600861084601F01EFD61
:1031400026201BE0A0000020A4000020840A00200C
:10315000AC000020B0000020B4000020FFFF0F00F2
:10316000980A0020A800002000800140C000002034
:10317000BC000020FC090020C0D40100FEF77FF94C
:1031800004462A2C01D0204679E7002700E07F1C66
:1031900001988742FBD36846FFF7B5FA044603E07F
:1031A0006846FFF7B0FA04462A2C07D19DF80000C4
:1031B0000728F5D09DF800000628F1D020465EE7EC
:1031C00070B504462A260025002001F0F5FC00F029
:1031D000007010B10E26304670BD4020EB490860EB
:1031E00010204860402088600020C8604FF4806054
:1031F0000861084601F0C2FC1020FEF740F90646BF
:103200002A2E01D03046E7E7E14800880004DF4974
:10321000086037204860402088600020C8604FF474
:1032200080600861084601F0A9FC3720FEF727F905
:1032300006462A2E01D03046CEE7D648D649086049
:1032400040204860602088600220C860002008613B
:1032500001204861084601F0BAFC0020CB49086013
:103260000D204860402088600020C8604FF48060D6
:103270000861084601F082FC0D20FEF700F90646C1
:103280002A2E01D03046A7E70EE04FF4004001F0AF
:10329000ECFC48B1002504E001F0BBFC44F825003B
:1032A0006D1C082DF8D32034BC48406B40F22A61D5
:1032B00008400028E9D0082001F0D7FC28B10820F8
:1032C00001F0DDFC0426304686E7022001F0CDFC4B
:1032D00028B1022001F0D3FC022630467CE72020F2
:1032E00001F0C3FC28B1202001F0C9FC06263046BD
:1032F00072E74FF4007001F0B8FC30B14FF4007089
:1033000001F0BDFC0726304666E703E001F081FCD2
:103310002060241D4FF4001001F0A7FC0028F5D117
:1033200040F2FF5001F0ABFC403C002515E014F8E2
:103330002500000634F8251001F47F4140EA012001
:1033400054F8251001F47F0140EA112054F82510AB
:1033500040EA116044F825006D1C102DE7D330467B
:103360003AE770B5002400258D480068012867D130
:10337000C00301F087FCA8B100BF06E001F049FCE2
:103380008849096841F82400641C082CF6D3854854
:1033900000682030834908608348006820308249F3
:1033A00008604DE04FF4804001F06CFC002847D0ED
:1033B0007E4800687C490968401A20282BD27B4847
:1033C000007879490968401A00F0030030B977485D
:1033D000006875490968401A800806E0734800686B
:1033E00071490968401A8008401C054600240FE016
:1033F0006F490968086801F010FC641C6C4800689B
:10340000001D6B49086068480068001D6649086037
:10341000AC42EDD314E0002406E06549096851F898
:10342000240001F0FAFB641C082CF6D36048006805
:1034300020305F4908605C48006820305A490860C5
:103440004FF4807001F01EFCD8B355480068D0B12D
:103450000EE001F0DEFB534909680860514800683E
:10346000001D5049086050480068001D4E49086022
:103470004FF4001001F0F9FB28B14B4800684B49AC
:1034800009688842E5D34B480068012804D1FFF75A
:10349000CEFD4949087002E02A20474908704FF4E0
:1034A000807001F0F9FB00214CF23A3001F056FB3C
:1034B00001204249086000203B4908603E480078EE
:1034C00070BDFFE7022001F0DDFB70B1022001F0CA
:1034D000E3FB00214CF23A3001F040FB002032497E
:1034E0000860022034490870EAE7082001F0CAFBAE
:1034F00070B1082001F0D0FB00214CF23A3001F00D
:103500002DFB00202849086004202B490870D7E7CC
:10351000202001F0B7FB70B1202001F0BDFB00219D
:103520004CF23A3001F01AFB00201F4908600620D7
:1035300021490870C4E7102001F0A4FB70B11020ED
:1035400001F0AAFB00214CF23A3001F007FB002009
:1035500015490860052018490870B1E74FF400705C
:1035600001F090FB78B14FF4007001F095FB002161
:103570004CF23A3001F0F2FA00200B4908600720C3
:103580000D4908709CE72A209AE70000840A002071
:10359000A4000020FFFF0F00980A002000800140D7
:1035A000A8000020B8000020C4000020AC000020CB
:1035B000B4000020B0000020BC000020C0000020AB
:1035C0000CB50020019000906C48006840F48030F9
:1035D0006A49086000BF6948006800F40030009044
:1035E0000198401C0190009818B90198B0F5A06F9F
:1035F000F1D16248006800F4003010B10120009061
:1036000001E0002000900098012843D15C48006848
:1036100040F010005A4908600846006820F0030096
:1036200008600846006840F002000860534840689F
:10363000524948600846406848600846406840F47F
:10364000806048600846406820F47C104860084666
:10365000406840F4E81048600846006840F0807018
:10366000086000BF4548006800F000700028F9D0ED
:103670004248406820F003004049486008464068DE
:1036800040F00200486000BF3C48406800F00C0079
:103690000828F9D10CBD10B5FFF792FF10BD10B589
:1036A0003648006840F00100344908600846406828
:1036B00034490840314948600846006832490840AA
:1036C0002E4908600846006820F4802008600846FB
:1036D000406820F4FE0048604FF41F008860FFF748
:1036E000DAFF4FF000602949086010BD10B50021D5
:1036F00000200022214B5B6803F00C0121B104295A
:1037000006D0082928D107E0214B224C236027E06E
:103710001F4B204C236023E0184B5B6803F47010B0
:10372000164B5B6803F48032022303EB904022B90E
:10373000194B4343174C23600DE0104B5B6803F4B7
:10374000003323B1144B4343124C236003E0104B6E
:103750004343104C236003E00D4B0E4C236000BF2D
:1037600000BF064B5B68C3F303130C4CE15C094BD1
:103770001B68CB40074C236010BD000000100240C6
:10378000002002400000FFF8FFFFF6FE08ED00E019
:1037900000127A00C800002000093D00CC00002083
:1037A0000948804709480047FEE7FEE7FEE7FEE7D5
:1037B000FEE7FEE7FEE7FEE7FEE7FEE70448054911
:1037C000054A064B704700009F360008310100088B
:1037D000381100203817002038130020381300203B
:1037E00031490143314A1160704770B5002100230F
:1037F0000F22C47804B32D4C246804F4E064C4F5AB
:10380000E064210AC1F10403CA40447804FA03F1D8
:103810008478144021430901254C0678A155047889
:1038200004F01F050124AC4005786D11AD0005F1D1
:10383000E025C5F8004109E0047804F01F050124E3
:10384000AC401C4D0678761145F8264070BD1A4AEA
:103850000A400243154B1B1F1A60704739B1134AC7
:10386000121D12680243114B1B1D1A6006E00F4A1D
:10387000121D126882430D4B1B1D1A6070470428ED
:1038800008D14FF0E021096941F004014FF0E02236
:10389000116107E04FF0E021096921F004014FF0C8
:1038A000E0221161704700000000FA050CED00E015
:1038B00000E400E080E100E080FFFF1F10B5044657
:1038C000FB48844209D10121880301F0B7FD0021A2
:1038D0004FF4804001F0B2FD32E0F648844209D155
:1038E0000121480401F0B7FD00214FF4003001F040
:1038F000B2FD25E0F048844209D10121880401F09D
:10390000AAFD00214FF4802001F0A5FD18E0EB484E
:10391000844209D10121C80401F09DFD00214FF42A
:10392000002001F098FD0BE0E548844208D1012118
:10393000080501F090FD00214FF4801001F08BFD8F
:1039400010BD2DE9F04786B005460E460024A2467C
:1039500000BFA1460027B08900B100BF2F462C8AC6
:103960004CF6FF700440F08804432C82AC894EF67C
:10397000F3100440B0883189084371890843044337
:10398000AC81AC8A4FF6FF400440B0890443AC825E
:1039900001A801F0CCFCC648874202D1DDF810A096
:1039A00001E0DDF80CA0A88900F4004040B10AEB6A
:1039B000CA0000EB0A1031684900B0FBF1F807E0DB
:1039C0000AEBCA0000EB0A1031688900B0FBF1F87D
:1039D0006420B8FBF0F004012009642101FB108988
:1039E000A88900F4004040B1322000EBC900B0FBD0
:1039F000F1F000F00700044308E0322000EB09106A
:103A00006421B0FBF1F000F00F0004432C8106B0FC
:103A1000BDE8F0874FF41651016000218180C1801C
:103A200001810C21418100218181704710B502463E
:103A30000020108A4FF2FF0318400B884C88234364
:103A40008C882343CC8823431843108210BD002167
:103A5000018041808180C180704721B1828942F418
:103A60000052828104E082894DF6FF731A40828100
:103A70007047F0B50346002400260025002040F6DC
:103A80006A17B94200D100BF1846C1F3421401F0D1
:103A90001F06012707FA06F5012C01D10C3004E0BE
:103AA000022C01D1103000E014301AB107682F4306
:103AB000076002E00768AF430760F0BD1AB1838A70
:103AC0000B43838202E0838A8B4383827047028A9E
:103AD0004FF6F0731A400282028A0A43028270474C
:103AE00082894FF2FF731A40828182890A43828160
:103AF000704721B1828942F00202828104E082890A
:103B00004FF6FD731A4082817047028A4FF6DF73C9
:103B10001A400282028A0A430282704721B1028A55
:103B200042F48042028204E0028A4BF6FF731A409C
:103B300002827047C1F3080282807047014688887C
:103B4000C0F308007047818941F00101818170470D
:103B5000028BD2B20283028B42EA012202837047B7
:103B6000028B02F47F420283028B0A430283704776
:103B700021B1828A42F02002828204E0828A4FF6DA
:103B8000DF731A408282704721B1828A42F01002AC
:103B9000828204E0828A4FF6EF731A408282704775
:103BA00021B1828A42F00802828204E0828A4FF6C2
:103BB000F7731A408282704721B1828942F4004231
:103BC000828103E08289C2F30E028281704721B1B3
:103BD000828A42F40062828204E0828A4FF2FF739A
:103BE0001A4082827047828A4FF6FB731A408282A3
:103BF000828A0A438282704721B1828A42F002029D
:103C0000828204E0828A4FF6FD731A4082827047F6
:103C100002460020B1F5007F00D100BF13880B40A1
:103C20000BB1012000E00020704701F40072B2F5F2
:103C3000007F00D100BFCA430280704770B50246C2
:103C4000002400230025002040F66A16B14200D16E
:103C500000BFC1F3421501F01F03012606FA03F36A
:103C6000012D02D19689334006E0022D02D1168A39
:103C7000334001E0968A33400C12012606FA04F420
:103C80001688344013B10CB1012000E0002070BD53
:103C900010B50022002340F66A14A14200D100BFF3
:103CA0000A1201249440A3B2DC43048010BD00003A
:103CB000003801400044004000480040004C0040F3
:103CC0000050004010B50446FE48844208D101214E
:103CD000C01401F0B3FB0021E01401F0AFFBC4E01D
:103CE000B4F1804F08D10121084601F0B4FB002156
:103CF000012001F0B0FBB8E0F348844208D1012173
:103D0000022001F0A8FB0021022001F0A4FBACE09E
:103D1000EE48844208D10121042001F09CFB0021DF
:103D2000042001F098FBA0E0E948844208D1012179
:103D3000082001F090FB0021082001F08CFB94E0AA
:103D4000E448844208D10121102001F084FB0021C5
:103D5000102001F080FB88E0DF48844208D1012177
:103D6000202001F078FB0021202001F074FB7CE092
:103D7000DA48844208D10121401401F05FFB0021A0
:103D8000601401F05BFB70E0D548844209D1012149
:103D9000C80401F053FB00214FF4002001F04EFB5A
:103DA00063E0D048844209D10121080501F046FBB7
:103DB00000214FF4801001F041FB56E0CA488442D4
:103DC00009D10121480501F039FB00214FF4001011
:103DD00001F034FB49E0C548844208D1012140206C
:103DE00001F039FB0021402001F035FB3DE0C048E7
:103DF000844208D10121802001F02DFB0021802088
:103E000001F029FB31E0BB48844208D10121801533
:103E100001F021FB0021A01501F01DFB25E0B648B3
:103E2000844209D10121080401F008FB00214FF46C
:103E3000803001F003FB18E0B048844209D1012131
:103E4000480401F0FBFA00214FF4003001F0F6FACB
:103E50000BE0AB48844208D10121880401F0EEFA5E
:103E600000214FF4802001F0E9FA10BD0022028801
:103E7000944B98420ED0994B98420BD0B0F1804FA2
:103E800008D0914B984205D0904B984202D0904B6D
:103E9000984204D14FF68F731A404B881A438D4BCA
:103EA000984207D08C4B984204D04FF6FF431A40FB
:103EB000CB881A4302808B8883850B880385814BCE
:103EC00098420BD0854B984208D08B4B984205D036
:103ED0008A4B984202D08A4B984201D10B7A0386D2
:103EE00001238382704770B5002400220023058CD3
:103EF0004FF6FE7635400584028C8388048B4FF69E
:103F00008F752C40B51E2C400D882C43751E2A4001
:103F10000D892A434D882A436A4DA8420BD06F4D24
:103F2000A84208D0744DA84205D0744DA84202D0D2
:103F3000734DA84213D14FF6F7752A404D892A4395
:103F40004FF6FB752A408D882A434FF6FF652B40BC
:103F50004FF6FF552B408D892B43CD892B43838012
:103F60000483CD888586028470BD70B5002400224C
:103F70000023058C4FF6EF7635400584028C83884C
:103F8000048B48F6FF752C404FF6FF452C400D88FA
:103F90004FF6FF7606EA05252C434FF6DF752A40DB
:103FA0000D8906EA05152A434D8806EA05152A43B8
:103FB000444DA84202D0494DA8421DD14FF67F750D
:103FC0002A404D894FF6FF7606EA05152A434FF63B
:103FD000BF752A408D8806EA05152A434FF6FF353E
:103FE0002B404FF2FF752B408D8906EA85052B4348
:103FF000CD8906EA85052B4383800483CD88058718
:10400000028470BD70B5002400220023058C4FF699
:10401000FF6635400584028C8388848B4FF68F754C
:104020002C404FF6FC752C400D882C434FF6FF5565
:104030002A400D894FF6FF7606EA05252A434D886A
:1040400006EA05252A431F4DA84202D0234DA84267
:104050001DD14FF2FF752A404D894FF6FF7606EAD3
:1040600005252A434FF6FF352A408D8806EA0525A7
:104070002A434EF6FF752B404DF6FF752B408D8978
:1040800006EA05152B43CD8906EA05152B438380E7
:104090008483CD888587028470BD70B5002200239B
:1040A0000024058C4EF6FF7635400584038C848809
:1040B000828B48F6FF752A404FF6FF452A400D884F
:1040C00020E00000002C01400004004000080040F7
:1040D000000C00400010004000140040003401407B
:1040E000004C0140005001400054014000180040C5
:1040F000001C0040002000400040014000440140FE
:10410000004801404FF6FF7606EA05252A434DF6A2
:10411000FF752B400D8906EA05352B434D8806EACD
:1041200005352B43FA4DA84202D0FA4DA84208D1DA
:104130004BF6FF752C408D894FF6FF7606EA851504
:104140002C4384808283CD88A0F84050038470BDC6
:10415000828B4FF2FF331A408283828B4FF6FF73BC
:1041600003EA01231A4382837047F0B50C461546D3
:10417000002200210026078C4EF6FF7C07EA0C0780
:104180000784828B018C4FF6FF7707EA043640F6EE
:10419000FF473A404FF6FF7707EA05273A434FF6C5
:1041A000FF7707EA03373A43D94FB8420ED0D94FC9
:1041B000B8420BD0B0F1804F08D0D74FB84205D0ED
:1041C000D64FB84202D0D64FB84206D14DF6FF774F
:1041D000394046F48057394305E047F6FF573940E8
:1041E00044F48057394382830184F0BD828B4FF6BB
:1041F000F3731A408283828B0A4382837047F0B53F
:104200000C461546002200210026078C4FF6FF6C55
:1042100007EA0C070784828B018C4FF6FF7707EAC9
:1042200004264FF60C773A404FF6FF7707EA03175C
:104230002F433A43B64FB8420ED0B64FB8420BD0D8
:10424000B0F1804F08D0B44FB84205D0B34FB84258
:1042500002D0B34FB84206D14FF6FF57394046F46B
:104260008077394305E04FF2FF57394044F48077B7
:10427000394382830184F0BD028B4FF2FF331A4031
:104280000283028B4FF6FF7303EA01231A43028372
:104290007047F0B50C461546002200210026078C19
:1042A0004FF6EF7C07EA0C070784028B018C4FF670
:1042B000FF7707EA041640F6FF473A404FF6FF77CC
:1042C00007EA03373A434FF6FF7707EA05273A43F1
:1042D0008F4FB8420ED08F4FB8420BD0B0F1804F05
:1042E00008D08D4FB84205D08C4FB84202D08C4FC9
:1042F000B84206D14FF6DF77394046F01007394310
:1043000005E04FF65F77394044F0100739430283E8
:104310000184F0BD028B4FF6F3731A400283028BC7
:104320000A4302837047F0B50C461546002200216F
:10433000068C4FF6FE773E400684028B018C4FF6CA
:104340000C7632407E1C06EA03162E433243704E32
:10435000B0420ED06F4EB0420BD0B0F1804F08D0BB
:104360006D4EB04205D06D4EB04202D06C4EB042A0
:1043700006D14FF6FD76314044F00106314305E0A9
:104380004FF6F576314044F0010631430283018453
:10439000F0BD70B505460C465D4885420ED05D48BF
:1043A00085420BD0B5F1804F08D05B48854205D0DF
:1043B0005A48854202D05A48854200D100E000BFE9
:1043C000208850B92389A28861882846FFF7ABFF6F
:1043D000E1882846FFF79EFF25E0208804280AD1BF
:1043E0002389A28861882846FFF753FFE188284681
:1043F000FFF742FF17E0208808280AD12389A28806
:1044000061882846FFF7FBFEE1882846FFF7EEFEAD
:1044100009E02389A28861882846FFF7A6FEE18883
:104420002846FFF795FE70BD2DE9F04105460C4684
:1044300000260127608808B9022600E00026A0882F
:10444000012801D1022700E001272088A0B9238993
:10445000A28861882846FFF766FFE1882846FFF7B3
:1044600059FF23893A4631462846FFF712FFE18873
:104470002846FFF701FF13E02389A28861882846B8
:10448000FFF707FFE1882846FFF7F6FE23893A4643
:1044900031462846FFF747FFE1882846FFF73AFFF5
:1044A000BDE8F0810A884B881A438B881A43CB8871
:1044B0001A430B891A434B891A438B891A43A0F874
:1044C000442070474FF6FF71818000210180C18038
:1044D0004180017270470021018041808180C1804C
:1044E000018141818181C18170470021018041802A
:1044F000012181800021C18001817047002101805C
:1045000041808180C18001814181818170470000AB
:10451000002C01400034014000040040000800402D
:10452000000C004021B1028842F00102028004E048
:1045300002884FF6FE731A400280704731B1B0F81E
:10454000442042F40042A0F8442005E0B0F84420A2
:10455000C2F30E02A0F8442070471AB183890B43BE
:10456000838102E083898B43838170478182704716
:1045700041EA0203A0F8483070471AB183890B431F
:10458000838102E083898B438381704701894FF6E1
:10459000F8721140018170470A46002101894FF6E7
:1045A0008F73194011430181704730B504460D46A1
:1045B00029462046FFF7F0FF208940F007002081C0
:1045C00030BD2DE9F04104460D4616461F46602DCC
:1045D00006D13B46012231462046FFF75AFE05E050
:1045E0003B46012231462046FFF79DFE29462046E4
:1045F000FFF7D2FF208940F007002081BDE8F0815D
:1046000030B50C4600210189C9B24FF6FF7505EAA5
:104610000325154325432943018130BD2DE9F04190
:1046200005460E4617469846002443463A4631460C
:104630002846FFF7E5FF2C894FF6F870044044F058
:1046400007044FF68F70044044F070042C81BDE8DD
:10465000F081F0B504460D4616461F463B463246ED
:1046600029462046FFF7CCFF208940F48040208176
:10467000F0BD0185828270470A46002101884FF60D
:104680008F731940114301807047F0B50C461546F1
:104690001E460021002200230189028B038C4FF665
:1046A000F877394021434FF6FC473A4040F2011772
:1046B0003A434FF6DD773B404FF6FF7707EA0617A0
:1046C0002F433B43018102830384F0BD0A4600214E
:1046D000018B4FF68F7319401143018370470A46CF
:1046E0000021018B48F6FF7319404FF6FF7303EA70
:1046F00002231943018370470A460021818B4FF63C
:104700008F7319401143818370470A460021818BC2
:1047100048F6FF7319404FF6FF7303EA022319436B
:104720008183704721B1028842F08002028004E058
:1047300002884FF67F731A400280704721B1828849
:1047400042F00402828004E082884FF6FB731A4034
:104750008280704721B1828842F00802828004E0A2
:1047600082884FF6F7731A408280704721B18288A1
:1047700042F00102828004E082884FF6FE731A4004
:10478000828070470A460021018B4FF6F77319406B
:104790001143018370470A460021018B4FF2FF73DA
:1047A00019404FF6FF7303EA022319430183704750
:1047B0000A460021818B4FF6F7731940114381831C
:1047C00070470A460021818B4FF2FF7319404FF664
:1047D000FF7303EA02231943818370470A460021CD
:1047E000018B4FF6FB7319401143018370470A4652
:1047F0000021018B4FF6FF3319404FF6FF7303EA98
:1048000002231943018370470A460021818B4FF62A
:10481000FB7319401143818370470A460021818B45
:104820004FF6FF3319404FF6FF7303EA0223194393
:10483000818370470A460021018B4FF67F73194030
:104840001143018370470A460021018BC1F30E0119
:104850004FF6FF7303EA02231943018370470A46A8
:104860000021818B4FF67F7319401143818370477C
:104870000A460021818BC1F30E014FF6FF7303EA54
:1048800002231943818370470A460021018C4FF6A9
:10489000FD7319401143018470470A460021018CC1
:1048A0004FF6F77319401143018470470A460021FF
:1048B000018C4FF6DF7319404FF6FF7303EA0213C2
:1048C0001943018470470A460021018C4FF67F731B
:1048D00019404FF6FF7303EA02131943018470472E
:1048E0000A460021018C4FF6FF5319404FF6FF7323
:1048F00003EA02231943018470470A460021018C10
:104900004FF2FF7319404FF6FF7303EA0223194376
:10491000018470470A460021018C4DF6FF7319404F
:104920004FF6FF7303EA023319430184704730B531
:10493000002301248C40A3B2048C9C430484048C87
:1049400002FA01F5ADB22C43048430BD30B500232A
:1049500004248C40A3B2048C9C430484048C02FA8B
:1049600001F5ADB22C43048430BD70B50346002080
:1049700000241846183001258D40ACB21D8CA5438B
:104980001D8409B1082909D100EB6100056825F0F3
:10499000700505600568154305600EE00D1FC5F341
:1049A0004E052844056825F4E045056005684FF686
:1049B000FF7606EA02263543056070BD21B1028804
:1049C00042F00202028004E002884FF6FD731A40B2
:1049D0000280704721B1028842F00402028004E0A4
:1049E00002884FF6FB731A400280704721B182881B
:1049F00042F08002828004E082884FF67F731A4082
:104A00008280704702884FF6F7731A40028002884E
:104A10000A430280704782884FF68F731A40828063
:104A200082880A438280704702894FF6F8731A40E1
:104A3000028102890A430281704702894FF67F731F
:104A40001A40028102890A430281704781847047BB
:104A500081857047818670470187704781877047DD
:104A6000A0F84010704702884FF6FF431A400280BA
:104A700002880A43028070470146888E70470146CB
:104A8000088F70470146888F70470146B1F8400093
:104A900070470146888C70470146088D7047024672
:104AA0000020138A0B400BB1012000E0002070476A
:104AB000CA430282704730B502460020002300241A
:104AC000158A05EA0103958905EA010413B10CB1C1
:104AD000012000E0002030BDCA4302827047000080
:104AE00000206F49086048608860C860486288623A
:104AF000C8626C4888630020C86370470021684A18
:104B0000516847F6FF629143027D83681A43436808
:104B10001A43C3681A4303681A4303691A431143CB
:104B20005F4A5160704700210175016041608160FA
:104B3000C160016170475C49086070475849096865
:104B400021F00301564A11601146096801431160C2
:104B500070475348006800F00300704729B1504A7D
:104B6000D26B02434E4BDA6304E04D4AD26B824370
:104B70004B4BDA6370474D49086070470021484B42
:104B800002689A601A46D1686FF30A01D0E90123DE
:104B90001A43C3681A4303691A431143404AD16058
:104BA00070470021016041608160C1600161704710
:104BB0003B480069C0B2704708B50146002000902C
:104BC00037481430084400900098006808BD002160
:104BD000334B02685A6242689A621A46D16A21F0DF
:104BE000F701D0E902231A4303691A4343691A43C0
:104BF00011432B4AD16270474FF0FF310160002111
:104C000041608160C1600161416170472448006B6F
:104C10007047234880300068704721498031086020
:104C200070471F48806C70472049143108607047F6
:104C30001E491831086070471C491C3108607047D4
:104C40001A492031086070471949086070471849AF
:104C5000091D0860704701218143154A083211601F
:104C6000704713490C3108607047014600200C4A18
:104C7000526B0A400AB1012000E000207047084949
:104C80008863704701460020054A526B0A400AB10A
:104C9000012000E000207047014988637047000050
:104CA00000800140FF07C000A00030428C05304268
:104CB000AC013042002044490860091D0860091D0C
:104CC0000860091D086041483F4914310860704779
:104CD00000213D498279002A3AD00A4612680368C9
:104CE0009A430B461A600A1D126803689A430B1D0B
:104CF0001A60027911440A6803681A430A60324A4A
:104D00000832126803689A432F4B08331A601A1D41
:104D1000126803689A432C4B0C331A604279102AAC
:104D20000ED11A1F126803681A43274B08331A6002
:104D30001A1D126803681A43234B0C331A600DE0E6
:104D40002149427911440A6803681A430A6005E060
:104D5000027911440A6803689A430A607047002187
:104D6000016001710C214171002181717047164968
:104D7000103109680143144A10321160704701462E
:104D80000020114A143212680A400AB1012000E0E2
:104D9000002070470C49143108607047014600201C
:104DA0000022094B1B6803EA0102074B14331B68FE
:104DB0000B4013B10AB1012000E000207047024906
:104DC000143108607047000000040140FFFF0F002D
:104DD00010B50446CC48844208D10121042000F0DB
:104DE0002DFB0021042000F029FB46E0C748844247
:104DF00008D10121082000F021FB0021082000F04B
:104E00001DFB3AE0C248844208D10121102000F085
:104E100015FB0021102000F011FB2EE0BD4884425C
:104E200008D10121202000F009FB0021202000F002
:104E300005FB22E0B848844208D10121402000F05F
:104E4000FDFA0021402000F0F9FA16E0B348844250
:104E500008D10121802000F0F1FA0021802000F02B
:104E6000EDFA0AE0AE48844207D10121801500F036
:104E7000E5FA0021A01500F0E1FA10BD10B50121FE
:104E8000084600F0DBFA0021012000F0D7FA10BD3F
:104E90002DE9F041024600250026002000230024D1
:104EA000002791F803C00CF00F0591F803C00CF037
:104EB000100CBCF1000F03D091F802C04CEA0505BC
:104EC00091F800C0BCF1000F31D0146800202BE035
:104ED0004FF0010C0CFA00F3B1F800C00CEA030625
:104EE0009E4220D183004FF00F0C0CFA03F7BC4315
:104EF00005FA03FC4CEA040491F803C0BCF1280F46
:104F000006D14FF0010C0CFA00FCC2F814C00AE004
:104F100091F803C0BCF1480F05D14FF0010C0CFA19
:104F200000FCC2F810C0401C0828D1D31460B1F8AE
:104F300000C0BCF1FF0F34DD546800202EE000F10A
:104F4000080C4FF0010808FA0CF3B1F800C00CEAA5
:104F500003069E4221D183004FF00F0C0CFA03F799
:104F6000BC4305FA03FC4CEA040491F803C0BCF10D
:104F7000280F05D100F1080C08FA0CF8C2F81480CB
:104F800091F803C0BCF1480F07D100F1080C4FF0B5
:104F9000010808FA0CF8C2F81080401C0828CED38B
:104FA0005460BDE8F0814FF6FF71018002218170ED
:104FB0000421C17070470246002093680B400BB17A
:104FC000012000E0002070470146886880B27047E9
:104FD00002460020D3680B400BB1012000E0002006
:104FE00070470146C86880B27047016170474161EF
:104FF00070470AB1016100E041617047C1607047CC
:105000004FF480320A4382618161826182698269E0
:10501000704702460020434B18684FF680731840D3
:1050200040EA021008433F4B186070473E49C86190
:105030007047F0B50A46002300240021002500F047
:105040000046B6F1004F02D1364EF16901E0354E0F
:105050007168C0F3034583B200F44016B6F5401FF3
:1050600008D121F070612F4E766826F070662D4FC2
:105070007E6012E000F48016B6F5801F06D103268C
:1050800006FA05F4A14341F0706106E0460D3601D1
:1050900003FA06F6B14341F0706122B1460D3601C4
:1050A00003FA06F6314300F00046B6F1004F02D194
:1050B0001C4EF16101E01B4E7160F0BD30B5002265
:1050C0008B071C0F0F2303FA04F2164B08338C10C6
:1050D00053F824309343134C08348D1044F8253092
:1050E00023468C1053F824308C07240F00FA04F464
:1050F00023430C4C08348D1044F8253030BD0A4948
:10510000DC3108607047000000080140000C0140DD
:10511000001001400014014000180140001C014033
:10512000002001400000014000002042DF480068EC
:1051300040F00100DD49086008464068DC4908404D
:10514000DA49486008460068DA490840D7490860EB
:105150000846006820F4802008600846406820F473
:10516000FE0048604FF41F0088607047CF4909680F
:1051700021F48031CD4A11601146096821F4802163
:105180001160B0F5803F03D0B0F5802F0ED106E05E
:10519000C649096841F48031C44A116007E0C34937
:1051A000096841F4A021C14A116000E000BF00BFBE
:1051B000704710B501460022002300204A11012A41
:1051C00002D1BA4C236806E0022A02D1B74C236A06
:1051D00001E0B64C636A01F01F02012494401C40B8
:1051E0000CB1012000E0002010BD38B50020009077
:1051F0000024002500BF3120FFF7DBFF05460098A3
:10520000401C00900098B0F5A06F01D0002DF2D0A6
:105210003120FFF7CEFF08B1012400E00024204632
:1052200038BD01460020A14A106820F0F80040EA8D
:10523000C10010607047A049086070470246002016
:105240009A4B586820F47C1042EA01031843974BAC
:105250005860704798490866704701460020934A95
:10526000506820F003000843506070478F48406842
:1052700000F00C007047014600208C4A506820F076
:10528000F00008435060704701460020874A50688C
:1052900020F4E06008435060704701460020834AD4
:1052A000506820F4605040EAC1005060704729B156
:1052B0007E4A527A02437D4B5A7204E07B4A527A0C
:1052C00082437A4B5A7270477B49D83108607047E5
:1052D00001460020754A506820F440400843506061
:1052E00070470021714A20321170704A82F82010F4
:1052F000012802D004280AD104E001216B4A20329F
:10530000117005E00521694A2032117000E000BFEC
:1053100000BF70476949086070476449096A0143E2
:10532000624A11627047654944390860704730B578
:1053300000210022002400235C4D6D6805F00C0163
:1053400021B1042905D0082923D105E05C4D056071
:1053500022E05B4D05601FE0544D6D6805F470124E
:10536000524D6D6805F48034022505EB92421CB95C
:10537000544D554305600BE04C4D6D6805F4003508
:105380001DB1504D5543056002E04D4D554305603C
:1053900002E04B4D056000BF00BF444D6D6805F055
:1053A000F0010909484D6B5C0568DD4045603F4DE3
:1053B0006D6805F4E061090A434D6B5C4568DD40AA
:1053C00085603A4D6D6805F46051C90A3E4D6B5CCD
:1053D0004568DD40C560354D6D6805F44041890B79
:1053E0003A4D6B5CC568B5FBF3F5056130BD29B17D
:1053F0002E4A526902432D4B5A6104E02B4A5269EE
:1054000082432A4B5A61704729B1284A9269024364
:10541000264B9A6104E0254A92698243234B9A61A4
:10542000704729B1214AD2690243204BDA6104E076
:105430001E4AD26982431D4BDA61704729B11B4A6B
:10544000D2680243194BDA6004E0184AD2688243FA
:10545000164BDA60704729B1144A12690243134BA4
:105460001A6104E0114A12698243104B1A617047B5
:1054700012494039086070470F49C86470470B49AA
:10548000C87170470948406A40F080700749486217
:10549000704701460020054A92680A400AB101207F
:1054A00000E00020704701498872704700100240F8
:1054B0000000FFF8FFFFF6FE000042428004424277
:1054C00000127A0000093D00DC000020EC00002002
:1054D00010B50446BE48844208D101218014FFF76C
:1054E000ADFF0021A014FFF7A9FF16E0B9488442E0
:1054F00008D101210014FFF7AEFF00212014FFF7AF
:10550000AAFF0AE0B448844207D10121C013FFF783
:10551000A2FF0021E013FFF79EFF10BD10B500228F
:10552000028802F441520B884C8823438C88234321
:10553000CC8823430C8923434C8923438C89234300
:10554000CC8923431A430280838B4FF2FF7423409C
:1055500083830B8A038210BD2DE9F04F85B0054689
:105560000C464FF0000902274FF000084FF0010BE6
:105570000026B246A88B4FF240010840A8830220C3
:105580002884B5F81C90A068022801D100BF38E03B
:10559000A08810B94FF0010B01E04FF0020B8D48CD
:1055A000854200D100E000BF6846FFF7C0FEDDF88D
:1055B00000A0E088B0F5007F0AD14FEA1A2000EB86
:1055C00080004000A168B0FBF1F0401D86B20BE006
:1055D0004FEA4B10BAFBF0F000EB80004000A168EE
:1055E000B0FBF1F0401D86B20A20B6FBF0F606F0E3
:1055F0000108A6EB0800C0F34F074FF6FF7000EA62
:105600000828022F01DBFF2F02DD02274FF00008E0
:10561000E08840EA080038432884A088A18908432C
:10562000618808432188084340F4006040EA090982
:10563000A5F81C9005B0BDE8F08F002101804180E5
:105640008180C180018141818181C18107210182E5
:1056500070470021018041808180C18002218160EA
:1056600000218181704721B1028842F0400202800E
:1056700004E002884FF6BF731A400280704721B1E0
:10568000828B42F48062828304E0828B4FF6FF3388
:105690001A408283704730B5002400230C11012585
:1056A000A540ABB21AB185881D43858002E085888C
:1056B0009D43858030BD1AB183880B43838002E00F
:1056C00083888B4383807047818170470146888936
:1056D00070474FF6FF62914204D0028842F4807214
:1056E000028004E002884FF6FF631A400280704790
:1056F00021B1828842F00402828004E082884FF661
:10570000FB731A408280704702884FF2FF731A4081
:10571000028002880A4302807047018841F4805168
:105720000180704721B1028842F40052028004E0F7
:1057300002884DF6FF731A4002807047024600202F
:10574000012901D0108B00E0908A70470146088A39
:105750007047B1F5804F04D1028842F48042028044
:1057600004E002884BF6FF731A400280704702463D
:10577000002013890B400BB1012000E0002070478E
:10578000CA4302817047F0B502460020002400237E
:10579000002501F00F070126BE40B4B20B1101260F
:1057A0009E40B3B2968806EA03051689264016B1D4
:1057B0000DB1012000E00020F0BD10B5002201F085
:1057C0000F040123A3409AB2D343038110BD00000C
:1057D0000030014000380040003C004001684FF6B6
:1057E000FE72114001600021016041608160C16072
:1057F0008D49884208D18C490839496841F00F0128
:10580000894A083A51608AE087491431884208D1B0
:1058100085490839496841F0F001834A083A5160E6
:105820007DE081492831884208D17F49083949689B
:1058300041F470617C4A083A516070E07A493C3129
:10584000884208D178490839496841F47041764A5C
:10585000083A516063E074495031884208D1724976
:105860000839496841F470216F4A083A516056E09E
:105870006D496431884208D16B490839496841F45F
:105880007001694A083A516049E0674978318842B5
:1058900008D165490839496841F07061624A083A9F
:1058A00051603CE06149884206D1011F096841F01E
:1058B0000F01021F116032E05C491431884208D1A7
:1058C0005A49091F096841F0F001584A121F116036
:1058D00025E056492831884208D15449091F0968F2
:1058E00041F47061514A121F116018E04F493C3178
:1058F000884208D14D49091F096841F470414B4A5B
:10590000121F11600BE049495031884207D14749C5
:10591000091F096841F47021444A121F1160704741
:1059200010B50022026847F6F0739A430C6A8B6840
:1059300023430C6923434C6923438C692343CC697B
:1059400023434C6A23438C6A23431A430260CB6887
:1059500043600B6883604B68C36010BD0021016029
:1059600041608160C160016141618161C161016229
:1059700041628162704721B1026842F00102026017
:1059800004E002684FF6FE731A40026070471AB1D5
:1059900003680B43036002E003688B4303607047B6
:1059A000416070470146486880B270470146002058
:1059B000002201F080531BB11C4B083B1A6802E027
:1059C000194B083B1A6802EA01030BB1012000E001
:1059D0000020704700F0805119B11449091F086078
:1059E00002E0114908394860704701460020002252
:1059F00001F080531BB10D4B083B1A6802E00A4BC3
:105A0000083B1A6802EA01030BB1012000E0002004
:105A1000704700F0805119B10449091F086002E085
:105A200001490839486070470800024008040240F4
:105A30000146002070470146002070472DE9F041E3
:105A400080460D4617461E4616B90120BDE8F08176
:105A500005F0030060B9002407E005EB442178025B
:105A60004FF40072FCF7A3FB641CB442F5DB11E0B9
:105A700000240DE078024FF400721249FCF797FB06
:105A800005EB44204FF400720E4902F0F6FA641C54
:105A9000B442EFDB0020D9E72DE9F04107460E467E
:105AA00014461D46012D04D160025A023146FCF70E
:105AB0000BFF0020BDE8F081034600207047002066
:105AC00070470000B00A002070B504460D46164627
:105AD0004FF409712D4802F015FB012221462B4895
